{
	"nft-staking-app/StakingContract.sol": {
		"ERC721Staking": {
			"abi": [
				{
					"inputs": [
						{
							"internalType": "contract IERC721",
							"name": "_nftCollection",
							"type": "address"
						},
						{
							"internalType": "contract IERC20",
							"name": "_rewardsToken",
							"type": "address"
						}
					],
					"stateMutability": "nonpayable",
					"type": "constructor"
				},
				{
					"inputs": [
						{
							"internalType": "address",
							"name": "target",
							"type": "address"
						}
					],
					"name": "AddressEmptyCode",
					"type": "error"
				},
				{
					"inputs": [
						{
							"internalType": "address",
							"name": "account",
							"type": "address"
						}
					],
					"name": "AddressInsufficientBalance",
					"type": "error"
				},
				{
					"inputs": [],
					"name": "FailedInnerCall",
					"type": "error"
				},
				{
					"inputs": [
						{
							"internalType": "address",
							"name": "token",
							"type": "address"
						}
					],
					"name": "SafeERC20FailedOperation",
					"type": "error"
				},
				{
					"inputs": [
						{
							"internalType": "address",
							"name": "_staker",
							"type": "address"
						}
					],
					"name": "availableRewards",
					"outputs": [
						{
							"internalType": "uint256",
							"name": "",
							"type": "uint256"
						}
					],
					"stateMutability": "view",
					"type": "function"
				},
				{
					"inputs": [],
					"name": "claimRewards",
					"outputs": [],
					"stateMutability": "nonpayable",
					"type": "function"
				},
				{
					"inputs": [
						{
							"internalType": "address",
							"name": "_user",
							"type": "address"
						}
					],
					"name": "getStakedTokens",
					"outputs": [
						{
							"components": [
								{
									"internalType": "address",
									"name": "staker",
									"type": "address"
								},
								{
									"internalType": "uint256",
									"name": "tokenId",
									"type": "uint256"
								}
							],
							"internalType": "struct ERC721Staking.StakedToken[]",
							"name": "",
							"type": "tuple[]"
						}
					],
					"stateMutability": "view",
					"type": "function"
				},
				{
					"inputs": [],
					"name": "nftCollection",
					"outputs": [
						{
							"internalType": "contract IERC721",
							"name": "",
							"type": "address"
						}
					],
					"stateMutability": "view",
					"type": "function"
				},
				{
					"inputs": [],
					"name": "rewardsToken",
					"outputs": [
						{
							"internalType": "contract IERC20",
							"name": "",
							"type": "address"
						}
					],
					"stateMutability": "view",
					"type": "function"
				},
				{
					"inputs": [
						{
							"internalType": "uint256",
							"name": "_tokenId",
							"type": "uint256"
						}
					],
					"name": "stake",
					"outputs": [],
					"stateMutability": "nonpayable",
					"type": "function"
				},
				{
					"inputs": [
						{
							"internalType": "uint256",
							"name": "",
							"type": "uint256"
						}
					],
					"name": "stakerAddress",
					"outputs": [
						{
							"internalType": "address",
							"name": "",
							"type": "address"
						}
					],
					"stateMutability": "view",
					"type": "function"
				},
				{
					"inputs": [
						{
							"internalType": "address",
							"name": "",
							"type": "address"
						}
					],
					"name": "stakers",
					"outputs": [
						{
							"internalType": "uint256",
							"name": "amountStaked",
							"type": "uint256"
						},
						{
							"internalType": "uint256",
							"name": "timeOfLastUpdate",
							"type": "uint256"
						},
						{
							"internalType": "uint256",
							"name": "unclaimedRewards",
							"type": "uint256"
						}
					],
					"stateMutability": "view",
					"type": "function"
				},
				{
					"inputs": [
						{
							"internalType": "uint256",
							"name": "_tokenId",
							"type": "uint256"
						}
					],
					"name": "withdraw",
					"outputs": [],
					"stateMutability": "nonpayable",
					"type": "function"
				}
			],
			"devdoc": {
				"errors": {
					"AddressEmptyCode(address)": [
						{
							"details": "There's no code at `target` (it is not a contract)."
						}
					],
					"AddressInsufficientBalance(address)": [
						{
							"details": "The ETH balance of the account is not enough to perform the operation."
						}
					],
					"FailedInnerCall()": [
						{
							"details": "A call to an address target failed. The target may have reverted."
						}
					],
					"SafeERC20FailedOperation(address)": [
						{
							"details": "An operation with an ERC20 token failed."
						}
					]
				},
				"kind": "dev",
				"methods": {},
				"version": 1
			},
			"evm": {
				"assembly": "    /* \"nft-staking-app/StakingContract.sol\":309:7538  contract ERC721Staking is ReentrancyGuard { ... */\n  mstore(0x40, 0xc0)\n    /* \"nft-staking-app/StakingContract.sol\":1426:1431  10000 */\n  0x2710\n    /* \"nft-staking-app/StakingContract.sol\":1393:1431  uint256 private rewardsPerHour = 10000 */\n  0x01\n  sstore\n    /* \"nft-staking-app/StakingContract.sol\":611:757  constructor(IERC721 _nftCollection, IERC20 _rewardsToken) {... */\n  callvalue\n  dup1\n  iszero\n  tag_1\n  jumpi\n  0x00\n  dup1\n  revert\ntag_1:\n  pop\n  mload(0x40)\n  sub(codesize, bytecodeSize)\n  dup1\n  bytecodeSize\n  dup4\n  codecopy\n  dup2\n  dup2\n  add\n  0x40\n  mstore\n  dup2\n  add\n  swap1\n  tag_2\n  swap2\n  swap1\n  tag_3\n  jump\t// in\ntag_2:\n    /* \"@openzeppelin/contracts/security/ReentrancyGuard.sol\":1716:1717  1 */\n  0x01\n    /* \"@openzeppelin/contracts/security/ReentrancyGuard.sol\":1821:1828  _status */\n  0x00\n    /* \"@openzeppelin/contracts/security/ReentrancyGuard.sol\":1821:1843  _status = _NOT_ENTERED */\n  dup2\n  swap1\n  sstore\n  pop\n    /* \"nft-staking-app/StakingContract.sol\":696:710  _nftCollection */\n  dup2\n    /* \"nft-staking-app/StakingContract.sol\":680:710  nftCollection = _nftCollection */\n  0xffffffffffffffffffffffffffffffffffffffff\n  and\n  0xa0\n  dup2\n  0xffffffffffffffffffffffffffffffffffffffff\n  and\n  dup2\n  mstore\n  pop\n  pop\n    /* \"nft-staking-app/StakingContract.sol\":736:749  _rewardsToken */\n  dup1\n    /* \"nft-staking-app/StakingContract.sol\":721:749  rewardsToken = _rewardsToken */\n  0xffffffffffffffffffffffffffffffffffffffff\n  and\n  0x80\n  dup2\n  0xffffffffffffffffffffffffffffffffffffffff\n  and\n  dup2\n  mstore\n  pop\n  pop\n    /* \"nft-staking-app/StakingContract.sol\":611:757  constructor(IERC721 _nftCollection, IERC20 _rewardsToken) {... */\n  pop\n  pop\n    /* \"nft-staking-app/StakingContract.sol\":309:7538  contract ERC721Staking is ReentrancyGuard { ... */\n  jump(tag_8)\n    /* \"#utility.yul\":88:205   */\ntag_10:\n    /* \"#utility.yul\":197:198   */\n  0x00\n    /* \"#utility.yul\":194:195   */\n  dup1\n    /* \"#utility.yul\":187:199   */\n  revert\n    /* \"#utility.yul\":334:460   */\ntag_12:\n    /* \"#utility.yul\":371:378   */\n  0x00\n    /* \"#utility.yul\":411:453   */\n  0xffffffffffffffffffffffffffffffffffffffff\n    /* \"#utility.yul\":404:409   */\n  dup3\n    /* \"#utility.yul\":400:454   */\n  and\n    /* \"#utility.yul\":389:454   */\n  swap1\n  pop\n    /* \"#utility.yul\":334:460   */\n  swap2\n  swap1\n  pop\n  jump\t// out\n    /* \"#utility.yul\":466:562   */\ntag_13:\n    /* \"#utility.yul\":503:510   */\n  0x00\n    /* \"#utility.yul\":532:556   */\n  tag_26\n    /* \"#utility.yul\":550:555   */\n  dup3\n    /* \"#utility.yul\":532:556   */\n  tag_12\n  jump\t// in\ntag_26:\n    /* \"#utility.yul\":521:556   */\n  swap1\n  pop\n    /* \"#utility.yul\":466:562   */\n  swap2\n  swap1\n  pop\n  jump\t// out\n    /* \"#utility.yul\":568:679   */\ntag_14:\n    /* \"#utility.yul\":620:627   */\n  0x00\n    /* \"#utility.yul\":649:673   */\n  tag_28\n    /* \"#utility.yul\":667:672   */\n  dup3\n    /* \"#utility.yul\":649:673   */\n  tag_13\n  jump\t// in\ntag_28:\n    /* \"#utility.yul\":638:673   */\n  swap1\n  pop\n    /* \"#utility.yul\":568:679   */\n  swap2\n  swap1\n  pop\n  jump\t// out\n    /* \"#utility.yul\":685:837   */\ntag_15:\n    /* \"#utility.yul\":773:812   */\n  tag_30\n    /* \"#utility.yul\":806:811   */\n  dup2\n    /* \"#utility.yul\":773:812   */\n  tag_14\n  jump\t// in\ntag_30:\n    /* \"#utility.yul\":766:771   */\n  dup2\n    /* \"#utility.yul\":763:813   */\n  eq\n    /* \"#utility.yul\":753:831   */\n  tag_31\n  jumpi\n    /* \"#utility.yul\":827:828   */\n  0x00\n    /* \"#utility.yul\":824:825   */\n  dup1\n    /* \"#utility.yul\":817:829   */\n  revert\n    /* \"#utility.yul\":753:831   */\ntag_31:\n    /* \"#utility.yul\":685:837   */\n  pop\n  jump\t// out\n    /* \"#utility.yul\":843:1016   */\ntag_16:\n    /* \"#utility.yul\":915:920   */\n  0x00\n    /* \"#utility.yul\":946:952   */\n  dup2\n    /* \"#utility.yul\":940:953   */\n  mload\n    /* \"#utility.yul\":931:953   */\n  swap1\n  pop\n    /* \"#utility.yul\":962:1010   */\n  tag_33\n    /* \"#utility.yul\":1004:1009   */\n  dup2\n    /* \"#utility.yul\":962:1010   */\n  tag_15\n  jump\t// in\ntag_33:\n    /* \"#utility.yul\":843:1016   */\n  swap3\n  swap2\n  pop\n  pop\n  jump\t// out\n    /* \"#utility.yul\":1022:1132   */\ntag_17:\n    /* \"#utility.yul\":1073:1080   */\n  0x00\n    /* \"#utility.yul\":1102:1126   */\n  tag_35\n    /* \"#utility.yul\":1120:1125   */\n  dup3\n    /* \"#utility.yul\":1102:1126   */\n  tag_13\n  jump\t// in\ntag_35:\n    /* \"#utility.yul\":1091:1126   */\n  swap1\n  pop\n    /* \"#utility.yul\":1022:1132   */\n  swap2\n  swap1\n  pop\n  jump\t// out\n    /* \"#utility.yul\":1138:1288   */\ntag_18:\n    /* \"#utility.yul\":1225:1263   */\n  tag_37\n    /* \"#utility.yul\":1257:1262   */\n  dup2\n    /* \"#utility.yul\":1225:1263   */\n  tag_17\n  jump\t// in\ntag_37:\n    /* \"#utility.yul\":1218:1223   */\n  dup2\n    /* \"#utility.yul\":1215:1264   */\n  eq\n    /* \"#utility.yul\":1205:1282   */\n  tag_38\n  jumpi\n    /* \"#utility.yul\":1278:1279   */\n  0x00\n    /* \"#utility.yul\":1275:1276   */\n  dup1\n    /* \"#utility.yul\":1268:1280   */\n  revert\n    /* \"#utility.yul\":1205:1282   */\ntag_38:\n    /* \"#utility.yul\":1138:1288   */\n  pop\n  jump\t// out\n    /* \"#utility.yul\":1294:1465   */\ntag_19:\n    /* \"#utility.yul\":1365:1370   */\n  0x00\n    /* \"#utility.yul\":1396:1402   */\n  dup2\n    /* \"#utility.yul\":1390:1403   */\n  mload\n    /* \"#utility.yul\":1381:1403   */\n  swap1\n  pop\n    /* \"#utility.yul\":1412:1459   */\n  tag_40\n    /* \"#utility.yul\":1453:1458   */\n  dup2\n    /* \"#utility.yul\":1412:1459   */\n  tag_18\n  jump\t// in\ntag_40:\n    /* \"#utility.yul\":1294:1465   */\n  swap3\n  swap2\n  pop\n  pop\n  jump\t// out\n    /* \"#utility.yul\":1471:2036   */\ntag_3:\n    /* \"#utility.yul\":1579:1585   */\n  0x00\n    /* \"#utility.yul\":1587:1593   */\n  dup1\n    /* \"#utility.yul\":1636:1638   */\n  0x40\n    /* \"#utility.yul\":1624:1633   */\n  dup4\n    /* \"#utility.yul\":1615:1622   */\n  dup6\n    /* \"#utility.yul\":1611:1634   */\n  sub\n    /* \"#utility.yul\":1607:1639   */\n  slt\n    /* \"#utility.yul\":1604:1723   */\n  iszero\n  tag_42\n  jumpi\n    /* \"#utility.yul\":1642:1721   */\n  tag_43\n  tag_10\n  jump\t// in\ntag_43:\n    /* \"#utility.yul\":1604:1723   */\ntag_42:\n    /* \"#utility.yul\":1762:1763   */\n  0x00\n    /* \"#utility.yul\":1787:1866   */\n  tag_44\n    /* \"#utility.yul\":1858:1865   */\n  dup6\n    /* \"#utility.yul\":1849:1855   */\n  dup3\n    /* \"#utility.yul\":1838:1847   */\n  dup7\n    /* \"#utility.yul\":1834:1856   */\n  add\n    /* \"#utility.yul\":1787:1866   */\n  tag_16\n  jump\t// in\ntag_44:\n    /* \"#utility.yul\":1777:1866   */\n  swap3\n  pop\n    /* \"#utility.yul\":1733:1876   */\n  pop\n    /* \"#utility.yul\":1915:1917   */\n  0x20\n    /* \"#utility.yul\":1941:2019   */\n  tag_45\n    /* \"#utility.yul\":2011:2018   */\n  dup6\n    /* \"#utility.yul\":2002:2008   */\n  dup3\n    /* \"#utility.yul\":1991:2000   */\n  dup7\n    /* \"#utility.yul\":1987:2009   */\n  add\n    /* \"#utility.yul\":1941:2019   */\n  tag_19\n  jump\t// in\ntag_45:\n    /* \"#utility.yul\":1931:2019   */\n  swap2\n  pop\n    /* \"#utility.yul\":1886:2029   */\n  pop\n    /* \"#utility.yul\":1471:2036   */\n  swap3\n  pop\n  swap3\n  swap1\n  pop\n  jump\t// out\n    /* \"nft-staking-app/StakingContract.sol\":309:7538  contract ERC721Staking is ReentrancyGuard { ... */\ntag_8:\n  mload(0x80)\n  mload(0xa0)\n  codecopy(0x00, dataOffset(sub_0), dataSize(sub_0))\n  0x00\n  assignImmutable(\"0x538742f01864684e7bc02c5833d23bcc80c6c36906ebb070efda83aa556ded94\")\n  0x00\n  assignImmutable(\"0xc6ff54af72699a419b2bb7b4c5a42be0e7bfb5f0cdab490188e69fdfef447f66\")\n  return(0x00, dataSize(sub_0))\nstop\n\nsub_0: assembly {\n        /* \"nft-staking-app/StakingContract.sol\":309:7538  contract ERC721Staking is ReentrancyGuard { ... */\n      mstore(0x40, 0x80)\n      callvalue\n      dup1\n      iszero\n      tag_1\n      jumpi\n      0x00\n      dup1\n      revert\n    tag_1:\n      pop\n      jumpi(tag_2, lt(calldatasize, 0x04))\n      shr(0xe0, calldataload(0x00))\n      dup1\n      0x9168ae72\n      gt\n      tag_12\n      jumpi\n      dup1\n      0x9168ae72\n      eq\n      tag_7\n      jumpi\n      dup1\n      0x94067045\n      eq\n      tag_8\n      jumpi\n      dup1\n      0xa694fc3a\n      eq\n      tag_9\n      jumpi\n      dup1\n      0xd1af0c7d\n      eq\n      tag_10\n      jumpi\n      dup1\n      0xf854a27f\n      eq\n      tag_11\n      jumpi\n      jump(tag_2)\n    tag_12:\n      dup1\n      0x2e1a7d4d\n      eq\n      tag_3\n      jumpi\n      dup1\n      0x372500ab\n      eq\n      tag_4\n      jumpi\n      dup1\n      0x63c28db1\n      eq\n      tag_5\n      jumpi\n      dup1\n      0x6588103b\n      eq\n      tag_6\n      jumpi\n    tag_2:\n      0x00\n      dup1\n      revert\n        /* \"nft-staking-app/StakingContract.sol\":3478:5268  function withdraw(uint256 _tokenId) external nonReentrant {... */\n    tag_3:\n      tag_13\n      0x04\n      dup1\n      calldatasize\n      sub\n      dup2\n      add\n      swap1\n      tag_14\n      swap2\n      swap1\n      tag_15\n      jump\t// in\n    tag_14:\n      tag_16\n      jump\t// in\n    tag_13:\n      stop\n        /* \"nft-staking-app/StakingContract.sol\":5451:5837  function claimRewards() external {... */\n    tag_4:\n      tag_17\n      tag_18\n      jump\t// in\n    tag_17:\n      stop\n        /* \"nft-staking-app/StakingContract.sol\":6114:6987  function getStakedTokens(address _user) public view returns (StakedToken[] memory) {... */\n    tag_5:\n      tag_19\n      0x04\n      dup1\n      calldatasize\n      sub\n      dup2\n      add\n      swap1\n      tag_20\n      swap2\n      swap1\n      tag_21\n      jump\t// in\n    tag_20:\n      tag_22\n      jump\t// in\n    tag_19:\n      mload(0x40)\n      tag_23\n      swap2\n      swap1\n      tag_24\n      jump\t// in\n    tag_23:\n      mload(0x40)\n      dup1\n      swap2\n      sub\n      swap1\n      return\n        /* \"nft-staking-app/StakingContract.sol\":477:515  IERC721 public immutable nftCollection */\n    tag_6:\n      tag_25\n      tag_26\n      jump\t// in\n    tag_25:\n      mload(0x40)\n      tag_27\n      swap2\n      swap1\n      tag_28\n      jump\t// in\n    tag_27:\n      mload(0x40)\n      dup1\n      swap2\n      sub\n      swap1\n      return\n        /* \"nft-staking-app/StakingContract.sol\":1487:1528  mapping(address => Staker) public stakers */\n    tag_7:\n      tag_29\n      0x04\n      dup1\n      calldatasize\n      sub\n      dup2\n      add\n      swap1\n      tag_30\n      swap2\n      swap1\n      tag_21\n      jump\t// in\n    tag_30:\n      tag_31\n      jump\t// in\n    tag_29:\n      mload(0x40)\n      tag_32\n      swap4\n      swap3\n      swap2\n      swap1\n      tag_33\n      jump\t// in\n    tag_32:\n      mload(0x40)\n      dup1\n      swap2\n      sub\n      swap1\n      return\n        /* \"nft-staking-app/StakingContract.sol\":1649:1697  mapping(uint256 => address) public stakerAddress */\n    tag_8:\n      tag_34\n      0x04\n      dup1\n      calldatasize\n      sub\n      dup2\n      add\n      swap1\n      tag_35\n      swap2\n      swap1\n      tag_15\n      jump\t// in\n    tag_35:\n      tag_36\n      jump\t// in\n    tag_34:\n      mload(0x40)\n      tag_37\n      swap2\n      swap1\n      tag_38\n      jump\t// in\n    tag_37:\n      mload(0x40)\n      dup1\n      swap2\n      sub\n      swap1\n      return\n        /* \"nft-staking-app/StakingContract.sol\":1971:3225  function stake(uint256 _tokenId) external nonReentrant {... */\n    tag_9:\n      tag_39\n      0x04\n      dup1\n      calldatasize\n      sub\n      dup2\n      add\n      swap1\n      tag_40\n      swap2\n      swap1\n      tag_15\n      jump\t// in\n    tag_40:\n      tag_41\n      jump\t// in\n    tag_39:\n      stop\n        /* \"nft-staking-app/StakingContract.sol\":434:470  IERC20 public immutable rewardsToken */\n    tag_10:\n      tag_42\n      tag_43\n      jump\t// in\n    tag_42:\n      mload(0x40)\n      tag_44\n      swap2\n      swap1\n      tag_45\n      jump\t// in\n    tag_44:\n      mload(0x40)\n      dup1\n      swap2\n      sub\n      swap1\n      return\n        /* \"nft-staking-app/StakingContract.sol\":5897:6106  function availableRewards(address _staker) public view returns (uint256) {... */\n    tag_11:\n      tag_46\n      0x04\n      dup1\n      calldatasize\n      sub\n      dup2\n      add\n      swap1\n      tag_47\n      swap2\n      swap1\n      tag_21\n      jump\t// in\n    tag_47:\n      tag_48\n      jump\t// in\n    tag_46:\n      mload(0x40)\n      tag_49\n      swap2\n      swap1\n      tag_50\n      jump\t// in\n    tag_49:\n      mload(0x40)\n      dup1\n      swap2\n      sub\n      swap1\n      return\n        /* \"nft-staking-app/StakingContract.sol\":3478:5268  function withdraw(uint256 _tokenId) external nonReentrant {... */\n    tag_16:\n        /* \"@openzeppelin/contracts/security/ReentrancyGuard.sol\":2261:2282  _nonReentrantBefore() */\n      tag_52\n        /* \"@openzeppelin/contracts/security/ReentrancyGuard.sol\":2261:2280  _nonReentrantBefore */\n      tag_53\n        /* \"@openzeppelin/contracts/security/ReentrancyGuard.sol\":2261:2282  _nonReentrantBefore() */\n      jump\t// in\n    tag_52:\n        /* \"nft-staking-app/StakingContract.sol\":3684:3685  0 */\n      0x00\n        /* \"nft-staking-app/StakingContract.sol\":3649:3656  stakers */\n      0x02\n        /* \"nft-staking-app/StakingContract.sol\":3649:3668  stakers[msg.sender] */\n      0x00\n        /* \"nft-staking-app/StakingContract.sol\":3657:3667  msg.sender */\n      caller\n        /* \"nft-staking-app/StakingContract.sol\":3649:3668  stakers[msg.sender] */\n      0xffffffffffffffffffffffffffffffffffffffff\n      and\n      0xffffffffffffffffffffffffffffffffffffffff\n      and\n      dup2\n      mstore\n      0x20\n      add\n      swap1\n      dup2\n      mstore\n      0x20\n      add\n      0x00\n      keccak256\n        /* \"nft-staking-app/StakingContract.sol\":3649:3681  stakers[msg.sender].amountStaked */\n      0x00\n      add\n      sload\n        /* \"nft-staking-app/StakingContract.sol\":3649:3685  stakers[msg.sender].amountStaked > 0 */\n      gt\n        /* \"nft-staking-app/StakingContract.sol\":3627:3738  require(... */\n      tag_55\n      jumpi\n      mload(0x40)\n      0x08c379a000000000000000000000000000000000000000000000000000000000\n      dup2\n      mstore\n      0x04\n      add\n      tag_56\n      swap1\n      tag_57\n      jump\t// in\n    tag_56:\n      mload(0x40)\n      dup1\n      swap2\n      sub\n      swap1\n      revert\n    tag_55:\n        /* \"nft-staking-app/StakingContract.sol\":3860:3870  msg.sender */\n      caller\n        /* \"nft-staking-app/StakingContract.sol\":3833:3870  stakerAddress[_tokenId] == msg.sender */\n      0xffffffffffffffffffffffffffffffffffffffff\n      and\n        /* \"nft-staking-app/StakingContract.sol\":3833:3846  stakerAddress */\n      0x03\n        /* \"nft-staking-app/StakingContract.sol\":3833:3856  stakerAddress[_tokenId] */\n      0x00\n        /* \"nft-staking-app/StakingContract.sol\":3847:3855  _tokenId */\n      dup4\n        /* \"nft-staking-app/StakingContract.sol\":3833:3856  stakerAddress[_tokenId] */\n      dup2\n      mstore\n      0x20\n      add\n      swap1\n      dup2\n      mstore\n      0x20\n      add\n      0x00\n      keccak256\n      0x00\n      swap1\n      sload\n      swap1\n      0x0100\n      exp\n      swap1\n      div\n      0xffffffffffffffffffffffffffffffffffffffff\n      and\n        /* \"nft-staking-app/StakingContract.sol\":3833:3870  stakerAddress[_tokenId] == msg.sender */\n      0xffffffffffffffffffffffffffffffffffffffff\n      and\n      eq\n        /* \"nft-staking-app/StakingContract.sol\":3825:3900  require(stakerAddress[_tokenId] == msg.sender, \"You don't own this token!\") */\n      tag_58\n      jumpi\n      mload(0x40)\n      0x08c379a000000000000000000000000000000000000000000000000000000000\n      dup2\n      mstore\n      0x04\n      add\n      tag_59\n      swap1\n      tag_60\n      jump\t// in\n    tag_59:\n      mload(0x40)\n      dup1\n      swap2\n      sub\n      swap1\n      revert\n    tag_58:\n        /* \"nft-staking-app/StakingContract.sol\":4012:4027  uint256 rewards */\n      0x00\n        /* \"nft-staking-app/StakingContract.sol\":4030:4058  calculateRewards(msg.sender) */\n      tag_61\n        /* \"nft-staking-app/StakingContract.sol\":4047:4057  msg.sender */\n      caller\n        /* \"nft-staking-app/StakingContract.sol\":4030:4046  calculateRewards */\n      tag_62\n        /* \"nft-staking-app/StakingContract.sol\":4030:4058  calculateRewards(msg.sender) */\n      jump\t// in\n    tag_61:\n        /* \"nft-staking-app/StakingContract.sol\":4012:4058  uint256 rewards = calculateRewards(msg.sender) */\n      swap1\n      pop\n        /* \"nft-staking-app/StakingContract.sol\":4109:4116  rewards */\n      dup1\n        /* \"nft-staking-app/StakingContract.sol\":4069:4076  stakers */\n      0x02\n        /* \"nft-staking-app/StakingContract.sol\":4069:4088  stakers[msg.sender] */\n      0x00\n        /* \"nft-staking-app/StakingContract.sol\":4077:4087  msg.sender */\n      caller\n        /* \"nft-staking-app/StakingContract.sol\":4069:4088  stakers[msg.sender] */\n      0xffffffffffffffffffffffffffffffffffffffff\n      and\n      0xffffffffffffffffffffffffffffffffffffffff\n      and\n      dup2\n      mstore\n      0x20\n      add\n      swap1\n      dup2\n      mstore\n      0x20\n      add\n      0x00\n      keccak256\n        /* \"nft-staking-app/StakingContract.sol\":4069:4105  stakers[msg.sender].unclaimedRewards */\n      0x03\n      add\n      0x00\n        /* \"nft-staking-app/StakingContract.sol\":4069:4116  stakers[msg.sender].unclaimedRewards += rewards */\n      dup3\n      dup3\n      sload\n      tag_63\n      swap2\n      swap1\n      tag_64\n      jump\t// in\n    tag_63:\n      swap3\n      pop\n      pop\n      dup2\n      swap1\n      sstore\n      pop\n        /* \"nft-staking-app/StakingContract.sol\":4199:4212  uint256 index */\n      0x00\n        /* \"nft-staking-app/StakingContract.sol\":4232:4241  uint256 i */\n      dup1\n        /* \"nft-staking-app/StakingContract.sol\":4227:4580  for (uint256 i = 0; i < stakers[msg.sender].stakedTokens.length; i++) {... */\n    tag_65:\n        /* \"nft-staking-app/StakingContract.sol\":4251:4258  stakers */\n      0x02\n        /* \"nft-staking-app/StakingContract.sol\":4251:4270  stakers[msg.sender] */\n      0x00\n        /* \"nft-staking-app/StakingContract.sol\":4259:4269  msg.sender */\n      caller\n        /* \"nft-staking-app/StakingContract.sol\":4251:4270  stakers[msg.sender] */\n      0xffffffffffffffffffffffffffffffffffffffff\n      and\n      0xffffffffffffffffffffffffffffffffffffffff\n      and\n      dup2\n      mstore\n      0x20\n      add\n      swap1\n      dup2\n      mstore\n      0x20\n      add\n      0x00\n      keccak256\n        /* \"nft-staking-app/StakingContract.sol\":4251:4283  stakers[msg.sender].stakedTokens */\n      0x01\n      add\n        /* \"nft-staking-app/StakingContract.sol\":4251:4290  stakers[msg.sender].stakedTokens.length */\n      dup1\n      sload\n      swap1\n      pop\n        /* \"nft-staking-app/StakingContract.sol\":4247:4248  i */\n      dup2\n        /* \"nft-staking-app/StakingContract.sol\":4247:4290  i < stakers[msg.sender].stakedTokens.length */\n      lt\n        /* \"nft-staking-app/StakingContract.sol\":4227:4580  for (uint256 i = 0; i < stakers[msg.sender].stakedTokens.length; i++) {... */\n      iszero\n      tag_66\n      jumpi\n        /* \"nft-staking-app/StakingContract.sol\":4381:4389  _tokenId */\n      dup4\n        /* \"nft-staking-app/StakingContract.sol\":4334:4341  stakers */\n      0x02\n        /* \"nft-staking-app/StakingContract.sol\":4334:4353  stakers[msg.sender] */\n      0x00\n        /* \"nft-staking-app/StakingContract.sol\":4342:4352  msg.sender */\n      caller\n        /* \"nft-staking-app/StakingContract.sol\":4334:4353  stakers[msg.sender] */\n      0xffffffffffffffffffffffffffffffffffffffff\n      and\n      0xffffffffffffffffffffffffffffffffffffffff\n      and\n      dup2\n      mstore\n      0x20\n      add\n      swap1\n      dup2\n      mstore\n      0x20\n      add\n      0x00\n      keccak256\n        /* \"nft-staking-app/StakingContract.sol\":4334:4366  stakers[msg.sender].stakedTokens */\n      0x01\n      add\n        /* \"nft-staking-app/StakingContract.sol\":4367:4368  i */\n      dup3\n        /* \"nft-staking-app/StakingContract.sol\":4334:4369  stakers[msg.sender].stakedTokens[i] */\n      dup2\n      sload\n      dup2\n      lt\n      tag_68\n      jumpi\n      tag_69\n      tag_70\n      jump\t// in\n    tag_69:\n    tag_68:\n      swap1\n      0x00\n      mstore\n      keccak256(0x00, 0x20)\n      swap1\n      0x02\n      mul\n      add\n        /* \"nft-staking-app/StakingContract.sol\":4334:4377  stakers[msg.sender].stakedTokens[i].tokenId */\n      0x01\n      add\n      sload\n        /* \"nft-staking-app/StakingContract.sol\":4334:4389  stakers[msg.sender].stakedTokens[i].tokenId == _tokenId */\n      eq\n        /* \"nft-staking-app/StakingContract.sol\":4334:4485  stakers[msg.sender].stakedTokens[i].tokenId == _tokenId ... */\n      dup1\n      iszero\n      tag_72\n      jumpi\n      pop\n        /* \"nft-staking-app/StakingContract.sol\":4483:4484  0 */\n      0x00\n        /* \"nft-staking-app/StakingContract.sol\":4429:4485  stakers[msg.sender].stakedTokens[i].staker != address(0) */\n      0xffffffffffffffffffffffffffffffffffffffff\n      and\n        /* \"nft-staking-app/StakingContract.sol\":4429:4436  stakers */\n      0x02\n        /* \"nft-staking-app/StakingContract.sol\":4429:4448  stakers[msg.sender] */\n      0x00\n        /* \"nft-staking-app/StakingContract.sol\":4437:4447  msg.sender */\n      caller\n        /* \"nft-staking-app/StakingContract.sol\":4429:4448  stakers[msg.sender] */\n      0xffffffffffffffffffffffffffffffffffffffff\n      and\n      0xffffffffffffffffffffffffffffffffffffffff\n      and\n      dup2\n      mstore\n      0x20\n      add\n      swap1\n      dup2\n      mstore\n      0x20\n      add\n      0x00\n      keccak256\n        /* \"nft-staking-app/StakingContract.sol\":4429:4461  stakers[msg.sender].stakedTokens */\n      0x01\n      add\n        /* \"nft-staking-app/StakingContract.sol\":4462:4463  i */\n      dup3\n        /* \"nft-staking-app/StakingContract.sol\":4429:4464  stakers[msg.sender].stakedTokens[i] */\n      dup2\n      sload\n      dup2\n      lt\n      tag_73\n      jumpi\n      tag_74\n      tag_70\n      jump\t// in\n    tag_74:\n    tag_73:\n      swap1\n      0x00\n      mstore\n      keccak256(0x00, 0x20)\n      swap1\n      0x02\n      mul\n      add\n        /* \"nft-staking-app/StakingContract.sol\":4429:4471  stakers[msg.sender].stakedTokens[i].staker */\n      0x00\n      add\n      0x00\n      swap1\n      sload\n      swap1\n      0x0100\n      exp\n      swap1\n      div\n      0xffffffffffffffffffffffffffffffffffffffff\n      and\n        /* \"nft-staking-app/StakingContract.sol\":4429:4485  stakers[msg.sender].stakedTokens[i].staker != address(0) */\n      0xffffffffffffffffffffffffffffffffffffffff\n      and\n      eq\n      iszero\n        /* \"nft-staking-app/StakingContract.sol\":4334:4485  stakers[msg.sender].stakedTokens[i].tokenId == _tokenId ... */\n    tag_72:\n        /* \"nft-staking-app/StakingContract.sol\":4312:4569  if (... */\n      iszero\n      tag_76\n      jumpi\n        /* \"nft-staking-app/StakingContract.sol\":4528:4529  i */\n      dup1\n        /* \"nft-staking-app/StakingContract.sol\":4520:4529  index = i */\n      swap2\n      pop\n        /* \"nft-staking-app/StakingContract.sol\":4548:4553  break */\n      jump(tag_66)\n        /* \"nft-staking-app/StakingContract.sol\":4312:4569  if (... */\n    tag_76:\n        /* \"nft-staking-app/StakingContract.sol\":4292:4295  i++ */\n      dup1\n      dup1\n      0x01\n      add\n      swap2\n      pop\n      pop\n        /* \"nft-staking-app/StakingContract.sol\":4227:4580  for (uint256 i = 0; i < stakers[msg.sender].stakedTokens.length; i++) {... */\n      jump(tag_65)\n    tag_66:\n      pop\n        /* \"nft-staking-app/StakingContract.sol\":4733:4734  0 */\n      0x00\n        /* \"nft-staking-app/StakingContract.sol\":4676:4683  stakers */\n      0x02\n        /* \"nft-staking-app/StakingContract.sol\":4676:4695  stakers[msg.sender] */\n      0x00\n        /* \"nft-staking-app/StakingContract.sol\":4684:4694  msg.sender */\n      caller\n        /* \"nft-staking-app/StakingContract.sol\":4676:4695  stakers[msg.sender] */\n      0xffffffffffffffffffffffffffffffffffffffff\n      and\n      0xffffffffffffffffffffffffffffffffffffffff\n      and\n      dup2\n      mstore\n      0x20\n      add\n      swap1\n      dup2\n      mstore\n      0x20\n      add\n      0x00\n      keccak256\n        /* \"nft-staking-app/StakingContract.sol\":4676:4708  stakers[msg.sender].stakedTokens */\n      0x01\n      add\n        /* \"nft-staking-app/StakingContract.sol\":4709:4714  index */\n      dup3\n        /* \"nft-staking-app/StakingContract.sol\":4676:4715  stakers[msg.sender].stakedTokens[index] */\n      dup2\n      sload\n      dup2\n      lt\n      tag_77\n      jumpi\n      tag_78\n      tag_70\n      jump\t// in\n    tag_78:\n    tag_77:\n      swap1\n      0x00\n      mstore\n      keccak256(0x00, 0x20)\n      swap1\n      0x02\n      mul\n      add\n        /* \"nft-staking-app/StakingContract.sol\":4676:4722  stakers[msg.sender].stakedTokens[index].staker */\n      0x00\n      add\n      0x00\n        /* \"nft-staking-app/StakingContract.sol\":4676:4735  stakers[msg.sender].stakedTokens[index].staker = address(0) */\n      0x0100\n      exp\n      dup2\n      sload\n      dup2\n      0xffffffffffffffffffffffffffffffffffffffff\n      mul\n      not\n      and\n      swap1\n      dup4\n      0xffffffffffffffffffffffffffffffffffffffff\n      and\n      mul\n      or\n      swap1\n      sstore\n      pop\n        /* \"nft-staking-app/StakingContract.sol\":4804:4811  stakers */\n      0x02\n        /* \"nft-staking-app/StakingContract.sol\":4804:4823  stakers[msg.sender] */\n      0x00\n        /* \"nft-staking-app/StakingContract.sol\":4812:4822  msg.sender */\n      caller\n        /* \"nft-staking-app/StakingContract.sol\":4804:4823  stakers[msg.sender] */\n      0xffffffffffffffffffffffffffffffffffffffff\n      and\n      0xffffffffffffffffffffffffffffffffffffffff\n      and\n      dup2\n      mstore\n      0x20\n      add\n      swap1\n      dup2\n      mstore\n      0x20\n      add\n      0x00\n      keccak256\n        /* \"nft-staking-app/StakingContract.sol\":4804:4836  stakers[msg.sender].amountStaked */\n      0x00\n      add\n      0x00\n        /* \"nft-staking-app/StakingContract.sol\":4804:4838  stakers[msg.sender].amountStaked-- */\n      dup2\n      sload\n      dup1\n      swap3\n      swap2\n      swap1\n      tag_80\n      swap1\n      tag_81\n      jump\t// in\n    tag_80:\n      swap2\n      swap1\n      pop\n      sstore\n      pop\n        /* \"nft-staking-app/StakingContract.sol\":4999:5000  0 */\n      0x00\n        /* \"nft-staking-app/StakingContract.sol\":4965:4978  stakerAddress */\n      0x03\n        /* \"nft-staking-app/StakingContract.sol\":4965:4988  stakerAddress[_tokenId] */\n      0x00\n        /* \"nft-staking-app/StakingContract.sol\":4979:4987  _tokenId */\n      dup6\n        /* \"nft-staking-app/StakingContract.sol\":4965:4988  stakerAddress[_tokenId] */\n      dup2\n      mstore\n      0x20\n      add\n      swap1\n      dup2\n      mstore\n      0x20\n      add\n      0x00\n      keccak256\n      0x00\n        /* \"nft-staking-app/StakingContract.sol\":4965:5001  stakerAddress[_tokenId] = address(0) */\n      0x0100\n      exp\n      dup2\n      sload\n      dup2\n      0xffffffffffffffffffffffffffffffffffffffff\n      mul\n      not\n      and\n      swap1\n      dup4\n      0xffffffffffffffffffffffffffffffffffffffff\n      and\n      mul\n      or\n      swap1\n      sstore\n      pop\n        /* \"nft-staking-app/StakingContract.sol\":5068:5081  nftCollection */\n      immutable(\"0x538742f01864684e7bc02c5833d23bcc80c6c36906ebb070efda83aa556ded94\")\n        /* \"nft-staking-app/StakingContract.sol\":5068:5094  nftCollection.transferFrom */\n      0xffffffffffffffffffffffffffffffffffffffff\n      and\n      0x23b872dd\n        /* \"nft-staking-app/StakingContract.sol\":5103:5107  this */\n      address\n        /* \"nft-staking-app/StakingContract.sol\":5110:5120  msg.sender */\n      caller\n        /* \"nft-staking-app/StakingContract.sol\":5122:5130  _tokenId */\n      dup7\n        /* \"nft-staking-app/StakingContract.sol\":5068:5131  nftCollection.transferFrom(address(this), msg.sender, _tokenId) */\n      mload(0x40)\n      dup5\n      0xffffffff\n      and\n      0xe0\n      shl\n      dup2\n      mstore\n      0x04\n      add\n      tag_82\n      swap4\n      swap3\n      swap2\n      swap1\n      tag_83\n      jump\t// in\n    tag_82:\n      0x00\n      mload(0x40)\n      dup1\n      dup4\n      sub\n      dup2\n      0x00\n      dup8\n      dup1\n      extcodesize\n      iszero\n      dup1\n      iszero\n      tag_84\n      jumpi\n      0x00\n      dup1\n      revert\n    tag_84:\n      pop\n      gas\n      call\n      iszero\n      dup1\n      iszero\n      tag_86\n      jumpi\n      returndatasize\n      0x00\n      dup1\n      returndatacopy\n      revert(0x00, returndatasize)\n    tag_86:\n      pop\n      pop\n      pop\n      pop\n        /* \"nft-staking-app/StakingContract.sol\":5245:5260  block.timestamp */\n      timestamp\n        /* \"nft-staking-app/StakingContract.sol\":5206:5213  stakers */\n      0x02\n        /* \"nft-staking-app/StakingContract.sol\":5206:5225  stakers[msg.sender] */\n      0x00\n        /* \"nft-staking-app/StakingContract.sol\":5214:5224  msg.sender */\n      caller\n        /* \"nft-staking-app/StakingContract.sol\":5206:5225  stakers[msg.sender] */\n      0xffffffffffffffffffffffffffffffffffffffff\n      and\n      0xffffffffffffffffffffffffffffffffffffffff\n      and\n      dup2\n      mstore\n      0x20\n      add\n      swap1\n      dup2\n      mstore\n      0x20\n      add\n      0x00\n      keccak256\n        /* \"nft-staking-app/StakingContract.sol\":5206:5242  stakers[msg.sender].timeOfLastUpdate */\n      0x02\n      add\n        /* \"nft-staking-app/StakingContract.sol\":5206:5260  stakers[msg.sender].timeOfLastUpdate = block.timestamp */\n      dup2\n      swap1\n      sstore\n      pop\n        /* \"nft-staking-app/StakingContract.sol\":3536:5268  {... */\n      pop\n      pop\n        /* \"@openzeppelin/contracts/security/ReentrancyGuard.sol\":2303:2323  _nonReentrantAfter() */\n      tag_87\n        /* \"@openzeppelin/contracts/security/ReentrancyGuard.sol\":2303:2321  _nonReentrantAfter */\n      tag_88\n        /* \"@openzeppelin/contracts/security/ReentrancyGuard.sol\":2303:2323  _nonReentrantAfter() */\n      jump\t// in\n    tag_87:\n        /* \"nft-staking-app/StakingContract.sol\":3478:5268  function withdraw(uint256 _tokenId) external nonReentrant {... */\n      pop\n      jump\t// out\n        /* \"nft-staking-app/StakingContract.sol\":5451:5837  function claimRewards() external {... */\n    tag_18:\n        /* \"nft-staking-app/StakingContract.sol\":5495:5510  uint256 rewards */\n      0x00\n        /* \"nft-staking-app/StakingContract.sol\":5557:5564  stakers */\n      0x02\n        /* \"nft-staking-app/StakingContract.sol\":5557:5576  stakers[msg.sender] */\n      0x00\n        /* \"nft-staking-app/StakingContract.sol\":5565:5575  msg.sender */\n      caller\n        /* \"nft-staking-app/StakingContract.sol\":5557:5576  stakers[msg.sender] */\n      0xffffffffffffffffffffffffffffffffffffffff\n      and\n      0xffffffffffffffffffffffffffffffffffffffff\n      and\n      dup2\n      mstore\n      0x20\n      add\n      swap1\n      dup2\n      mstore\n      0x20\n      add\n      0x00\n      keccak256\n        /* \"nft-staking-app/StakingContract.sol\":5557:5593  stakers[msg.sender].unclaimedRewards */\n      0x03\n      add\n      sload\n        /* \"nft-staking-app/StakingContract.sol\":5513:5541  calculateRewards(msg.sender) */\n      tag_90\n        /* \"nft-staking-app/StakingContract.sol\":5530:5540  msg.sender */\n      caller\n        /* \"nft-staking-app/StakingContract.sol\":5513:5529  calculateRewards */\n      tag_62\n        /* \"nft-staking-app/StakingContract.sol\":5513:5541  calculateRewards(msg.sender) */\n      jump\t// in\n    tag_90:\n        /* \"nft-staking-app/StakingContract.sol\":5513:5593  calculateRewards(msg.sender) +... */\n      tag_91\n      swap2\n      swap1\n      tag_64\n      jump\t// in\n    tag_91:\n        /* \"nft-staking-app/StakingContract.sol\":5495:5593  uint256 rewards = calculateRewards(msg.sender) +... */\n      swap1\n      pop\n        /* \"nft-staking-app/StakingContract.sol\":5622:5623  0 */\n      0x00\n        /* \"nft-staking-app/StakingContract.sol\":5612:5619  rewards */\n      dup2\n        /* \"nft-staking-app/StakingContract.sol\":5612:5623  rewards > 0 */\n      gt\n        /* \"nft-staking-app/StakingContract.sol\":5604:5656  require(rewards > 0, \"You have no rewards to claim\") */\n      tag_92\n      jumpi\n      mload(0x40)\n      0x08c379a000000000000000000000000000000000000000000000000000000000\n      dup2\n      mstore\n      0x04\n      add\n      tag_93\n      swap1\n      tag_94\n      jump\t// in\n    tag_93:\n      mload(0x40)\n      dup1\n      swap2\n      sub\n      swap1\n      revert\n    tag_92:\n        /* \"nft-staking-app/StakingContract.sol\":5706:5721  block.timestamp */\n      timestamp\n        /* \"nft-staking-app/StakingContract.sol\":5667:5674  stakers */\n      0x02\n        /* \"nft-staking-app/StakingContract.sol\":5667:5686  stakers[msg.sender] */\n      0x00\n        /* \"nft-staking-app/StakingContract.sol\":5675:5685  msg.sender */\n      caller\n        /* \"nft-staking-app/StakingContract.sol\":5667:5686  stakers[msg.sender] */\n      0xffffffffffffffffffffffffffffffffffffffff\n      and\n      0xffffffffffffffffffffffffffffffffffffffff\n      and\n      dup2\n      mstore\n      0x20\n      add\n      swap1\n      dup2\n      mstore\n      0x20\n      add\n      0x00\n      keccak256\n        /* \"nft-staking-app/StakingContract.sol\":5667:5703  stakers[msg.sender].timeOfLastUpdate */\n      0x02\n      add\n        /* \"nft-staking-app/StakingContract.sol\":5667:5721  stakers[msg.sender].timeOfLastUpdate = block.timestamp */\n      dup2\n      swap1\n      sstore\n      pop\n        /* \"nft-staking-app/StakingContract.sol\":5771:5772  0 */\n      0x00\n        /* \"nft-staking-app/StakingContract.sol\":5732:5739  stakers */\n      0x02\n        /* \"nft-staking-app/StakingContract.sol\":5732:5751  stakers[msg.sender] */\n      0x00\n        /* \"nft-staking-app/StakingContract.sol\":5740:5750  msg.sender */\n      caller\n        /* \"nft-staking-app/StakingContract.sol\":5732:5751  stakers[msg.sender] */\n      0xffffffffffffffffffffffffffffffffffffffff\n      and\n      0xffffffffffffffffffffffffffffffffffffffff\n      and\n      dup2\n      mstore\n      0x20\n      add\n      swap1\n      dup2\n      mstore\n      0x20\n      add\n      0x00\n      keccak256\n        /* \"nft-staking-app/StakingContract.sol\":5732:5768  stakers[msg.sender].unclaimedRewards */\n      0x03\n      add\n        /* \"nft-staking-app/StakingContract.sol\":5732:5772  stakers[msg.sender].unclaimedRewards = 0 */\n      dup2\n      swap1\n      sstore\n      pop\n        /* \"nft-staking-app/StakingContract.sol\":5783:5829  rewardsToken.safeTransfer(msg.sender, rewards) */\n      tag_95\n        /* \"nft-staking-app/StakingContract.sol\":5809:5819  msg.sender */\n      caller\n        /* \"nft-staking-app/StakingContract.sol\":5821:5828  rewards */\n      dup3\n        /* \"nft-staking-app/StakingContract.sol\":5783:5795  rewardsToken */\n      immutable(\"0xc6ff54af72699a419b2bb7b4c5a42be0e7bfb5f0cdab490188e69fdfef447f66\")\n        /* \"nft-staking-app/StakingContract.sol\":5783:5808  rewardsToken.safeTransfer */\n      0xffffffffffffffffffffffffffffffffffffffff\n      and\n      tag_96\n      swap1\n        /* \"nft-staking-app/StakingContract.sol\":5783:5829  rewardsToken.safeTransfer(msg.sender, rewards) */\n      swap3\n      swap2\n      swap1\n      0xffffffff\n      and\n      jump\t// in\n    tag_95:\n        /* \"nft-staking-app/StakingContract.sol\":5484:5837  {... */\n      pop\n        /* \"nft-staking-app/StakingContract.sol\":5451:5837  function claimRewards() external {... */\n      jump\t// out\n        /* \"nft-staking-app/StakingContract.sol\":6114:6987  function getStakedTokens(address _user) public view returns (StakedToken[] memory) {... */\n    tag_22:\n        /* \"nft-staking-app/StakingContract.sol\":6175:6195  StakedToken[] memory */\n      0x60\n        /* \"nft-staking-app/StakingContract.sol\":6281:6282  0 */\n      0x00\n        /* \"nft-staking-app/StakingContract.sol\":6251:6258  stakers */\n      0x02\n        /* \"nft-staking-app/StakingContract.sol\":6251:6265  stakers[_user] */\n      0x00\n        /* \"nft-staking-app/StakingContract.sol\":6259:6264  _user */\n      dup5\n        /* \"nft-staking-app/StakingContract.sol\":6251:6265  stakers[_user] */\n      0xffffffffffffffffffffffffffffffffffffffff\n      and\n      0xffffffffffffffffffffffffffffffffffffffff\n      and\n      dup2\n      mstore\n      0x20\n      add\n      swap1\n      dup2\n      mstore\n      0x20\n      add\n      0x00\n      keccak256\n        /* \"nft-staking-app/StakingContract.sol\":6251:6278  stakers[_user].amountStaked */\n      0x00\n      add\n      sload\n        /* \"nft-staking-app/StakingContract.sol\":6251:6282  stakers[_user].amountStaked > 0 */\n      gt\n        /* \"nft-staking-app/StakingContract.sol\":6247:6980  if (stakers[_user].amountStaked > 0) {... */\n      iszero\n      tag_98\n      jumpi\n        /* \"nft-staking-app/StakingContract.sol\":6392:6426  StakedToken[] memory _stakedTokens */\n      0x00\n        /* \"nft-staking-app/StakingContract.sol\":6447:6454  stakers */\n      0x02\n        /* \"nft-staking-app/StakingContract.sol\":6447:6461  stakers[_user] */\n      0x00\n        /* \"nft-staking-app/StakingContract.sol\":6455:6460  _user */\n      dup5\n        /* \"nft-staking-app/StakingContract.sol\":6447:6461  stakers[_user] */\n      0xffffffffffffffffffffffffffffffffffffffff\n      and\n      0xffffffffffffffffffffffffffffffffffffffff\n      and\n      dup2\n      mstore\n      0x20\n      add\n      swap1\n      dup2\n      mstore\n      0x20\n      add\n      0x00\n      keccak256\n        /* \"nft-staking-app/StakingContract.sol\":6447:6474  stakers[_user].amountStaked */\n      0x00\n      add\n      sload\n        /* \"nft-staking-app/StakingContract.sol\":6429:6475  new StakedToken[](stakers[_user].amountStaked) */\n      0xffffffffffffffff\n      dup2\n      gt\n      iszero\n      tag_99\n      jumpi\n      tag_100\n      tag_101\n      jump\t// in\n    tag_100:\n    tag_99:\n      mload(0x40)\n      swap1\n      dup1\n      dup3\n      mstore\n      dup1\n      0x20\n      mul\n      0x20\n      add\n      dup3\n      add\n      0x40\n      mstore\n      dup1\n      iszero\n      tag_102\n      jumpi\n      dup2\n      0x20\n      add\n    tag_103:\n      tag_104\n      tag_105\n      jump\t// in\n    tag_104:\n      dup2\n      mstore\n      0x20\n      add\n      swap1\n      0x01\n      swap1\n      sub\n      swap1\n      dup2\n      tag_103\n      jumpi\n      swap1\n      pop\n    tag_102:\n      pop\n        /* \"nft-staking-app/StakingContract.sol\":6392:6475  StakedToken[] memory _stakedTokens = new StakedToken[](stakers[_user].amountStaked) */\n      swap1\n      pop\n        /* \"nft-staking-app/StakingContract.sol\":6490:6504  uint256 _index */\n      0x00\n        /* \"nft-staking-app/StakingContract.sol\":6530:6539  uint256 j */\n      dup1\n        /* \"nft-staking-app/StakingContract.sol\":6525:6811  for (uint256 j = 0; j < stakers[_user].stakedTokens.length; j++) {... */\n    tag_106:\n        /* \"nft-staking-app/StakingContract.sol\":6549:6556  stakers */\n      0x02\n        /* \"nft-staking-app/StakingContract.sol\":6549:6563  stakers[_user] */\n      0x00\n        /* \"nft-staking-app/StakingContract.sol\":6557:6562  _user */\n      dup7\n        /* \"nft-staking-app/StakingContract.sol\":6549:6563  stakers[_user] */\n      0xffffffffffffffffffffffffffffffffffffffff\n      and\n      0xffffffffffffffffffffffffffffffffffffffff\n      and\n      dup2\n      mstore\n      0x20\n      add\n      swap1\n      dup2\n      mstore\n      0x20\n      add\n      0x00\n      keccak256\n        /* \"nft-staking-app/StakingContract.sol\":6549:6576  stakers[_user].stakedTokens */\n      0x01\n      add\n        /* \"nft-staking-app/StakingContract.sol\":6549:6583  stakers[_user].stakedTokens.length */\n      dup1\n      sload\n      swap1\n      pop\n        /* \"nft-staking-app/StakingContract.sol\":6545:6546  j */\n      dup2\n        /* \"nft-staking-app/StakingContract.sol\":6545:6583  j < stakers[_user].stakedTokens.length */\n      lt\n        /* \"nft-staking-app/StakingContract.sol\":6525:6811  for (uint256 j = 0; j < stakers[_user].stakedTokens.length; j++) {... */\n      iszero\n      tag_107\n      jumpi\n        /* \"nft-staking-app/StakingContract.sol\":6663:6664  0 */\n      0x00\n        /* \"nft-staking-app/StakingContract.sol\":6613:6666  stakers[_user].stakedTokens[j].staker != (address(0)) */\n      0xffffffffffffffffffffffffffffffffffffffff\n      and\n        /* \"nft-staking-app/StakingContract.sol\":6613:6620  stakers */\n      0x02\n        /* \"nft-staking-app/StakingContract.sol\":6613:6627  stakers[_user] */\n      0x00\n        /* \"nft-staking-app/StakingContract.sol\":6621:6626  _user */\n      dup8\n        /* \"nft-staking-app/StakingContract.sol\":6613:6627  stakers[_user] */\n      0xffffffffffffffffffffffffffffffffffffffff\n      and\n      0xffffffffffffffffffffffffffffffffffffffff\n      and\n      dup2\n      mstore\n      0x20\n      add\n      swap1\n      dup2\n      mstore\n      0x20\n      add\n      0x00\n      keccak256\n        /* \"nft-staking-app/StakingContract.sol\":6613:6640  stakers[_user].stakedTokens */\n      0x01\n      add\n        /* \"nft-staking-app/StakingContract.sol\":6641:6642  j */\n      dup3\n        /* \"nft-staking-app/StakingContract.sol\":6613:6643  stakers[_user].stakedTokens[j] */\n      dup2\n      sload\n      dup2\n      lt\n      tag_109\n      jumpi\n      tag_110\n      tag_70\n      jump\t// in\n    tag_110:\n    tag_109:\n      swap1\n      0x00\n      mstore\n      keccak256(0x00, 0x20)\n      swap1\n      0x02\n      mul\n      add\n        /* \"nft-staking-app/StakingContract.sol\":6613:6650  stakers[_user].stakedTokens[j].staker */\n      0x00\n      add\n      0x00\n      swap1\n      sload\n      swap1\n      0x0100\n      exp\n      swap1\n      div\n      0xffffffffffffffffffffffffffffffffffffffff\n      and\n        /* \"nft-staking-app/StakingContract.sol\":6613:6666  stakers[_user].stakedTokens[j].staker != (address(0)) */\n      0xffffffffffffffffffffffffffffffffffffffff\n      and\n      eq\n        /* \"nft-staking-app/StakingContract.sol\":6609:6796  if (stakers[_user].stakedTokens[j].staker != (address(0))) {... */\n      tag_112\n      jumpi\n        /* \"nft-staking-app/StakingContract.sol\":6715:6722  stakers */\n      0x02\n        /* \"nft-staking-app/StakingContract.sol\":6715:6729  stakers[_user] */\n      0x00\n        /* \"nft-staking-app/StakingContract.sol\":6723:6728  _user */\n      dup7\n        /* \"nft-staking-app/StakingContract.sol\":6715:6729  stakers[_user] */\n      0xffffffffffffffffffffffffffffffffffffffff\n      and\n      0xffffffffffffffffffffffffffffffffffffffff\n      and\n      dup2\n      mstore\n      0x20\n      add\n      swap1\n      dup2\n      mstore\n      0x20\n      add\n      0x00\n      keccak256\n        /* \"nft-staking-app/StakingContract.sol\":6715:6742  stakers[_user].stakedTokens */\n      0x01\n      add\n        /* \"nft-staking-app/StakingContract.sol\":6743:6744  j */\n      dup2\n        /* \"nft-staking-app/StakingContract.sol\":6715:6745  stakers[_user].stakedTokens[j] */\n      dup2\n      sload\n      dup2\n      lt\n      tag_113\n      jumpi\n      tag_114\n      tag_70\n      jump\t// in\n    tag_114:\n    tag_113:\n      swap1\n      0x00\n      mstore\n      keccak256(0x00, 0x20)\n      swap1\n      0x02\n      mul\n      add\n        /* \"nft-staking-app/StakingContract.sol\":6691:6745  _stakedTokens[_index] = stakers[_user].stakedTokens[j] */\n      mload(0x40)\n      dup1\n      0x40\n      add\n      0x40\n      mstore\n      swap1\n      dup2\n      0x00\n      dup3\n      add\n      0x00\n      swap1\n      sload\n      swap1\n      0x0100\n      exp\n      swap1\n      div\n      0xffffffffffffffffffffffffffffffffffffffff\n      and\n      0xffffffffffffffffffffffffffffffffffffffff\n      and\n      0xffffffffffffffffffffffffffffffffffffffff\n      and\n      dup2\n      mstore\n      0x20\n      add\n      0x01\n      dup3\n      add\n      sload\n      dup2\n      mstore\n      pop\n      pop\n        /* \"nft-staking-app/StakingContract.sol\":6691:6704  _stakedTokens */\n      dup4\n        /* \"nft-staking-app/StakingContract.sol\":6705:6711  _index */\n      dup4\n        /* \"nft-staking-app/StakingContract.sol\":6691:6712  _stakedTokens[_index] */\n      dup2\n      mload\n      dup2\n      lt\n      tag_116\n      jumpi\n      tag_117\n      tag_70\n      jump\t// in\n    tag_117:\n    tag_116:\n      0x20\n      mul\n      0x20\n      add\n      add\n        /* \"nft-staking-app/StakingContract.sol\":6691:6745  _stakedTokens[_index] = stakers[_user].stakedTokens[j] */\n      dup2\n      swap1\n      mstore\n      pop\n        /* \"nft-staking-app/StakingContract.sol\":6768:6776  _index++ */\n      dup2\n      dup1\n      tag_118\n      swap1\n      tag_119\n      jump\t// in\n    tag_118:\n      swap3\n      pop\n      pop\n        /* \"nft-staking-app/StakingContract.sol\":6609:6796  if (stakers[_user].stakedTokens[j].staker != (address(0))) {... */\n    tag_112:\n        /* \"nft-staking-app/StakingContract.sol\":6585:6588  j++ */\n      dup1\n      dup1\n      0x01\n      add\n      swap2\n      pop\n      pop\n        /* \"nft-staking-app/StakingContract.sol\":6525:6811  for (uint256 j = 0; j < stakers[_user].stakedTokens.length; j++) {... */\n      jump(tag_106)\n    tag_107:\n      pop\n        /* \"nft-staking-app/StakingContract.sol\":6834:6847  _stakedTokens */\n      dup2\n        /* \"nft-staking-app/StakingContract.sol\":6827:6847  return _stakedTokens */\n      swap3\n      pop\n      pop\n      pop\n      jump(tag_97)\n        /* \"nft-staking-app/StakingContract.sol\":6247:6980  if (stakers[_user].amountStaked > 0) {... */\n    tag_98:\n        /* \"nft-staking-app/StakingContract.sol\":6966:6967  0 */\n      0x00\n        /* \"nft-staking-app/StakingContract.sol\":6948:6968  new StakedToken[](0) */\n      0xffffffffffffffff\n      dup2\n      gt\n      iszero\n      tag_121\n      jumpi\n      tag_122\n      tag_101\n      jump\t// in\n    tag_122:\n    tag_121:\n      mload(0x40)\n      swap1\n      dup1\n      dup3\n      mstore\n      dup1\n      0x20\n      mul\n      0x20\n      add\n      dup3\n      add\n      0x40\n      mstore\n      dup1\n      iszero\n      tag_123\n      jumpi\n      dup2\n      0x20\n      add\n    tag_124:\n      tag_125\n      tag_105\n      jump\t// in\n    tag_125:\n      dup2\n      mstore\n      0x20\n      add\n      swap1\n      0x01\n      swap1\n      sub\n      swap1\n      dup2\n      tag_124\n      jumpi\n      swap1\n      pop\n    tag_123:\n      pop\n        /* \"nft-staking-app/StakingContract.sol\":6941:6968  return new StakedToken[](0) */\n      swap1\n      pop\n        /* \"nft-staking-app/StakingContract.sol\":6114:6987  function getStakedTokens(address _user) public view returns (StakedToken[] memory) {... */\n    tag_97:\n      swap2\n      swap1\n      pop\n      jump\t// out\n        /* \"nft-staking-app/StakingContract.sol\":477:515  IERC721 public immutable nftCollection */\n    tag_26:\n      immutable(\"0x538742f01864684e7bc02c5833d23bcc80c6c36906ebb070efda83aa556ded94\")\n      dup2\n      jump\t// out\n        /* \"nft-staking-app/StakingContract.sol\":1487:1528  mapping(address => Staker) public stakers */\n    tag_31:\n      mstore(0x20, 0x02)\n      dup1\n      0x00\n      mstore\n      keccak256(0x00, 0x40)\n      0x00\n      swap2\n      pop\n      swap1\n      pop\n      dup1\n      0x00\n      add\n      sload\n      swap1\n      dup1\n      0x02\n      add\n      sload\n      swap1\n      dup1\n      0x03\n      add\n      sload\n      swap1\n      pop\n      dup4\n      jump\t// out\n        /* \"nft-staking-app/StakingContract.sol\":1649:1697  mapping(uint256 => address) public stakerAddress */\n    tag_36:\n      mstore(0x20, 0x03)\n      dup1\n      0x00\n      mstore\n      keccak256(0x00, 0x40)\n      0x00\n      swap2\n      pop\n      sload\n      swap1\n      0x0100\n      exp\n      swap1\n      div\n      0xffffffffffffffffffffffffffffffffffffffff\n      and\n      dup2\n      jump\t// out\n        /* \"nft-staking-app/StakingContract.sol\":1971:3225  function stake(uint256 _tokenId) external nonReentrant {... */\n    tag_41:\n        /* \"@openzeppelin/contracts/security/ReentrancyGuard.sol\":2261:2282  _nonReentrantBefore() */\n      tag_127\n        /* \"@openzeppelin/contracts/security/ReentrancyGuard.sol\":2261:2280  _nonReentrantBefore */\n      tag_53\n        /* \"@openzeppelin/contracts/security/ReentrancyGuard.sol\":2261:2282  _nonReentrantBefore() */\n      jump\t// in\n    tag_127:\n        /* \"nft-staking-app/StakingContract.sol\":2167:2168  0 */\n      0x00\n        /* \"nft-staking-app/StakingContract.sol\":2132:2139  stakers */\n      0x02\n        /* \"nft-staking-app/StakingContract.sol\":2132:2151  stakers[msg.sender] */\n      0x00\n        /* \"nft-staking-app/StakingContract.sol\":2140:2150  msg.sender */\n      caller\n        /* \"nft-staking-app/StakingContract.sol\":2132:2151  stakers[msg.sender] */\n      0xffffffffffffffffffffffffffffffffffffffff\n      and\n      0xffffffffffffffffffffffffffffffffffffffff\n      and\n      dup2\n      mstore\n      0x20\n      add\n      swap1\n      dup2\n      mstore\n      0x20\n      add\n      0x00\n      keccak256\n        /* \"nft-staking-app/StakingContract.sol\":2132:2164  stakers[msg.sender].amountStaked */\n      0x00\n      add\n      sload\n        /* \"nft-staking-app/StakingContract.sol\":2132:2168  stakers[msg.sender].amountStaked > 0 */\n      gt\n        /* \"nft-staking-app/StakingContract.sol\":2128:2305  if (stakers[msg.sender].amountStaked > 0) {... */\n      iszero\n      tag_129\n      jumpi\n        /* \"nft-staking-app/StakingContract.sol\":2185:2200  uint256 rewards */\n      0x00\n        /* \"nft-staking-app/StakingContract.sol\":2203:2231  calculateRewards(msg.sender) */\n      tag_130\n        /* \"nft-staking-app/StakingContract.sol\":2220:2230  msg.sender */\n      caller\n        /* \"nft-staking-app/StakingContract.sol\":2203:2219  calculateRewards */\n      tag_62\n        /* \"nft-staking-app/StakingContract.sol\":2203:2231  calculateRewards(msg.sender) */\n      jump\t// in\n    tag_130:\n        /* \"nft-staking-app/StakingContract.sol\":2185:2231  uint256 rewards = calculateRewards(msg.sender) */\n      swap1\n      pop\n        /* \"nft-staking-app/StakingContract.sol\":2286:2293  rewards */\n      dup1\n        /* \"nft-staking-app/StakingContract.sol\":2246:2253  stakers */\n      0x02\n        /* \"nft-staking-app/StakingContract.sol\":2246:2265  stakers[msg.sender] */\n      0x00\n        /* \"nft-staking-app/StakingContract.sol\":2254:2264  msg.sender */\n      caller\n        /* \"nft-staking-app/StakingContract.sol\":2246:2265  stakers[msg.sender] */\n      0xffffffffffffffffffffffffffffffffffffffff\n      and\n      0xffffffffffffffffffffffffffffffffffffffff\n      and\n      dup2\n      mstore\n      0x20\n      add\n      swap1\n      dup2\n      mstore\n      0x20\n      add\n      0x00\n      keccak256\n        /* \"nft-staking-app/StakingContract.sol\":2246:2282  stakers[msg.sender].unclaimedRewards */\n      0x03\n      add\n      0x00\n        /* \"nft-staking-app/StakingContract.sol\":2246:2293  stakers[msg.sender].unclaimedRewards += rewards */\n      dup3\n      dup3\n      sload\n      tag_131\n      swap2\n      swap1\n      tag_64\n      jump\t// in\n    tag_131:\n      swap3\n      pop\n      pop\n      dup2\n      swap1\n      sstore\n      pop\n        /* \"nft-staking-app/StakingContract.sol\":2170:2305  {... */\n      pop\n        /* \"nft-staking-app/StakingContract.sol\":2128:2305  if (stakers[msg.sender].amountStaked > 0) {... */\n    tag_129:\n        /* \"nft-staking-app/StakingContract.sol\":2437:2447  msg.sender */\n      caller\n        /* \"nft-staking-app/StakingContract.sol\":2402:2447  nftCollection.ownerOf(_tokenId) == msg.sender */\n      0xffffffffffffffffffffffffffffffffffffffff\n      and\n        /* \"nft-staking-app/StakingContract.sol\":2402:2415  nftCollection */\n      immutable(\"0x538742f01864684e7bc02c5833d23bcc80c6c36906ebb070efda83aa556ded94\")\n        /* \"nft-staking-app/StakingContract.sol\":2402:2423  nftCollection.ownerOf */\n      0xffffffffffffffffffffffffffffffffffffffff\n      and\n      0x6352211e\n        /* \"nft-staking-app/StakingContract.sol\":2424:2432  _tokenId */\n      dup4\n        /* \"nft-staking-app/StakingContract.sol\":2402:2433  nftCollection.ownerOf(_tokenId) */\n      mload(0x40)\n      dup3\n      0xffffffff\n      and\n      0xe0\n      shl\n      dup2\n      mstore\n      0x04\n      add\n      tag_132\n      swap2\n      swap1\n      tag_50\n      jump\t// in\n    tag_132:\n      0x20\n      mload(0x40)\n      dup1\n      dup4\n      sub\n      dup2\n      dup7\n      gas\n      staticcall\n      iszero\n      dup1\n      iszero\n      tag_134\n      jumpi\n      returndatasize\n      0x00\n      dup1\n      returndatacopy\n      revert(0x00, returndatasize)\n    tag_134:\n      pop\n      pop\n      pop\n      pop\n      mload(0x40)\n      returndatasize\n      not(0x1f)\n      0x1f\n      dup3\n      add\n      and\n      dup3\n      add\n      dup1\n      0x40\n      mstore\n      pop\n      dup2\n      add\n      swap1\n      tag_135\n      swap2\n      swap1\n      tag_136\n      jump\t// in\n    tag_135:\n        /* \"nft-staking-app/StakingContract.sol\":2402:2447  nftCollection.ownerOf(_tokenId) == msg.sender */\n      0xffffffffffffffffffffffffffffffffffffffff\n      and\n      eq\n        /* \"nft-staking-app/StakingContract.sol\":2380:2500  require(... */\n      tag_137\n      jumpi\n      mload(0x40)\n      0x08c379a000000000000000000000000000000000000000000000000000000000\n      dup2\n      mstore\n      0x04\n      add\n      tag_138\n      swap1\n      tag_60\n      jump\t// in\n    tag_138:\n      mload(0x40)\n      dup1\n      swap2\n      sub\n      swap1\n      revert\n    tag_137:\n        /* \"nft-staking-app/StakingContract.sol\":2582:2595  nftCollection */\n      immutable(\"0x538742f01864684e7bc02c5833d23bcc80c6c36906ebb070efda83aa556ded94\")\n        /* \"nft-staking-app/StakingContract.sol\":2582:2608  nftCollection.transferFrom */\n      0xffffffffffffffffffffffffffffffffffffffff\n      and\n      0x23b872dd\n        /* \"nft-staking-app/StakingContract.sol\":2609:2619  msg.sender */\n      caller\n        /* \"nft-staking-app/StakingContract.sol\":2629:2633  this */\n      address\n        /* \"nft-staking-app/StakingContract.sol\":2636:2644  _tokenId */\n      dup5\n        /* \"nft-staking-app/StakingContract.sol\":2582:2645  nftCollection.transferFrom(msg.sender, address(this), _tokenId) */\n      mload(0x40)\n      dup5\n      0xffffffff\n      and\n      0xe0\n      shl\n      dup2\n      mstore\n      0x04\n      add\n      tag_139\n      swap4\n      swap3\n      swap2\n      swap1\n      tag_83\n      jump\t// in\n    tag_139:\n      0x00\n      mload(0x40)\n      dup1\n      dup4\n      sub\n      dup2\n      0x00\n      dup8\n      dup1\n      extcodesize\n      iszero\n      dup1\n      iszero\n      tag_140\n      jumpi\n      0x00\n      dup1\n      revert\n    tag_140:\n      pop\n      gas\n      call\n      iszero\n      dup1\n      iszero\n      tag_142\n      jumpi\n      returndatasize\n      0x00\n      dup1\n      returndatacopy\n      revert(0x00, returndatasize)\n    tag_142:\n      pop\n      pop\n      pop\n      pop\n        /* \"nft-staking-app/StakingContract.sol\":2689:2719  StakedToken memory stakedToken */\n      0x00\n        /* \"nft-staking-app/StakingContract.sol\":2722:2755  StakedToken(msg.sender, _tokenId) */\n      mload(0x40)\n      dup1\n      0x40\n      add\n      0x40\n      mstore\n      dup1\n        /* \"nft-staking-app/StakingContract.sol\":2734:2744  msg.sender */\n      caller\n        /* \"nft-staking-app/StakingContract.sol\":2722:2755  StakedToken(msg.sender, _tokenId) */\n      0xffffffffffffffffffffffffffffffffffffffff\n      and\n      dup2\n      mstore\n      0x20\n      add\n        /* \"nft-staking-app/StakingContract.sol\":2746:2754  _tokenId */\n      dup4\n        /* \"nft-staking-app/StakingContract.sol\":2722:2755  StakedToken(msg.sender, _tokenId) */\n      dup2\n      mstore\n      pop\n        /* \"nft-staking-app/StakingContract.sol\":2689:2755  StakedToken memory stakedToken = StakedToken(msg.sender, _tokenId) */\n      swap1\n      pop\n        /* \"nft-staking-app/StakingContract.sol\":2820:2827  stakers */\n      0x02\n        /* \"nft-staking-app/StakingContract.sol\":2820:2839  stakers[msg.sender] */\n      0x00\n        /* \"nft-staking-app/StakingContract.sol\":2828:2838  msg.sender */\n      caller\n        /* \"nft-staking-app/StakingContract.sol\":2820:2839  stakers[msg.sender] */\n      0xffffffffffffffffffffffffffffffffffffffff\n      and\n      0xffffffffffffffffffffffffffffffffffffffff\n      and\n      dup2\n      mstore\n      0x20\n      add\n      swap1\n      dup2\n      mstore\n      0x20\n      add\n      0x00\n      keccak256\n        /* \"nft-staking-app/StakingContract.sol\":2820:2852  stakers[msg.sender].stakedTokens */\n      0x01\n      add\n        /* \"nft-staking-app/StakingContract.sol\":2858:2869  stakedToken */\n      dup2\n        /* \"nft-staking-app/StakingContract.sol\":2820:2870  stakers[msg.sender].stakedTokens.push(stakedToken) */\n      swap1\n      dup1\n      0x01\n      dup2\n      sload\n      add\n      dup1\n      dup3\n      sstore\n      dup1\n      swap2\n      pop\n      pop\n      0x01\n      swap1\n      sub\n      swap1\n      0x00\n      mstore\n      keccak256(0x00, 0x20)\n      swap1\n      0x02\n      mul\n      add\n      0x00\n      swap1\n      swap2\n      swap1\n      swap2\n      swap1\n      swap2\n      pop\n      0x00\n      dup3\n      add\n      mload\n      dup2\n      0x00\n      add\n      exp(0x0100, 0x00)\n      dup2\n      sload\n      dup2\n      0xffffffffffffffffffffffffffffffffffffffff\n      mul\n      not\n      and\n      swap1\n      dup4\n      0xffffffffffffffffffffffffffffffffffffffff\n      and\n      mul\n      or\n      swap1\n      sstore\n      pop\n      0x20\n      dup3\n      add\n      mload\n      dup2\n      0x01\n      add\n      sstore\n      pop\n      pop\n        /* \"nft-staking-app/StakingContract.sol\":2939:2946  stakers */\n      0x02\n        /* \"nft-staking-app/StakingContract.sol\":2939:2958  stakers[msg.sender] */\n      0x00\n        /* \"nft-staking-app/StakingContract.sol\":2947:2957  msg.sender */\n      caller\n        /* \"nft-staking-app/StakingContract.sol\":2939:2958  stakers[msg.sender] */\n      0xffffffffffffffffffffffffffffffffffffffff\n      and\n      0xffffffffffffffffffffffffffffffffffffffff\n      and\n      dup2\n      mstore\n      0x20\n      add\n      swap1\n      dup2\n      mstore\n      0x20\n      add\n      0x00\n      keccak256\n        /* \"nft-staking-app/StakingContract.sol\":2939:2971  stakers[msg.sender].amountStaked */\n      0x00\n      add\n      0x00\n        /* \"nft-staking-app/StakingContract.sol\":2939:2973  stakers[msg.sender].amountStaked++ */\n      dup2\n      sload\n      dup1\n      swap3\n      swap2\n      swap1\n      tag_144\n      swap1\n      tag_119\n      jump\t// in\n    tag_144:\n      swap2\n      swap1\n      pop\n      sstore\n      pop\n        /* \"nft-staking-app/StakingContract.sol\":3082:3092  msg.sender */\n      caller\n        /* \"nft-staking-app/StakingContract.sol\":3056:3069  stakerAddress */\n      0x03\n        /* \"nft-staking-app/StakingContract.sol\":3056:3079  stakerAddress[_tokenId] */\n      0x00\n        /* \"nft-staking-app/StakingContract.sol\":3070:3078  _tokenId */\n      dup5\n        /* \"nft-staking-app/StakingContract.sol\":3056:3079  stakerAddress[_tokenId] */\n      dup2\n      mstore\n      0x20\n      add\n      swap1\n      dup2\n      mstore\n      0x20\n      add\n      0x00\n      keccak256\n      0x00\n        /* \"nft-staking-app/StakingContract.sol\":3056:3092  stakerAddress[_tokenId] = msg.sender */\n      0x0100\n      exp\n      dup2\n      sload\n      dup2\n      0xffffffffffffffffffffffffffffffffffffffff\n      mul\n      not\n      and\n      swap1\n      dup4\n      0xffffffffffffffffffffffffffffffffffffffff\n      and\n      mul\n      or\n      swap1\n      sstore\n      pop\n        /* \"nft-staking-app/StakingContract.sol\":3202:3217  block.timestamp */\n      timestamp\n        /* \"nft-staking-app/StakingContract.sol\":3163:3170  stakers */\n      0x02\n        /* \"nft-staking-app/StakingContract.sol\":3163:3182  stakers[msg.sender] */\n      0x00\n        /* \"nft-staking-app/StakingContract.sol\":3171:3181  msg.sender */\n      caller\n        /* \"nft-staking-app/StakingContract.sol\":3163:3182  stakers[msg.sender] */\n      0xffffffffffffffffffffffffffffffffffffffff\n      and\n      0xffffffffffffffffffffffffffffffffffffffff\n      and\n      dup2\n      mstore\n      0x20\n      add\n      swap1\n      dup2\n      mstore\n      0x20\n      add\n      0x00\n      keccak256\n        /* \"nft-staking-app/StakingContract.sol\":3163:3199  stakers[msg.sender].timeOfLastUpdate */\n      0x02\n      add\n        /* \"nft-staking-app/StakingContract.sol\":3163:3217  stakers[msg.sender].timeOfLastUpdate = block.timestamp */\n      dup2\n      swap1\n      sstore\n      pop\n        /* \"nft-staking-app/StakingContract.sol\":2026:3225  {... */\n      pop\n        /* \"@openzeppelin/contracts/security/ReentrancyGuard.sol\":2303:2323  _nonReentrantAfter() */\n      tag_145\n        /* \"@openzeppelin/contracts/security/ReentrancyGuard.sol\":2303:2321  _nonReentrantAfter */\n      tag_88\n        /* \"@openzeppelin/contracts/security/ReentrancyGuard.sol\":2303:2323  _nonReentrantAfter() */\n      jump\t// in\n    tag_145:\n        /* \"nft-staking-app/StakingContract.sol\":1971:3225  function stake(uint256 _tokenId) external nonReentrant {... */\n      pop\n      jump\t// out\n        /* \"nft-staking-app/StakingContract.sol\":434:470  IERC20 public immutable rewardsToken */\n    tag_43:\n      immutable(\"0xc6ff54af72699a419b2bb7b4c5a42be0e7bfb5f0cdab490188e69fdfef447f66\")\n      dup2\n      jump\t// out\n        /* \"nft-staking-app/StakingContract.sol\":5897:6106  function availableRewards(address _staker) public view returns (uint256) {... */\n    tag_48:\n        /* \"nft-staking-app/StakingContract.sol\":5961:5968  uint256 */\n      0x00\n        /* \"nft-staking-app/StakingContract.sol\":5981:5996  uint256 rewards */\n      dup1\n        /* \"nft-staking-app/StakingContract.sol\":6040:6047  stakers */\n      0x02\n        /* \"nft-staking-app/StakingContract.sol\":6040:6056  stakers[_staker] */\n      0x00\n        /* \"nft-staking-app/StakingContract.sol\":6048:6055  _staker */\n      dup5\n        /* \"nft-staking-app/StakingContract.sol\":6040:6056  stakers[_staker] */\n      0xffffffffffffffffffffffffffffffffffffffff\n      and\n      0xffffffffffffffffffffffffffffffffffffffff\n      and\n      dup2\n      mstore\n      0x20\n      add\n      swap1\n      dup2\n      mstore\n      0x20\n      add\n      0x00\n      keccak256\n        /* \"nft-staking-app/StakingContract.sol\":6040:6073  stakers[_staker].unclaimedRewards */\n      0x03\n      add\n      sload\n        /* \"nft-staking-app/StakingContract.sol\":5999:6024  calculateRewards(_staker) */\n      tag_147\n        /* \"nft-staking-app/StakingContract.sol\":6016:6023  _staker */\n      dup5\n        /* \"nft-staking-app/StakingContract.sol\":5999:6015  calculateRewards */\n      tag_62\n        /* \"nft-staking-app/StakingContract.sol\":5999:6024  calculateRewards(_staker) */\n      jump\t// in\n    tag_147:\n        /* \"nft-staking-app/StakingContract.sol\":5999:6073  calculateRewards(_staker) +... */\n      tag_148\n      swap2\n      swap1\n      tag_64\n      jump\t// in\n    tag_148:\n        /* \"nft-staking-app/StakingContract.sol\":5981:6073  uint256 rewards = calculateRewards(_staker) +... */\n      swap1\n      pop\n        /* \"nft-staking-app/StakingContract.sol\":6091:6098  rewards */\n      dup1\n        /* \"nft-staking-app/StakingContract.sol\":6084:6098  return rewards */\n      swap2\n      pop\n      pop\n        /* \"nft-staking-app/StakingContract.sol\":5897:6106  function availableRewards(address _staker) public view returns (uint256) {... */\n      swap2\n      swap1\n      pop\n      jump\t// out\n        /* \"@openzeppelin/contracts/security/ReentrancyGuard.sol\":2336:2623  function _nonReentrantBefore() private {... */\n    tag_53:\n        /* \"@openzeppelin/contracts/security/ReentrancyGuard.sol\":1759:1760  2 */\n      0x02\n        /* \"@openzeppelin/contracts/security/ReentrancyGuard.sol\":2468:2475  _status */\n      sload(0x00)\n        /* \"@openzeppelin/contracts/security/ReentrancyGuard.sol\":2468:2487  _status != _ENTERED */\n      sub\n        /* \"@openzeppelin/contracts/security/ReentrancyGuard.sol\":2460:2523  require(_status != _ENTERED, \"ReentrancyGuard: reentrant call\") */\n      tag_150\n      jumpi\n      mload(0x40)\n      0x08c379a000000000000000000000000000000000000000000000000000000000\n      dup2\n      mstore\n      0x04\n      add\n      tag_151\n      swap1\n      tag_152\n      jump\t// in\n    tag_151:\n      mload(0x40)\n      dup1\n      swap2\n      sub\n      swap1\n      revert\n    tag_150:\n        /* \"@openzeppelin/contracts/security/ReentrancyGuard.sol\":1759:1760  2 */\n      0x02\n        /* \"@openzeppelin/contracts/security/ReentrancyGuard.sol\":2598:2605  _status */\n      0x00\n        /* \"@openzeppelin/contracts/security/ReentrancyGuard.sol\":2598:2616  _status = _ENTERED */\n      dup2\n      swap1\n      sstore\n      pop\n        /* \"@openzeppelin/contracts/security/ReentrancyGuard.sol\":2336:2623  function _nonReentrantBefore() private {... */\n      jump\t// out\n        /* \"nft-staking-app/StakingContract.sol\":7235:7535  function calculateRewards(address _staker)... */\n    tag_62:\n        /* \"nft-staking-app/StakingContract.sol\":7328:7344  uint256 _rewards */\n      0x00\n        /* \"nft-staking-app/StakingContract.sol\":7522:7526  3600 */\n      0x0e10\n        /* \"nft-staking-app/StakingContract.sol\":7504:7518  rewardsPerHour */\n      sload(0x01)\n        /* \"nft-staking-app/StakingContract.sol\":7460:7467  stakers */\n      0x02\n        /* \"nft-staking-app/StakingContract.sol\":7460:7476  stakers[_staker] */\n      0x00\n        /* \"nft-staking-app/StakingContract.sol\":7468:7475  _staker */\n      dup6\n        /* \"nft-staking-app/StakingContract.sol\":7460:7476  stakers[_staker] */\n      0xffffffffffffffffffffffffffffffffffffffff\n      and\n      0xffffffffffffffffffffffffffffffffffffffff\n      and\n      dup2\n      mstore\n      0x20\n      add\n      swap1\n      dup2\n      mstore\n      0x20\n      add\n      0x00\n      keccak256\n        /* \"nft-staking-app/StakingContract.sol\":7460:7489  stakers[_staker].amountStaked */\n      0x00\n      add\n      sload\n        /* \"nft-staking-app/StakingContract.sol\":7406:7413  stakers */\n      0x02\n        /* \"nft-staking-app/StakingContract.sol\":7406:7422  stakers[_staker] */\n      0x00\n        /* \"nft-staking-app/StakingContract.sol\":7414:7421  _staker */\n      dup7\n        /* \"nft-staking-app/StakingContract.sol\":7406:7422  stakers[_staker] */\n      0xffffffffffffffffffffffffffffffffffffffff\n      and\n      0xffffffffffffffffffffffffffffffffffffffff\n      and\n      dup2\n      mstore\n      0x20\n      add\n      swap1\n      dup2\n      mstore\n      0x20\n      add\n      0x00\n      keccak256\n        /* \"nft-staking-app/StakingContract.sol\":7406:7439  stakers[_staker].timeOfLastUpdate */\n      0x02\n      add\n      sload\n        /* \"nft-staking-app/StakingContract.sol\":7388:7403  block.timestamp */\n      timestamp\n        /* \"nft-staking-app/StakingContract.sol\":7388:7439  block.timestamp - stakers[_staker].timeOfLastUpdate */\n      tag_154\n      swap2\n      swap1\n      tag_155\n      jump\t// in\n    tag_154:\n        /* \"nft-staking-app/StakingContract.sol\":7387:7489  (block.timestamp - stakers[_staker].timeOfLastUpdate) *... */\n      tag_156\n      swap2\n      swap1\n      tag_157\n      jump\t// in\n    tag_156:\n        /* \"nft-staking-app/StakingContract.sol\":7371:7518  (... */\n      tag_158\n      swap2\n      swap1\n      tag_157\n      jump\t// in\n    tag_158:\n        /* \"nft-staking-app/StakingContract.sol\":7370:7526  ((... */\n      tag_159\n      swap2\n      swap1\n      tag_160\n      jump\t// in\n    tag_159:\n        /* \"nft-staking-app/StakingContract.sol\":7362:7527  return (((... */\n      swap1\n      pop\n        /* \"nft-staking-app/StakingContract.sol\":7235:7535  function calculateRewards(address _staker)... */\n      swap2\n      swap1\n      pop\n      jump\t// out\n        /* \"@openzeppelin/contracts/security/ReentrancyGuard.sol\":2629:2838  function _nonReentrantAfter() private {... */\n    tag_88:\n        /* \"@openzeppelin/contracts/security/ReentrancyGuard.sol\":1716:1717  1 */\n      0x01\n        /* \"@openzeppelin/contracts/security/ReentrancyGuard.sol\":2809:2816  _status */\n      0x00\n        /* \"@openzeppelin/contracts/security/ReentrancyGuard.sol\":2809:2831  _status = _NOT_ENTERED */\n      dup2\n      swap1\n      sstore\n      pop\n        /* \"@openzeppelin/contracts/security/ReentrancyGuard.sol\":2629:2838  function _nonReentrantAfter() private {... */\n      jump\t// out\n        /* \"@openzeppelin/contracts/token/ERC20/utils/SafeERC20.sol\":1303:1463  function safeTransfer(IERC20 token, address to, uint256 value) internal {... */\n    tag_96:\n        /* \"@openzeppelin/contracts/token/ERC20/utils/SafeERC20.sol\":1385:1456  _callOptionalReturn(token, abi.encodeCall(token.transfer, (to, value))) */\n      tag_163\n        /* \"@openzeppelin/contracts/token/ERC20/utils/SafeERC20.sol\":1405:1410  token */\n      dup4\n        /* \"@openzeppelin/contracts/token/ERC20/utils/SafeERC20.sol\":1427:1432  token */\n      dup5\n        /* \"@openzeppelin/contracts/token/ERC20/utils/SafeERC20.sol\":1427:1441  token.transfer */\n      0xffffffffffffffffffffffffffffffffffffffff\n      and\n      0xa9059cbb\n        /* \"@openzeppelin/contracts/token/ERC20/utils/SafeERC20.sol\":1444:1446  to */\n      dup6\n        /* \"@openzeppelin/contracts/token/ERC20/utils/SafeERC20.sol\":1448:1453  value */\n      dup6\n        /* \"@openzeppelin/contracts/token/ERC20/utils/SafeERC20.sol\":1412:1455  abi.encodeCall(token.transfer, (to, value)) */\n      add(0x24, mload(0x40))\n      tag_164\n      swap3\n      swap2\n      swap1\n      tag_165\n      jump\t// in\n    tag_164:\n      mload(0x40)\n      0x20\n      dup2\n      dup4\n      sub\n      sub\n      dup2\n      mstore\n      swap1\n      0x40\n      mstore\n      swap2\n      pop\n      0xe0\n      shl\n      0x20\n      dup3\n      add\n      dup1\n      mload\n      0xffffffffffffffffffffffffffffffffffffffffffffffffffffffff\n      dup4\n      dup2\n      dup4\n      and\n      or\n      dup4\n      mstore\n      pop\n      pop\n      pop\n      pop\n        /* \"@openzeppelin/contracts/token/ERC20/utils/SafeERC20.sol\":1385:1404  _callOptionalReturn */\n      tag_166\n        /* \"@openzeppelin/contracts/token/ERC20/utils/SafeERC20.sol\":1385:1456  _callOptionalReturn(token, abi.encodeCall(token.transfer, (to, value))) */\n      jump\t// in\n    tag_163:\n        /* \"@openzeppelin/contracts/token/ERC20/utils/SafeERC20.sol\":1303:1463  function safeTransfer(IERC20 token, address to, uint256 value) internal {... */\n      pop\n      pop\n      pop\n      jump\t// out\n        /* \"@openzeppelin/contracts/token/ERC20/utils/SafeERC20.sol\":4059:4688  function _callOptionalReturn(IERC20 token, bytes memory data) private {... */\n    tag_166:\n        /* \"@openzeppelin/contracts/token/ERC20/utils/SafeERC20.sol\":4478:4501  bytes memory returndata */\n      0x00\n        /* \"@openzeppelin/contracts/token/ERC20/utils/SafeERC20.sol\":4504:4537  address(token).functionCall(data) */\n      tag_168\n        /* \"@openzeppelin/contracts/token/ERC20/utils/SafeERC20.sol\":4532:4536  data */\n      dup3\n        /* \"@openzeppelin/contracts/token/ERC20/utils/SafeERC20.sol\":4512:4517  token */\n      dup5\n        /* \"@openzeppelin/contracts/token/ERC20/utils/SafeERC20.sol\":4504:4531  address(token).functionCall */\n      0xffffffffffffffffffffffffffffffffffffffff\n      and\n      tag_169\n      swap1\n        /* \"@openzeppelin/contracts/token/ERC20/utils/SafeERC20.sol\":4504:4537  address(token).functionCall(data) */\n      swap2\n      swap1\n      0xffffffff\n      and\n      jump\t// in\n    tag_168:\n        /* \"@openzeppelin/contracts/token/ERC20/utils/SafeERC20.sol\":4478:4537  bytes memory returndata = address(token).functionCall(data) */\n      swap1\n      pop\n        /* \"@openzeppelin/contracts/token/ERC20/utils/SafeERC20.sol\":4572:4573  0 */\n      0x00\n        /* \"@openzeppelin/contracts/token/ERC20/utils/SafeERC20.sol\":4551:4561  returndata */\n      dup2\n        /* \"@openzeppelin/contracts/token/ERC20/utils/SafeERC20.sol\":4551:4568  returndata.length */\n      mload\n        /* \"@openzeppelin/contracts/token/ERC20/utils/SafeERC20.sol\":4551:4573  returndata.length != 0 */\n      eq\n      iszero\n        /* \"@openzeppelin/contracts/token/ERC20/utils/SafeERC20.sol\":4551:4608  returndata.length != 0 && !abi.decode(returndata, (bool)) */\n      dup1\n      iszero\n      tag_170\n      jumpi\n      pop\n        /* \"@openzeppelin/contracts/token/ERC20/utils/SafeERC20.sol\":4589:4599  returndata */\n      dup1\n        /* \"@openzeppelin/contracts/token/ERC20/utils/SafeERC20.sol\":4578:4608  abi.decode(returndata, (bool)) */\n      dup1\n      0x20\n      add\n      swap1\n      mload\n      dup2\n      add\n      swap1\n      tag_171\n      swap2\n      swap1\n      tag_172\n      jump\t// in\n    tag_171:\n        /* \"@openzeppelin/contracts/token/ERC20/utils/SafeERC20.sol\":4577:4608  !abi.decode(returndata, (bool)) */\n      iszero\n        /* \"@openzeppelin/contracts/token/ERC20/utils/SafeERC20.sol\":4551:4608  returndata.length != 0 && !abi.decode(returndata, (bool)) */\n    tag_170:\n        /* \"@openzeppelin/contracts/token/ERC20/utils/SafeERC20.sol\":4547:4682  if (returndata.length != 0 && !abi.decode(returndata, (bool))) {... */\n      iszero\n      tag_173\n      jumpi\n        /* \"@openzeppelin/contracts/token/ERC20/utils/SafeERC20.sol\":4664:4669  token */\n      dup3\n        /* \"@openzeppelin/contracts/token/ERC20/utils/SafeERC20.sol\":4631:4671  SafeERC20FailedOperation(address(token)) */\n      mload(0x40)\n      0x5274afe700000000000000000000000000000000000000000000000000000000\n      dup2\n      mstore\n      0x04\n      add\n      tag_174\n      swap2\n      swap1\n      tag_38\n      jump\t// in\n    tag_174:\n      mload(0x40)\n      dup1\n      swap2\n      sub\n      swap1\n      revert\n        /* \"@openzeppelin/contracts/token/ERC20/utils/SafeERC20.sol\":4547:4682  if (returndata.length != 0 && !abi.decode(returndata, (bool))) {... */\n    tag_173:\n        /* \"@openzeppelin/contracts/token/ERC20/utils/SafeERC20.sol\":4129:4688  {... */\n      pop\n        /* \"@openzeppelin/contracts/token/ERC20/utils/SafeERC20.sol\":4059:4688  function _callOptionalReturn(IERC20 token, bytes memory data) private {... */\n      pop\n      pop\n      jump\t// out\n        /* \"@openzeppelin/contracts/utils/Address.sol\":2705:2856  function functionCall(address target, bytes memory data) internal returns (bytes memory) {... */\n    tag_169:\n        /* \"@openzeppelin/contracts/utils/Address.sol\":2780:2792  bytes memory */\n      0x60\n        /* \"@openzeppelin/contracts/utils/Address.sol\":2811:2849  functionCallWithValue(target, data, 0) */\n      tag_176\n        /* \"@openzeppelin/contracts/utils/Address.sol\":2833:2839  target */\n      dup4\n        /* \"@openzeppelin/contracts/utils/Address.sol\":2841:2845  data */\n      dup4\n        /* \"@openzeppelin/contracts/utils/Address.sol\":2847:2848  0 */\n      0x00\n        /* \"@openzeppelin/contracts/utils/Address.sol\":2811:2832  functionCallWithValue */\n      tag_177\n        /* \"@openzeppelin/contracts/utils/Address.sol\":2811:2849  functionCallWithValue(target, data, 0) */\n      jump\t// in\n    tag_176:\n        /* \"@openzeppelin/contracts/utils/Address.sol\":2804:2849  return functionCallWithValue(target, data, 0) */\n      swap1\n      pop\n        /* \"@openzeppelin/contracts/utils/Address.sol\":2705:2856  function functionCall(address target, bytes memory data) internal returns (bytes memory) {... */\n      swap3\n      swap2\n      pop\n      pop\n      jump\t// out\n        /* \"@openzeppelin/contracts/utils/Address.sol\":3180:3572  function functionCallWithValue(address target, bytes memory data, uint256 value) internal returns (bytes memory) {... */\n    tag_177:\n        /* \"@openzeppelin/contracts/utils/Address.sol\":3279:3291  bytes memory */\n      0x60\n        /* \"@openzeppelin/contracts/utils/Address.sol\":3331:3336  value */\n      dup2\n        /* \"@openzeppelin/contracts/utils/Address.sol\":3307:3328  address(this).balance */\n      selfbalance\n        /* \"@openzeppelin/contracts/utils/Address.sol\":3307:3336  address(this).balance < value */\n      lt\n        /* \"@openzeppelin/contracts/utils/Address.sol\":3303:3411  if (address(this).balance < value) {... */\n      iszero\n      tag_179\n      jumpi\n        /* \"@openzeppelin/contracts/utils/Address.sol\":3394:3398  this */\n      address\n        /* \"@openzeppelin/contracts/utils/Address.sol\":3359:3400  AddressInsufficientBalance(address(this)) */\n      mload(0x40)\n      0xcd78605900000000000000000000000000000000000000000000000000000000\n      dup2\n      mstore\n      0x04\n      add\n      tag_180\n      swap2\n      swap1\n      tag_38\n      jump\t// in\n    tag_180:\n      mload(0x40)\n      dup1\n      swap2\n      sub\n      swap1\n      revert\n        /* \"@openzeppelin/contracts/utils/Address.sol\":3303:3411  if (address(this).balance < value) {... */\n    tag_179:\n        /* \"@openzeppelin/contracts/utils/Address.sol\":3421:3433  bool success */\n      0x00\n        /* \"@openzeppelin/contracts/utils/Address.sol\":3435:3458  bytes memory returndata */\n      dup1\n        /* \"@openzeppelin/contracts/utils/Address.sol\":3462:3468  target */\n      dup6\n        /* \"@openzeppelin/contracts/utils/Address.sol\":3462:3473  target.call */\n      0xffffffffffffffffffffffffffffffffffffffff\n      and\n        /* \"@openzeppelin/contracts/utils/Address.sol\":3481:3486  value */\n      dup5\n        /* \"@openzeppelin/contracts/utils/Address.sol\":3488:3492  data */\n      dup7\n        /* \"@openzeppelin/contracts/utils/Address.sol\":3462:3493  target.call{value: value}(data) */\n      mload(0x40)\n      tag_181\n      swap2\n      swap1\n      tag_182\n      jump\t// in\n    tag_181:\n      0x00\n      mload(0x40)\n      dup1\n      dup4\n      sub\n      dup2\n      dup6\n      dup8\n      gas\n      call\n      swap3\n      pop\n      pop\n      pop\n      returndatasize\n      dup1\n      0x00\n      dup2\n      eq\n      tag_185\n      jumpi\n      mload(0x40)\n      swap2\n      pop\n      and(add(returndatasize, 0x3f), not(0x1f))\n      dup3\n      add\n      0x40\n      mstore\n      returndatasize\n      dup3\n      mstore\n      returndatasize\n      0x00\n      0x20\n      dup5\n      add\n      returndatacopy\n      jump(tag_184)\n    tag_185:\n      0x60\n      swap2\n      pop\n    tag_184:\n      pop\n        /* \"@openzeppelin/contracts/utils/Address.sol\":3420:3493  (bool success, bytes memory returndata) = target.call{value: value}(data) */\n      swap2\n      pop\n      swap2\n      pop\n        /* \"@openzeppelin/contracts/utils/Address.sol\":3510:3565  verifyCallResultFromTarget(target, success, returndata) */\n      tag_186\n        /* \"@openzeppelin/contracts/utils/Address.sol\":3537:3543  target */\n      dup7\n        /* \"@openzeppelin/contracts/utils/Address.sol\":3545:3552  success */\n      dup4\n        /* \"@openzeppelin/contracts/utils/Address.sol\":3554:3564  returndata */\n      dup4\n        /* \"@openzeppelin/contracts/utils/Address.sol\":3510:3536  verifyCallResultFromTarget */\n      tag_187\n        /* \"@openzeppelin/contracts/utils/Address.sol\":3510:3565  verifyCallResultFromTarget(target, success, returndata) */\n      jump\t// in\n    tag_186:\n        /* \"@openzeppelin/contracts/utils/Address.sol\":3503:3565  return verifyCallResultFromTarget(target, success, returndata) */\n      swap3\n      pop\n      pop\n      pop\n        /* \"@openzeppelin/contracts/utils/Address.sol\":3180:3572  function functionCallWithValue(address target, bytes memory data, uint256 value) internal returns (bytes memory) {... */\n      swap4\n      swap3\n      pop\n      pop\n      pop\n      jump\t// out\n        /* \"@openzeppelin/contracts/utils/Address.sol\":4625:5207  function verifyCallResultFromTarget(... */\n    tag_187:\n        /* \"@openzeppelin/contracts/utils/Address.sol\":4769:4781  bytes memory */\n      0x60\n        /* \"@openzeppelin/contracts/utils/Address.sol\":4798:4805  success */\n      dup3\n        /* \"@openzeppelin/contracts/utils/Address.sol\":4793:5201  if (!success) {... */\n      tag_189\n      jumpi\n        /* \"@openzeppelin/contracts/utils/Address.sol\":4821:4840  _revert(returndata) */\n      tag_190\n        /* \"@openzeppelin/contracts/utils/Address.sol\":4829:4839  returndata */\n      dup3\n        /* \"@openzeppelin/contracts/utils/Address.sol\":4821:4828  _revert */\n      tag_191\n        /* \"@openzeppelin/contracts/utils/Address.sol\":4821:4840  _revert(returndata) */\n      jump\t// in\n    tag_190:\n        /* \"@openzeppelin/contracts/utils/Address.sol\":4793:5201  if (!success) {... */\n      jump(tag_192)\n    tag_189:\n        /* \"@openzeppelin/contracts/utils/Address.sol\":5066:5067  0 */\n      0x00\n        /* \"@openzeppelin/contracts/utils/Address.sol\":5045:5055  returndata */\n      dup3\n        /* \"@openzeppelin/contracts/utils/Address.sol\":5045:5062  returndata.length */\n      mload\n        /* \"@openzeppelin/contracts/utils/Address.sol\":5045:5067  returndata.length == 0 */\n      eq\n        /* \"@openzeppelin/contracts/utils/Address.sol\":5045:5094  returndata.length == 0 && target.code.length == 0 */\n      dup1\n      iszero\n      tag_193\n      jumpi\n      pop\n        /* \"@openzeppelin/contracts/utils/Address.sol\":5093:5094  0 */\n      0x00\n        /* \"@openzeppelin/contracts/utils/Address.sol\":5071:5077  target */\n      dup5\n        /* \"@openzeppelin/contracts/utils/Address.sol\":5071:5089  target.code.length */\n      0xffffffffffffffffffffffffffffffffffffffff\n      and\n      extcodesize\n        /* \"@openzeppelin/contracts/utils/Address.sol\":5071:5094  target.code.length == 0 */\n      eq\n        /* \"@openzeppelin/contracts/utils/Address.sol\":5045:5094  returndata.length == 0 && target.code.length == 0 */\n    tag_193:\n        /* \"@openzeppelin/contracts/utils/Address.sol\":5041:5160  if (returndata.length == 0 && target.code.length == 0) {... */\n      iszero\n      tag_194\n      jumpi\n        /* \"@openzeppelin/contracts/utils/Address.sol\":5138:5144  target */\n      dup4\n        /* \"@openzeppelin/contracts/utils/Address.sol\":5121:5145  AddressEmptyCode(target) */\n      mload(0x40)\n      0x9996b31500000000000000000000000000000000000000000000000000000000\n      dup2\n      mstore\n      0x04\n      add\n      tag_195\n      swap2\n      swap1\n      tag_38\n      jump\t// in\n    tag_195:\n      mload(0x40)\n      dup1\n      swap2\n      sub\n      swap1\n      revert\n        /* \"@openzeppelin/contracts/utils/Address.sol\":5041:5160  if (returndata.length == 0 && target.code.length == 0) {... */\n    tag_194:\n        /* \"@openzeppelin/contracts/utils/Address.sol\":5180:5190  returndata */\n      dup2\n        /* \"@openzeppelin/contracts/utils/Address.sol\":5173:5190  return returndata */\n      swap1\n      pop\n      jump(tag_188)\n        /* \"@openzeppelin/contracts/utils/Address.sol\":4793:5201  if (!success) {... */\n    tag_192:\n        /* \"@openzeppelin/contracts/utils/Address.sol\":4625:5207  function verifyCallResultFromTarget(... */\n    tag_188:\n      swap4\n      swap3\n      pop\n      pop\n      pop\n      jump\t// out\n        /* \"@openzeppelin/contracts/utils/Address.sol\":5743:6259  function _revert(bytes memory returndata) private pure {... */\n    tag_191:\n        /* \"@openzeppelin/contracts/utils/Address.sol\":5894:5895  0 */\n      0x00\n        /* \"@openzeppelin/contracts/utils/Address.sol\":5874:5884  returndata */\n      dup2\n        /* \"@openzeppelin/contracts/utils/Address.sol\":5874:5891  returndata.length */\n      mload\n        /* \"@openzeppelin/contracts/utils/Address.sol\":5874:5895  returndata.length > 0 */\n      gt\n        /* \"@openzeppelin/contracts/utils/Address.sol\":5870:6253  if (returndata.length > 0) {... */\n      iszero\n      tag_197\n      jumpi\n        /* \"@openzeppelin/contracts/utils/Address.sol\":6102:6112  returndata */\n      dup1\n        /* \"@openzeppelin/contracts/utils/Address.sol\":6096:6113  mload(returndata) */\n      mload\n        /* \"@openzeppelin/contracts/utils/Address.sol\":6158:6173  returndata_size */\n      dup1\n        /* \"@openzeppelin/contracts/utils/Address.sol\":6145:6155  returndata */\n      dup3\n        /* \"@openzeppelin/contracts/utils/Address.sol\":6141:6143  32 */\n      0x20\n        /* \"@openzeppelin/contracts/utils/Address.sol\":6137:6156  add(32, returndata) */\n      add\n        /* \"@openzeppelin/contracts/utils/Address.sol\":6130:6174  revert(add(32, returndata), returndata_size) */\n      revert\n        /* \"@openzeppelin/contracts/utils/Address.sol\":5870:6253  if (returndata.length > 0) {... */\n    tag_197:\n        /* \"@openzeppelin/contracts/utils/Address.sol\":6225:6242  FailedInnerCall() */\n      mload(0x40)\n      0x1425ea4200000000000000000000000000000000000000000000000000000000\n      dup2\n      mstore\n      0x04\n      add\n      mload(0x40)\n      dup1\n      swap2\n      sub\n      swap1\n      revert\n    tag_105:\n      mload(0x40)\n      dup1\n      0x40\n      add\n      0x40\n      mstore\n      dup1\n      and(0xffffffffffffffffffffffffffffffffffffffff, 0x00)\n      dup2\n      mstore\n      0x20\n      add\n      0x00\n      dup2\n      mstore\n      pop\n      swap1\n      jump\t// out\n        /* \"#utility.yul\":88:205   */\n    tag_200:\n        /* \"#utility.yul\":197:198   */\n      0x00\n        /* \"#utility.yul\":194:195   */\n      dup1\n        /* \"#utility.yul\":187:199   */\n      revert\n        /* \"#utility.yul\":334:411   */\n    tag_202:\n        /* \"#utility.yul\":371:378   */\n      0x00\n        /* \"#utility.yul\":400:405   */\n      dup2\n        /* \"#utility.yul\":389:405   */\n      swap1\n      pop\n        /* \"#utility.yul\":334:411   */\n      swap2\n      swap1\n      pop\n      jump\t// out\n        /* \"#utility.yul\":417:539   */\n    tag_203:\n        /* \"#utility.yul\":490:514   */\n      tag_252\n        /* \"#utility.yul\":508:513   */\n      dup2\n        /* \"#utility.yul\":490:514   */\n      tag_202\n      jump\t// in\n    tag_252:\n        /* \"#utility.yul\":483:488   */\n      dup2\n        /* \"#utility.yul\":480:515   */\n      eq\n        /* \"#utility.yul\":470:533   */\n      tag_253\n      jumpi\n        /* \"#utility.yul\":529:530   */\n      0x00\n        /* \"#utility.yul\":526:527   */\n      dup1\n        /* \"#utility.yul\":519:531   */\n      revert\n        /* \"#utility.yul\":470:533   */\n    tag_253:\n        /* \"#utility.yul\":417:539   */\n      pop\n      jump\t// out\n        /* \"#utility.yul\":545:684   */\n    tag_204:\n        /* \"#utility.yul\":591:596   */\n      0x00\n        /* \"#utility.yul\":629:635   */\n      dup2\n        /* \"#utility.yul\":616:636   */\n      calldataload\n        /* \"#utility.yul\":607:636   */\n      swap1\n      pop\n        /* \"#utility.yul\":645:678   */\n      tag_255\n        /* \"#utility.yul\":672:677   */\n      dup2\n        /* \"#utility.yul\":645:678   */\n      tag_203\n      jump\t// in\n    tag_255:\n        /* \"#utility.yul\":545:684   */\n      swap3\n      swap2\n      pop\n      pop\n      jump\t// out\n        /* \"#utility.yul\":690:1019   */\n    tag_15:\n        /* \"#utility.yul\":749:755   */\n      0x00\n        /* \"#utility.yul\":798:800   */\n      0x20\n        /* \"#utility.yul\":786:795   */\n      dup3\n        /* \"#utility.yul\":777:784   */\n      dup5\n        /* \"#utility.yul\":773:796   */\n      sub\n        /* \"#utility.yul\":769:801   */\n      slt\n        /* \"#utility.yul\":766:885   */\n      iszero\n      tag_257\n      jumpi\n        /* \"#utility.yul\":804:883   */\n      tag_258\n      tag_200\n      jump\t// in\n    tag_258:\n        /* \"#utility.yul\":766:885   */\n    tag_257:\n        /* \"#utility.yul\":924:925   */\n      0x00\n        /* \"#utility.yul\":949:1002   */\n      tag_259\n        /* \"#utility.yul\":994:1001   */\n      dup5\n        /* \"#utility.yul\":985:991   */\n      dup3\n        /* \"#utility.yul\":974:983   */\n      dup6\n        /* \"#utility.yul\":970:992   */\n      add\n        /* \"#utility.yul\":949:1002   */\n      tag_204\n      jump\t// in\n    tag_259:\n        /* \"#utility.yul\":939:1002   */\n      swap2\n      pop\n        /* \"#utility.yul\":895:1012   */\n      pop\n        /* \"#utility.yul\":690:1019   */\n      swap3\n      swap2\n      pop\n      pop\n      jump\t// out\n        /* \"#utility.yul\":1025:1151   */\n    tag_205:\n        /* \"#utility.yul\":1062:1069   */\n      0x00\n        /* \"#utility.yul\":1102:1144   */\n      0xffffffffffffffffffffffffffffffffffffffff\n        /* \"#utility.yul\":1095:1100   */\n      dup3\n        /* \"#utility.yul\":1091:1145   */\n      and\n        /* \"#utility.yul\":1080:1145   */\n      swap1\n      pop\n        /* \"#utility.yul\":1025:1151   */\n      swap2\n      swap1\n      pop\n      jump\t// out\n        /* \"#utility.yul\":1157:1253   */\n    tag_206:\n        /* \"#utility.yul\":1194:1201   */\n      0x00\n        /* \"#utility.yul\":1223:1247   */\n      tag_262\n        /* \"#utility.yul\":1241:1246   */\n      dup3\n        /* \"#utility.yul\":1223:1247   */\n      tag_205\n      jump\t// in\n    tag_262:\n        /* \"#utility.yul\":1212:1247   */\n      swap1\n      pop\n        /* \"#utility.yul\":1157:1253   */\n      swap2\n      swap1\n      pop\n      jump\t// out\n        /* \"#utility.yul\":1259:1381   */\n    tag_207:\n        /* \"#utility.yul\":1332:1356   */\n      tag_264\n        /* \"#utility.yul\":1350:1355   */\n      dup2\n        /* \"#utility.yul\":1332:1356   */\n      tag_206\n      jump\t// in\n    tag_264:\n        /* \"#utility.yul\":1325:1330   */\n      dup2\n        /* \"#utility.yul\":1322:1357   */\n      eq\n        /* \"#utility.yul\":1312:1375   */\n      tag_265\n      jumpi\n        /* \"#utility.yul\":1371:1372   */\n      0x00\n        /* \"#utility.yul\":1368:1369   */\n      dup1\n        /* \"#utility.yul\":1361:1373   */\n      revert\n        /* \"#utility.yul\":1312:1375   */\n    tag_265:\n        /* \"#utility.yul\":1259:1381   */\n      pop\n      jump\t// out\n        /* \"#utility.yul\":1387:1526   */\n    tag_208:\n        /* \"#utility.yul\":1433:1438   */\n      0x00\n        /* \"#utility.yul\":1471:1477   */\n      dup2\n        /* \"#utility.yul\":1458:1478   */\n      calldataload\n        /* \"#utility.yul\":1449:1478   */\n      swap1\n      pop\n        /* \"#utility.yul\":1487:1520   */\n      tag_267\n        /* \"#utility.yul\":1514:1519   */\n      dup2\n        /* \"#utility.yul\":1487:1520   */\n      tag_207\n      jump\t// in\n    tag_267:\n        /* \"#utility.yul\":1387:1526   */\n      swap3\n      swap2\n      pop\n      pop\n      jump\t// out\n        /* \"#utility.yul\":1532:1861   */\n    tag_21:\n        /* \"#utility.yul\":1591:1597   */\n      0x00\n        /* \"#utility.yul\":1640:1642   */\n      0x20\n        /* \"#utility.yul\":1628:1637   */\n      dup3\n        /* \"#utility.yul\":1619:1626   */\n      dup5\n        /* \"#utility.yul\":1615:1638   */\n      sub\n        /* \"#utility.yul\":1611:1643   */\n      slt\n        /* \"#utility.yul\":1608:1727   */\n      iszero\n      tag_269\n      jumpi\n        /* \"#utility.yul\":1646:1725   */\n      tag_270\n      tag_200\n      jump\t// in\n    tag_270:\n        /* \"#utility.yul\":1608:1727   */\n    tag_269:\n        /* \"#utility.yul\":1766:1767   */\n      0x00\n        /* \"#utility.yul\":1791:1844   */\n      tag_271\n        /* \"#utility.yul\":1836:1843   */\n      dup5\n        /* \"#utility.yul\":1827:1833   */\n      dup3\n        /* \"#utility.yul\":1816:1825   */\n      dup6\n        /* \"#utility.yul\":1812:1834   */\n      add\n        /* \"#utility.yul\":1791:1844   */\n      tag_208\n      jump\t// in\n    tag_271:\n        /* \"#utility.yul\":1781:1844   */\n      swap2\n      pop\n        /* \"#utility.yul\":1737:1854   */\n      pop\n        /* \"#utility.yul\":1532:1861   */\n      swap3\n      swap2\n      pop\n      pop\n      jump\t// out\n        /* \"#utility.yul\":1867:2009   */\n    tag_209:\n        /* \"#utility.yul\":1962:1968   */\n      0x00\n        /* \"#utility.yul\":1996:2001   */\n      dup2\n        /* \"#utility.yul\":1990:2002   */\n      mload\n        /* \"#utility.yul\":1980:2002   */\n      swap1\n      pop\n        /* \"#utility.yul\":1867:2009   */\n      swap2\n      swap1\n      pop\n      jump\t// out\n        /* \"#utility.yul\":2015:2227   */\n    tag_210:\n        /* \"#utility.yul\":2142:2153   */\n      0x00\n        /* \"#utility.yul\":2176:2182   */\n      dup3\n        /* \"#utility.yul\":2171:2174   */\n      dup3\n        /* \"#utility.yul\":2164:2183   */\n      mstore\n        /* \"#utility.yul\":2216:2220   */\n      0x20\n        /* \"#utility.yul\":2211:2214   */\n      dup3\n        /* \"#utility.yul\":2207:2221   */\n      add\n        /* \"#utility.yul\":2192:2221   */\n      swap1\n      pop\n        /* \"#utility.yul\":2015:2227   */\n      swap3\n      swap2\n      pop\n      pop\n      jump\t// out\n        /* \"#utility.yul\":2233:2393   */\n    tag_211:\n        /* \"#utility.yul\":2328:2332   */\n      0x00\n        /* \"#utility.yul\":2351:2354   */\n      dup2\n        /* \"#utility.yul\":2343:2354   */\n      swap1\n      pop\n        /* \"#utility.yul\":2381:2385   */\n      0x20\n        /* \"#utility.yul\":2376:2379   */\n      dup3\n        /* \"#utility.yul\":2372:2386   */\n      add\n        /* \"#utility.yul\":2364:2386   */\n      swap1\n      pop\n        /* \"#utility.yul\":2233:2393   */\n      swap2\n      swap1\n      pop\n      jump\t// out\n        /* \"#utility.yul\":2399:2507   */\n    tag_212:\n        /* \"#utility.yul\":2476:2500   */\n      tag_276\n        /* \"#utility.yul\":2494:2499   */\n      dup2\n        /* \"#utility.yul\":2476:2500   */\n      tag_206\n      jump\t// in\n    tag_276:\n        /* \"#utility.yul\":2471:2474   */\n      dup3\n        /* \"#utility.yul\":2464:2501   */\n      mstore\n        /* \"#utility.yul\":2399:2507   */\n      pop\n      pop\n      jump\t// out\n        /* \"#utility.yul\":2513:2621   */\n    tag_213:\n        /* \"#utility.yul\":2590:2614   */\n      tag_278\n        /* \"#utility.yul\":2608:2613   */\n      dup2\n        /* \"#utility.yul\":2590:2614   */\n      tag_202\n      jump\t// in\n    tag_278:\n        /* \"#utility.yul\":2585:2588   */\n      dup3\n        /* \"#utility.yul\":2578:2615   */\n      mstore\n        /* \"#utility.yul\":2513:2621   */\n      pop\n      pop\n      jump\t// out\n        /* \"#utility.yul\":2703:3211   */\n    tag_214:\n        /* \"#utility.yul\":2846:2850   */\n      0x40\n        /* \"#utility.yul\":2841:2844   */\n      dup3\n        /* \"#utility.yul\":2837:2851   */\n      add\n        /* \"#utility.yul\":2935:2939   */\n      0x00\n        /* \"#utility.yul\":2928:2933   */\n      dup3\n        /* \"#utility.yul\":2924:2940   */\n      add\n        /* \"#utility.yul\":2918:2941   */\n      mload\n        /* \"#utility.yul\":2954:3017   */\n      tag_280\n        /* \"#utility.yul\":3011:3015   */\n      0x00\n        /* \"#utility.yul\":3006:3009   */\n      dup6\n        /* \"#utility.yul\":3002:3016   */\n      add\n        /* \"#utility.yul\":2988:3000   */\n      dup3\n        /* \"#utility.yul\":2954:3017   */\n      tag_212\n      jump\t// in\n    tag_280:\n        /* \"#utility.yul\":2861:3027   */\n      pop\n        /* \"#utility.yul\":3112:3116   */\n      0x20\n        /* \"#utility.yul\":3105:3110   */\n      dup3\n        /* \"#utility.yul\":3101:3117   */\n      add\n        /* \"#utility.yul\":3095:3118   */\n      mload\n        /* \"#utility.yul\":3131:3194   */\n      tag_281\n        /* \"#utility.yul\":3188:3192   */\n      0x20\n        /* \"#utility.yul\":3183:3186   */\n      dup6\n        /* \"#utility.yul\":3179:3193   */\n      add\n        /* \"#utility.yul\":3165:3177   */\n      dup3\n        /* \"#utility.yul\":3131:3194   */\n      tag_213\n      jump\t// in\n    tag_281:\n        /* \"#utility.yul\":3037:3204   */\n      pop\n        /* \"#utility.yul\":2815:3211   */\n      pop\n        /* \"#utility.yul\":2703:3211   */\n      pop\n      pop\n      jump\t// out\n        /* \"#utility.yul\":3217:3508   */\n    tag_215:\n        /* \"#utility.yul\":3342:3352   */\n      0x00\n        /* \"#utility.yul\":3363:3465   */\n      tag_283\n        /* \"#utility.yul\":3461:3464   */\n      dup4\n        /* \"#utility.yul\":3453:3459   */\n      dup4\n        /* \"#utility.yul\":3363:3465   */\n      tag_214\n      jump\t// in\n    tag_283:\n        /* \"#utility.yul\":3497:3501   */\n      0x40\n        /* \"#utility.yul\":3492:3495   */\n      dup4\n        /* \"#utility.yul\":3488:3502   */\n      add\n        /* \"#utility.yul\":3474:3502   */\n      swap1\n      pop\n        /* \"#utility.yul\":3217:3508   */\n      swap3\n      swap2\n      pop\n      pop\n      jump\t// out\n        /* \"#utility.yul\":3514:3655   */\n    tag_216:\n        /* \"#utility.yul\":3612:3616   */\n      0x00\n        /* \"#utility.yul\":3644:3648   */\n      0x20\n        /* \"#utility.yul\":3639:3642   */\n      dup3\n        /* \"#utility.yul\":3635:3649   */\n      add\n        /* \"#utility.yul\":3627:3649   */\n      swap1\n      pop\n        /* \"#utility.yul\":3514:3655   */\n      swap2\n      swap1\n      pop\n      jump\t// out\n        /* \"#utility.yul\":3741:4697   */\n    tag_217:\n        /* \"#utility.yul\":3916:3919   */\n      0x00\n        /* \"#utility.yul\":3945:4027   */\n      tag_286\n        /* \"#utility.yul\":4021:4026   */\n      dup3\n        /* \"#utility.yul\":3945:4027   */\n      tag_209\n      jump\t// in\n    tag_286:\n        /* \"#utility.yul\":4043:4157   */\n      tag_287\n        /* \"#utility.yul\":4150:4156   */\n      dup2\n        /* \"#utility.yul\":4145:4148   */\n      dup6\n        /* \"#utility.yul\":4043:4157   */\n      tag_210\n      jump\t// in\n    tag_287:\n        /* \"#utility.yul\":4036:4157   */\n      swap4\n      pop\n        /* \"#utility.yul\":4181:4265   */\n      tag_288\n        /* \"#utility.yul\":4259:4264   */\n      dup4\n        /* \"#utility.yul\":4181:4265   */\n      tag_211\n      jump\t// in\n    tag_288:\n        /* \"#utility.yul\":4288:4295   */\n      dup1\n        /* \"#utility.yul\":4319:4320   */\n      0x00\n        /* \"#utility.yul\":4304:4672   */\n    tag_289:\n        /* \"#utility.yul\":4329:4335   */\n      dup4\n        /* \"#utility.yul\":4326:4327   */\n      dup2\n        /* \"#utility.yul\":4323:4336   */\n      lt\n        /* \"#utility.yul\":4304:4672   */\n      iszero\n      tag_291\n      jumpi\n        /* \"#utility.yul\":4405:4411   */\n      dup2\n        /* \"#utility.yul\":4399:4412   */\n      mload\n        /* \"#utility.yul\":4432:4551   */\n      tag_292\n        /* \"#utility.yul\":4547:4550   */\n      dup9\n        /* \"#utility.yul\":4532:4545   */\n      dup3\n        /* \"#utility.yul\":4432:4551   */\n      tag_215\n      jump\t// in\n    tag_292:\n        /* \"#utility.yul\":4425:4551   */\n      swap8\n      pop\n        /* \"#utility.yul\":4574:4662   */\n      tag_293\n        /* \"#utility.yul\":4655:4661   */\n      dup4\n        /* \"#utility.yul\":4574:4662   */\n      tag_216\n      jump\t// in\n    tag_293:\n        /* \"#utility.yul\":4564:4662   */\n      swap3\n      pop\n        /* \"#utility.yul\":4364:4672   */\n      pop\n        /* \"#utility.yul\":4351:4352   */\n      0x01\n        /* \"#utility.yul\":4348:4349   */\n      dup2\n        /* \"#utility.yul\":4344:4353   */\n      add\n        /* \"#utility.yul\":4339:4353   */\n      swap1\n      pop\n        /* \"#utility.yul\":4304:4672   */\n      jump(tag_289)\n    tag_291:\n        /* \"#utility.yul\":4308:4322   */\n      pop\n        /* \"#utility.yul\":4688:4691   */\n      dup6\n        /* \"#utility.yul\":4681:4691   */\n      swap4\n      pop\n        /* \"#utility.yul\":3921:4697   */\n      pop\n      pop\n      pop\n        /* \"#utility.yul\":3741:4697   */\n      swap3\n      swap2\n      pop\n      pop\n      jump\t// out\n        /* \"#utility.yul\":4703:5188   */\n    tag_24:\n        /* \"#utility.yul\":4902:4906   */\n      0x00\n        /* \"#utility.yul\":4940:4942   */\n      0x20\n        /* \"#utility.yul\":4929:4938   */\n      dup3\n        /* \"#utility.yul\":4925:4943   */\n      add\n        /* \"#utility.yul\":4917:4943   */\n      swap1\n      pop\n        /* \"#utility.yul\":4989:4998   */\n      dup2\n        /* \"#utility.yul\":4983:4987   */\n      dup2\n        /* \"#utility.yul\":4979:4999   */\n      sub\n        /* \"#utility.yul\":4975:4976   */\n      0x00\n        /* \"#utility.yul\":4964:4973   */\n      dup4\n        /* \"#utility.yul\":4960:4977   */\n      add\n        /* \"#utility.yul\":4953:5000   */\n      mstore\n        /* \"#utility.yul\":5017:5181   */\n      tag_295\n        /* \"#utility.yul\":5176:5180   */\n      dup2\n        /* \"#utility.yul\":5167:5173   */\n      dup5\n        /* \"#utility.yul\":5017:5181   */\n      tag_217\n      jump\t// in\n    tag_295:\n        /* \"#utility.yul\":5009:5181   */\n      swap1\n      pop\n        /* \"#utility.yul\":4703:5188   */\n      swap3\n      swap2\n      pop\n      pop\n      jump\t// out\n        /* \"#utility.yul\":5194:5254   */\n    tag_218:\n        /* \"#utility.yul\":5222:5225   */\n      0x00\n        /* \"#utility.yul\":5243:5248   */\n      dup2\n        /* \"#utility.yul\":5236:5248   */\n      swap1\n      pop\n        /* \"#utility.yul\":5194:5254   */\n      swap2\n      swap1\n      pop\n      jump\t// out\n        /* \"#utility.yul\":5260:5402   */\n    tag_219:\n        /* \"#utility.yul\":5310:5319   */\n      0x00\n        /* \"#utility.yul\":5343:5396   */\n      tag_298\n        /* \"#utility.yul\":5361:5395   */\n      tag_299\n        /* \"#utility.yul\":5370:5394   */\n      tag_300\n        /* \"#utility.yul\":5388:5393   */\n      dup5\n        /* \"#utility.yul\":5370:5394   */\n      tag_205\n      jump\t// in\n    tag_300:\n        /* \"#utility.yul\":5361:5395   */\n      tag_218\n      jump\t// in\n    tag_299:\n        /* \"#utility.yul\":5343:5396   */\n      tag_205\n      jump\t// in\n    tag_298:\n        /* \"#utility.yul\":5330:5396   */\n      swap1\n      pop\n        /* \"#utility.yul\":5260:5402   */\n      swap2\n      swap1\n      pop\n      jump\t// out\n        /* \"#utility.yul\":5408:5534   */\n    tag_220:\n        /* \"#utility.yul\":5458:5467   */\n      0x00\n        /* \"#utility.yul\":5491:5528   */\n      tag_302\n        /* \"#utility.yul\":5522:5527   */\n      dup3\n        /* \"#utility.yul\":5491:5528   */\n      tag_219\n      jump\t// in\n    tag_302:\n        /* \"#utility.yul\":5478:5528   */\n      swap1\n      pop\n        /* \"#utility.yul\":5408:5534   */\n      swap2\n      swap1\n      pop\n      jump\t// out\n        /* \"#utility.yul\":5540:5681   */\n    tag_221:\n        /* \"#utility.yul\":5605:5614   */\n      0x00\n        /* \"#utility.yul\":5638:5675   */\n      tag_304\n        /* \"#utility.yul\":5669:5674   */\n      dup3\n        /* \"#utility.yul\":5638:5675   */\n      tag_220\n      jump\t// in\n    tag_304:\n        /* \"#utility.yul\":5625:5675   */\n      swap1\n      pop\n        /* \"#utility.yul\":5540:5681   */\n      swap2\n      swap1\n      pop\n      jump\t// out\n        /* \"#utility.yul\":5687:5848   */\n    tag_222:\n        /* \"#utility.yul\":5789:5841   */\n      tag_306\n        /* \"#utility.yul\":5835:5840   */\n      dup2\n        /* \"#utility.yul\":5789:5841   */\n      tag_221\n      jump\t// in\n    tag_306:\n        /* \"#utility.yul\":5784:5787   */\n      dup3\n        /* \"#utility.yul\":5777:5842   */\n      mstore\n        /* \"#utility.yul\":5687:5848   */\n      pop\n      pop\n      jump\t// out\n        /* \"#utility.yul\":5854:6106   */\n    tag_28:\n        /* \"#utility.yul\":5962:5966   */\n      0x00\n        /* \"#utility.yul\":6000:6002   */\n      0x20\n        /* \"#utility.yul\":5989:5998   */\n      dup3\n        /* \"#utility.yul\":5985:6003   */\n      add\n        /* \"#utility.yul\":5977:6003   */\n      swap1\n      pop\n        /* \"#utility.yul\":6013:6099   */\n      tag_308\n        /* \"#utility.yul\":6096:6097   */\n      0x00\n        /* \"#utility.yul\":6085:6094   */\n      dup4\n        /* \"#utility.yul\":6081:6098   */\n      add\n        /* \"#utility.yul\":6072:6078   */\n      dup5\n        /* \"#utility.yul\":6013:6099   */\n      tag_222\n      jump\t// in\n    tag_308:\n        /* \"#utility.yul\":5854:6106   */\n      swap3\n      swap2\n      pop\n      pop\n      jump\t// out\n        /* \"#utility.yul\":6112:6230   */\n    tag_223:\n        /* \"#utility.yul\":6199:6223   */\n      tag_310\n        /* \"#utility.yul\":6217:6222   */\n      dup2\n        /* \"#utility.yul\":6199:6223   */\n      tag_202\n      jump\t// in\n    tag_310:\n        /* \"#utility.yul\":6194:6197   */\n      dup3\n        /* \"#utility.yul\":6187:6224   */\n      mstore\n        /* \"#utility.yul\":6112:6230   */\n      pop\n      pop\n      jump\t// out\n        /* \"#utility.yul\":6236:6678   */\n    tag_33:\n        /* \"#utility.yul\":6385:6389   */\n      0x00\n        /* \"#utility.yul\":6423:6425   */\n      0x60\n        /* \"#utility.yul\":6412:6421   */\n      dup3\n        /* \"#utility.yul\":6408:6426   */\n      add\n        /* \"#utility.yul\":6400:6426   */\n      swap1\n      pop\n        /* \"#utility.yul\":6436:6507   */\n      tag_312\n        /* \"#utility.yul\":6504:6505   */\n      0x00\n        /* \"#utility.yul\":6493:6502   */\n      dup4\n        /* \"#utility.yul\":6489:6506   */\n      add\n        /* \"#utility.yul\":6480:6486   */\n      dup7\n        /* \"#utility.yul\":6436:6507   */\n      tag_223\n      jump\t// in\n    tag_312:\n        /* \"#utility.yul\":6517:6589   */\n      tag_313\n        /* \"#utility.yul\":6585:6587   */\n      0x20\n        /* \"#utility.yul\":6574:6583   */\n      dup4\n        /* \"#utility.yul\":6570:6588   */\n      add\n        /* \"#utility.yul\":6561:6567   */\n      dup6\n        /* \"#utility.yul\":6517:6589   */\n      tag_223\n      jump\t// in\n    tag_313:\n        /* \"#utility.yul\":6599:6671   */\n      tag_314\n        /* \"#utility.yul\":6667:6669   */\n      0x40\n        /* \"#utility.yul\":6656:6665   */\n      dup4\n        /* \"#utility.yul\":6652:6670   */\n      add\n        /* \"#utility.yul\":6643:6649   */\n      dup5\n        /* \"#utility.yul\":6599:6671   */\n      tag_223\n      jump\t// in\n    tag_314:\n        /* \"#utility.yul\":6236:6678   */\n      swap5\n      swap4\n      pop\n      pop\n      pop\n      pop\n      jump\t// out\n        /* \"#utility.yul\":6684:6802   */\n    tag_224:\n        /* \"#utility.yul\":6771:6795   */\n      tag_316\n        /* \"#utility.yul\":6789:6794   */\n      dup2\n        /* \"#utility.yul\":6771:6795   */\n      tag_206\n      jump\t// in\n    tag_316:\n        /* \"#utility.yul\":6766:6769   */\n      dup3\n        /* \"#utility.yul\":6759:6796   */\n      mstore\n        /* \"#utility.yul\":6684:6802   */\n      pop\n      pop\n      jump\t// out\n        /* \"#utility.yul\":6808:7030   */\n    tag_38:\n        /* \"#utility.yul\":6901:6905   */\n      0x00\n        /* \"#utility.yul\":6939:6941   */\n      0x20\n        /* \"#utility.yul\":6928:6937   */\n      dup3\n        /* \"#utility.yul\":6924:6942   */\n      add\n        /* \"#utility.yul\":6916:6942   */\n      swap1\n      pop\n        /* \"#utility.yul\":6952:7023   */\n      tag_318\n        /* \"#utility.yul\":7020:7021   */\n      0x00\n        /* \"#utility.yul\":7009:7018   */\n      dup4\n        /* \"#utility.yul\":7005:7022   */\n      add\n        /* \"#utility.yul\":6996:7002   */\n      dup5\n        /* \"#utility.yul\":6952:7023   */\n      tag_224\n      jump\t// in\n    tag_318:\n        /* \"#utility.yul\":6808:7030   */\n      swap3\n      swap2\n      pop\n      pop\n      jump\t// out\n        /* \"#utility.yul\":7036:7176   */\n    tag_225:\n        /* \"#utility.yul\":7100:7109   */\n      0x00\n        /* \"#utility.yul\":7133:7170   */\n      tag_320\n        /* \"#utility.yul\":7164:7169   */\n      dup3\n        /* \"#utility.yul\":7133:7170   */\n      tag_220\n      jump\t// in\n    tag_320:\n        /* \"#utility.yul\":7120:7170   */\n      swap1\n      pop\n        /* \"#utility.yul\":7036:7176   */\n      swap2\n      swap1\n      pop\n      jump\t// out\n        /* \"#utility.yul\":7182:7341   */\n    tag_226:\n        /* \"#utility.yul\":7283:7334   */\n      tag_322\n        /* \"#utility.yul\":7328:7333   */\n      dup2\n        /* \"#utility.yul\":7283:7334   */\n      tag_225\n      jump\t// in\n    tag_322:\n        /* \"#utility.yul\":7278:7281   */\n      dup3\n        /* \"#utility.yul\":7271:7335   */\n      mstore\n        /* \"#utility.yul\":7182:7341   */\n      pop\n      pop\n      jump\t// out\n        /* \"#utility.yul\":7347:7597   */\n    tag_45:\n        /* \"#utility.yul\":7454:7458   */\n      0x00\n        /* \"#utility.yul\":7492:7494   */\n      0x20\n        /* \"#utility.yul\":7481:7490   */\n      dup3\n        /* \"#utility.yul\":7477:7495   */\n      add\n        /* \"#utility.yul\":7469:7495   */\n      swap1\n      pop\n        /* \"#utility.yul\":7505:7590   */\n      tag_324\n        /* \"#utility.yul\":7587:7588   */\n      0x00\n        /* \"#utility.yul\":7576:7585   */\n      dup4\n        /* \"#utility.yul\":7572:7589   */\n      add\n        /* \"#utility.yul\":7563:7569   */\n      dup5\n        /* \"#utility.yul\":7505:7590   */\n      tag_226\n      jump\t// in\n    tag_324:\n        /* \"#utility.yul\":7347:7597   */\n      swap3\n      swap2\n      pop\n      pop\n      jump\t// out\n        /* \"#utility.yul\":7603:7825   */\n    tag_50:\n        /* \"#utility.yul\":7696:7700   */\n      0x00\n        /* \"#utility.yul\":7734:7736   */\n      0x20\n        /* \"#utility.yul\":7723:7732   */\n      dup3\n        /* \"#utility.yul\":7719:7737   */\n      add\n        /* \"#utility.yul\":7711:7737   */\n      swap1\n      pop\n        /* \"#utility.yul\":7747:7818   */\n      tag_326\n        /* \"#utility.yul\":7815:7816   */\n      0x00\n        /* \"#utility.yul\":7804:7813   */\n      dup4\n        /* \"#utility.yul\":7800:7817   */\n      add\n        /* \"#utility.yul\":7791:7797   */\n      dup5\n        /* \"#utility.yul\":7747:7818   */\n      tag_223\n      jump\t// in\n    tag_326:\n        /* \"#utility.yul\":7603:7825   */\n      swap3\n      swap2\n      pop\n      pop\n      jump\t// out\n        /* \"#utility.yul\":7831:8000   */\n    tag_227:\n        /* \"#utility.yul\":7915:7926   */\n      0x00\n        /* \"#utility.yul\":7949:7955   */\n      dup3\n        /* \"#utility.yul\":7944:7947   */\n      dup3\n        /* \"#utility.yul\":7937:7956   */\n      mstore\n        /* \"#utility.yul\":7989:7993   */\n      0x20\n        /* \"#utility.yul\":7984:7987   */\n      dup3\n        /* \"#utility.yul\":7980:7994   */\n      add\n        /* \"#utility.yul\":7965:7994   */\n      swap1\n      pop\n        /* \"#utility.yul\":7831:8000   */\n      swap3\n      swap2\n      pop\n      pop\n      jump\t// out\n        /* \"#utility.yul\":8006:8181   */\n    tag_228:\n        /* \"#utility.yul\":8146:8173   */\n      0x596f752068617665206e6f20746f6b656e73207374616b656400000000000000\n        /* \"#utility.yul\":8142:8143   */\n      0x00\n        /* \"#utility.yul\":8134:8140   */\n      dup3\n        /* \"#utility.yul\":8130:8144   */\n      add\n        /* \"#utility.yul\":8123:8174   */\n      mstore\n        /* \"#utility.yul\":8006:8181   */\n      pop\n      jump\t// out\n        /* \"#utility.yul\":8187:8553   */\n    tag_229:\n        /* \"#utility.yul\":8329:8332   */\n      0x00\n        /* \"#utility.yul\":8350:8417   */\n      tag_330\n        /* \"#utility.yul\":8414:8416   */\n      0x19\n        /* \"#utility.yul\":8409:8412   */\n      dup4\n        /* \"#utility.yul\":8350:8417   */\n      tag_227\n      jump\t// in\n    tag_330:\n        /* \"#utility.yul\":8343:8417   */\n      swap2\n      pop\n        /* \"#utility.yul\":8426:8519   */\n      tag_331\n        /* \"#utility.yul\":8515:8518   */\n      dup3\n        /* \"#utility.yul\":8426:8519   */\n      tag_228\n      jump\t// in\n    tag_331:\n        /* \"#utility.yul\":8544:8546   */\n      0x20\n        /* \"#utility.yul\":8539:8542   */\n      dup3\n        /* \"#utility.yul\":8535:8547   */\n      add\n        /* \"#utility.yul\":8528:8547   */\n      swap1\n      pop\n        /* \"#utility.yul\":8187:8553   */\n      swap2\n      swap1\n      pop\n      jump\t// out\n        /* \"#utility.yul\":8559:8978   */\n    tag_57:\n        /* \"#utility.yul\":8725:8729   */\n      0x00\n        /* \"#utility.yul\":8763:8765   */\n      0x20\n        /* \"#utility.yul\":8752:8761   */\n      dup3\n        /* \"#utility.yul\":8748:8766   */\n      add\n        /* \"#utility.yul\":8740:8766   */\n      swap1\n      pop\n        /* \"#utility.yul\":8812:8821   */\n      dup2\n        /* \"#utility.yul\":8806:8810   */\n      dup2\n        /* \"#utility.yul\":8802:8822   */\n      sub\n        /* \"#utility.yul\":8798:8799   */\n      0x00\n        /* \"#utility.yul\":8787:8796   */\n      dup4\n        /* \"#utility.yul\":8783:8800   */\n      add\n        /* \"#utility.yul\":8776:8823   */\n      mstore\n        /* \"#utility.yul\":8840:8971   */\n      tag_333\n        /* \"#utility.yul\":8966:8970   */\n      dup2\n        /* \"#utility.yul\":8840:8971   */\n      tag_229\n      jump\t// in\n    tag_333:\n        /* \"#utility.yul\":8832:8971   */\n      swap1\n      pop\n        /* \"#utility.yul\":8559:8978   */\n      swap2\n      swap1\n      pop\n      jump\t// out\n        /* \"#utility.yul\":8984:9159   */\n    tag_230:\n        /* \"#utility.yul\":9124:9151   */\n      0x596f7520646f6e2774206f776e207468697320746f6b656e2100000000000000\n        /* \"#utility.yul\":9120:9121   */\n      0x00\n        /* \"#utility.yul\":9112:9118   */\n      dup3\n        /* \"#utility.yul\":9108:9122   */\n      add\n        /* \"#utility.yul\":9101:9152   */\n      mstore\n        /* \"#utility.yul\":8984:9159   */\n      pop\n      jump\t// out\n        /* \"#utility.yul\":9165:9531   */\n    tag_231:\n        /* \"#utility.yul\":9307:9310   */\n      0x00\n        /* \"#utility.yul\":9328:9395   */\n      tag_336\n        /* \"#utility.yul\":9392:9394   */\n      0x19\n        /* \"#utility.yul\":9387:9390   */\n      dup4\n        /* \"#utility.yul\":9328:9395   */\n      tag_227\n      jump\t// in\n    tag_336:\n        /* \"#utility.yul\":9321:9395   */\n      swap2\n      pop\n        /* \"#utility.yul\":9404:9497   */\n      tag_337\n        /* \"#utility.yul\":9493:9496   */\n      dup3\n        /* \"#utility.yul\":9404:9497   */\n      tag_230\n      jump\t// in\n    tag_337:\n        /* \"#utility.yul\":9522:9524   */\n      0x20\n        /* \"#utility.yul\":9517:9520   */\n      dup3\n        /* \"#utility.yul\":9513:9525   */\n      add\n        /* \"#utility.yul\":9506:9525   */\n      swap1\n      pop\n        /* \"#utility.yul\":9165:9531   */\n      swap2\n      swap1\n      pop\n      jump\t// out\n        /* \"#utility.yul\":9537:9956   */\n    tag_60:\n        /* \"#utility.yul\":9703:9707   */\n      0x00\n        /* \"#utility.yul\":9741:9743   */\n      0x20\n        /* \"#utility.yul\":9730:9739   */\n      dup3\n        /* \"#utility.yul\":9726:9744   */\n      add\n        /* \"#utility.yul\":9718:9744   */\n      swap1\n      pop\n        /* \"#utility.yul\":9790:9799   */\n      dup2\n        /* \"#utility.yul\":9784:9788   */\n      dup2\n        /* \"#utility.yul\":9780:9800   */\n      sub\n        /* \"#utility.yul\":9776:9777   */\n      0x00\n        /* \"#utility.yul\":9765:9774   */\n      dup4\n        /* \"#utility.yul\":9761:9778   */\n      add\n        /* \"#utility.yul\":9754:9801   */\n      mstore\n        /* \"#utility.yul\":9818:9949   */\n      tag_339\n        /* \"#utility.yul\":9944:9948   */\n      dup2\n        /* \"#utility.yul\":9818:9949   */\n      tag_231\n      jump\t// in\n    tag_339:\n        /* \"#utility.yul\":9810:9949   */\n      swap1\n      pop\n        /* \"#utility.yul\":9537:9956   */\n      swap2\n      swap1\n      pop\n      jump\t// out\n        /* \"#utility.yul\":9962:10142   */\n    tag_232:\n        /* \"#utility.yul\":10010:10087   */\n      0x4e487b7100000000000000000000000000000000000000000000000000000000\n        /* \"#utility.yul\":10007:10008   */\n      0x00\n        /* \"#utility.yul\":10000:10088   */\n      mstore\n        /* \"#utility.yul\":10107:10111   */\n      0x11\n        /* \"#utility.yul\":10104:10105   */\n      0x04\n        /* \"#utility.yul\":10097:10112   */\n      mstore\n        /* \"#utility.yul\":10131:10135   */\n      0x24\n        /* \"#utility.yul\":10128:10129   */\n      0x00\n        /* \"#utility.yul\":10121:10136   */\n      revert\n        /* \"#utility.yul\":10148:10339   */\n    tag_64:\n        /* \"#utility.yul\":10188:10191   */\n      0x00\n        /* \"#utility.yul\":10207:10227   */\n      tag_342\n        /* \"#utility.yul\":10225:10226   */\n      dup3\n        /* \"#utility.yul\":10207:10227   */\n      tag_202\n      jump\t// in\n    tag_342:\n        /* \"#utility.yul\":10202:10227   */\n      swap2\n      pop\n        /* \"#utility.yul\":10241:10261   */\n      tag_343\n        /* \"#utility.yul\":10259:10260   */\n      dup4\n        /* \"#utility.yul\":10241:10261   */\n      tag_202\n      jump\t// in\n    tag_343:\n        /* \"#utility.yul\":10236:10261   */\n      swap3\n      pop\n        /* \"#utility.yul\":10284:10285   */\n      dup3\n        /* \"#utility.yul\":10281:10282   */\n      dup3\n        /* \"#utility.yul\":10277:10286   */\n      add\n        /* \"#utility.yul\":10270:10286   */\n      swap1\n      pop\n        /* \"#utility.yul\":10305:10308   */\n      dup1\n        /* \"#utility.yul\":10302:10303   */\n      dup3\n        /* \"#utility.yul\":10299:10309   */\n      gt\n        /* \"#utility.yul\":10296:10332   */\n      iszero\n      tag_344\n      jumpi\n        /* \"#utility.yul\":10312:10330   */\n      tag_345\n      tag_232\n      jump\t// in\n    tag_345:\n        /* \"#utility.yul\":10296:10332   */\n    tag_344:\n        /* \"#utility.yul\":10148:10339   */\n      swap3\n      swap2\n      pop\n      pop\n      jump\t// out\n        /* \"#utility.yul\":10345:10525   */\n    tag_70:\n        /* \"#utility.yul\":10393:10470   */\n      0x4e487b7100000000000000000000000000000000000000000000000000000000\n        /* \"#utility.yul\":10390:10391   */\n      0x00\n        /* \"#utility.yul\":10383:10471   */\n      mstore\n        /* \"#utility.yul\":10490:10494   */\n      0x32\n        /* \"#utility.yul\":10487:10488   */\n      0x04\n        /* \"#utility.yul\":10480:10495   */\n      mstore\n        /* \"#utility.yul\":10514:10518   */\n      0x24\n        /* \"#utility.yul\":10511:10512   */\n      0x00\n        /* \"#utility.yul\":10504:10519   */\n      revert\n        /* \"#utility.yul\":10531:10702   */\n    tag_81:\n        /* \"#utility.yul\":10570:10573   */\n      0x00\n        /* \"#utility.yul\":10593:10617   */\n      tag_348\n        /* \"#utility.yul\":10611:10616   */\n      dup3\n        /* \"#utility.yul\":10593:10617   */\n      tag_202\n      jump\t// in\n    tag_348:\n        /* \"#utility.yul\":10584:10617   */\n      swap2\n      pop\n        /* \"#utility.yul\":10639:10643   */\n      0x00\n        /* \"#utility.yul\":10632:10637   */\n      dup3\n        /* \"#utility.yul\":10629:10644   */\n      sub\n        /* \"#utility.yul\":10626:10667   */\n      tag_349\n      jumpi\n        /* \"#utility.yul\":10647:10665   */\n      tag_350\n      tag_232\n      jump\t// in\n    tag_350:\n        /* \"#utility.yul\":10626:10667   */\n    tag_349:\n        /* \"#utility.yul\":10694:10695   */\n      0x01\n        /* \"#utility.yul\":10687:10692   */\n      dup3\n        /* \"#utility.yul\":10683:10696   */\n      sub\n        /* \"#utility.yul\":10676:10696   */\n      swap1\n      pop\n        /* \"#utility.yul\":10531:10702   */\n      swap2\n      swap1\n      pop\n      jump\t// out\n        /* \"#utility.yul\":10708:11150   */\n    tag_83:\n        /* \"#utility.yul\":10857:10861   */\n      0x00\n        /* \"#utility.yul\":10895:10897   */\n      0x60\n        /* \"#utility.yul\":10884:10893   */\n      dup3\n        /* \"#utility.yul\":10880:10898   */\n      add\n        /* \"#utility.yul\":10872:10898   */\n      swap1\n      pop\n        /* \"#utility.yul\":10908:10979   */\n      tag_352\n        /* \"#utility.yul\":10976:10977   */\n      0x00\n        /* \"#utility.yul\":10965:10974   */\n      dup4\n        /* \"#utility.yul\":10961:10978   */\n      add\n        /* \"#utility.yul\":10952:10958   */\n      dup7\n        /* \"#utility.yul\":10908:10979   */\n      tag_224\n      jump\t// in\n    tag_352:\n        /* \"#utility.yul\":10989:11061   */\n      tag_353\n        /* \"#utility.yul\":11057:11059   */\n      0x20\n        /* \"#utility.yul\":11046:11055   */\n      dup4\n        /* \"#utility.yul\":11042:11060   */\n      add\n        /* \"#utility.yul\":11033:11039   */\n      dup6\n        /* \"#utility.yul\":10989:11061   */\n      tag_224\n      jump\t// in\n    tag_353:\n        /* \"#utility.yul\":11071:11143   */\n      tag_354\n        /* \"#utility.yul\":11139:11141   */\n      0x40\n        /* \"#utility.yul\":11128:11137   */\n      dup4\n        /* \"#utility.yul\":11124:11142   */\n      add\n        /* \"#utility.yul\":11115:11121   */\n      dup5\n        /* \"#utility.yul\":11071:11143   */\n      tag_223\n      jump\t// in\n    tag_354:\n        /* \"#utility.yul\":10708:11150   */\n      swap5\n      swap4\n      pop\n      pop\n      pop\n      pop\n      jump\t// out\n        /* \"#utility.yul\":11156:11334   */\n    tag_233:\n        /* \"#utility.yul\":11296:11326   */\n      0x596f752068617665206e6f207265776172647320746f20636c61696d00000000\n        /* \"#utility.yul\":11292:11293   */\n      0x00\n        /* \"#utility.yul\":11284:11290   */\n      dup3\n        /* \"#utility.yul\":11280:11294   */\n      add\n        /* \"#utility.yul\":11273:11327   */\n      mstore\n        /* \"#utility.yul\":11156:11334   */\n      pop\n      jump\t// out\n        /* \"#utility.yul\":11340:11706   */\n    tag_234:\n        /* \"#utility.yul\":11482:11485   */\n      0x00\n        /* \"#utility.yul\":11503:11570   */\n      tag_357\n        /* \"#utility.yul\":11567:11569   */\n      0x1c\n        /* \"#utility.yul\":11562:11565   */\n      dup4\n        /* \"#utility.yul\":11503:11570   */\n      tag_227\n      jump\t// in\n    tag_357:\n        /* \"#utility.yul\":11496:11570   */\n      swap2\n      pop\n        /* \"#utility.yul\":11579:11672   */\n      tag_358\n        /* \"#utility.yul\":11668:11671   */\n      dup3\n        /* \"#utility.yul\":11579:11672   */\n      tag_233\n      jump\t// in\n    tag_358:\n        /* \"#utility.yul\":11697:11699   */\n      0x20\n        /* \"#utility.yul\":11692:11695   */\n      dup3\n        /* \"#utility.yul\":11688:11700   */\n      add\n        /* \"#utility.yul\":11681:11700   */\n      swap1\n      pop\n        /* \"#utility.yul\":11340:11706   */\n      swap2\n      swap1\n      pop\n      jump\t// out\n        /* \"#utility.yul\":11712:12131   */\n    tag_94:\n        /* \"#utility.yul\":11878:11882   */\n      0x00\n        /* \"#utility.yul\":11916:11918   */\n      0x20\n        /* \"#utility.yul\":11905:11914   */\n      dup3\n        /* \"#utility.yul\":11901:11919   */\n      add\n        /* \"#utility.yul\":11893:11919   */\n      swap1\n      pop\n        /* \"#utility.yul\":11965:11974   */\n      dup2\n        /* \"#utility.yul\":11959:11963   */\n      dup2\n        /* \"#utility.yul\":11955:11975   */\n      sub\n        /* \"#utility.yul\":11951:11952   */\n      0x00\n        /* \"#utility.yul\":11940:11949   */\n      dup4\n        /* \"#utility.yul\":11936:11953   */\n      add\n        /* \"#utility.yul\":11929:11976   */\n      mstore\n        /* \"#utility.yul\":11993:12124   */\n      tag_360\n        /* \"#utility.yul\":12119:12123   */\n      dup2\n        /* \"#utility.yul\":11993:12124   */\n      tag_234\n      jump\t// in\n    tag_360:\n        /* \"#utility.yul\":11985:12124   */\n      swap1\n      pop\n        /* \"#utility.yul\":11712:12131   */\n      swap2\n      swap1\n      pop\n      jump\t// out\n        /* \"#utility.yul\":12137:12317   */\n    tag_101:\n        /* \"#utility.yul\":12185:12262   */\n      0x4e487b7100000000000000000000000000000000000000000000000000000000\n        /* \"#utility.yul\":12182:12183   */\n      0x00\n        /* \"#utility.yul\":12175:12263   */\n      mstore\n        /* \"#utility.yul\":12282:12286   */\n      0x41\n        /* \"#utility.yul\":12279:12280   */\n      0x04\n        /* \"#utility.yul\":12272:12287   */\n      mstore\n        /* \"#utility.yul\":12306:12310   */\n      0x24\n        /* \"#utility.yul\":12303:12304   */\n      0x00\n        /* \"#utility.yul\":12296:12311   */\n      revert\n        /* \"#utility.yul\":12323:12556   */\n    tag_119:\n        /* \"#utility.yul\":12362:12365   */\n      0x00\n        /* \"#utility.yul\":12385:12409   */\n      tag_363\n        /* \"#utility.yul\":12403:12408   */\n      dup3\n        /* \"#utility.yul\":12385:12409   */\n      tag_202\n      jump\t// in\n    tag_363:\n        /* \"#utility.yul\":12376:12409   */\n      swap2\n      pop\n        /* \"#utility.yul\":12431:12497   */\n      0xffffffffffffffffffffffffffffffffffffffffffffffffffffffffffffffff\n        /* \"#utility.yul\":12424:12429   */\n      dup3\n        /* \"#utility.yul\":12421:12498   */\n      sub\n        /* \"#utility.yul\":12418:12521   */\n      tag_364\n      jumpi\n        /* \"#utility.yul\":12501:12519   */\n      tag_365\n      tag_232\n      jump\t// in\n    tag_365:\n        /* \"#utility.yul\":12418:12521   */\n    tag_364:\n        /* \"#utility.yul\":12548:12549   */\n      0x01\n        /* \"#utility.yul\":12541:12546   */\n      dup3\n        /* \"#utility.yul\":12537:12550   */\n      add\n        /* \"#utility.yul\":12530:12550   */\n      swap1\n      pop\n        /* \"#utility.yul\":12323:12556   */\n      swap2\n      swap1\n      pop\n      jump\t// out\n        /* \"#utility.yul\":12562:12705   */\n    tag_235:\n        /* \"#utility.yul\":12619:12624   */\n      0x00\n        /* \"#utility.yul\":12650:12656   */\n      dup2\n        /* \"#utility.yul\":12644:12657   */\n      mload\n        /* \"#utility.yul\":12635:12657   */\n      swap1\n      pop\n        /* \"#utility.yul\":12666:12699   */\n      tag_367\n        /* \"#utility.yul\":12693:12698   */\n      dup2\n        /* \"#utility.yul\":12666:12699   */\n      tag_207\n      jump\t// in\n    tag_367:\n        /* \"#utility.yul\":12562:12705   */\n      swap3\n      swap2\n      pop\n      pop\n      jump\t// out\n        /* \"#utility.yul\":12711:13062   */\n    tag_136:\n        /* \"#utility.yul\":12781:12787   */\n      0x00\n        /* \"#utility.yul\":12830:12832   */\n      0x20\n        /* \"#utility.yul\":12818:12827   */\n      dup3\n        /* \"#utility.yul\":12809:12816   */\n      dup5\n        /* \"#utility.yul\":12805:12828   */\n      sub\n        /* \"#utility.yul\":12801:12833   */\n      slt\n        /* \"#utility.yul\":12798:12917   */\n      iszero\n      tag_369\n      jumpi\n        /* \"#utility.yul\":12836:12915   */\n      tag_370\n      tag_200\n      jump\t// in\n    tag_370:\n        /* \"#utility.yul\":12798:12917   */\n    tag_369:\n        /* \"#utility.yul\":12956:12957   */\n      0x00\n        /* \"#utility.yul\":12981:13045   */\n      tag_371\n        /* \"#utility.yul\":13037:13044   */\n      dup5\n        /* \"#utility.yul\":13028:13034   */\n      dup3\n        /* \"#utility.yul\":13017:13026   */\n      dup6\n        /* \"#utility.yul\":13013:13035   */\n      add\n        /* \"#utility.yul\":12981:13045   */\n      tag_235\n      jump\t// in\n    tag_371:\n        /* \"#utility.yul\":12971:13045   */\n      swap2\n      pop\n        /* \"#utility.yul\":12927:13055   */\n      pop\n        /* \"#utility.yul\":12711:13062   */\n      swap3\n      swap2\n      pop\n      pop\n      jump\t// out\n        /* \"#utility.yul\":13068:13249   */\n    tag_236:\n        /* \"#utility.yul\":13208:13241   */\n      0x5265656e7472616e637947756172643a207265656e7472616e742063616c6c00\n        /* \"#utility.yul\":13204:13205   */\n      0x00\n        /* \"#utility.yul\":13196:13202   */\n      dup3\n        /* \"#utility.yul\":13192:13206   */\n      add\n        /* \"#utility.yul\":13185:13242   */\n      mstore\n        /* \"#utility.yul\":13068:13249   */\n      pop\n      jump\t// out\n        /* \"#utility.yul\":13255:13621   */\n    tag_237:\n        /* \"#utility.yul\":13397:13400   */\n      0x00\n        /* \"#utility.yul\":13418:13485   */\n      tag_374\n        /* \"#utility.yul\":13482:13484   */\n      0x1f\n        /* \"#utility.yul\":13477:13480   */\n      dup4\n        /* \"#utility.yul\":13418:13485   */\n      tag_227\n      jump\t// in\n    tag_374:\n        /* \"#utility.yul\":13411:13485   */\n      swap2\n      pop\n        /* \"#utility.yul\":13494:13587   */\n      tag_375\n        /* \"#utility.yul\":13583:13586   */\n      dup3\n        /* \"#utility.yul\":13494:13587   */\n      tag_236\n      jump\t// in\n    tag_375:\n        /* \"#utility.yul\":13612:13614   */\n      0x20\n        /* \"#utility.yul\":13607:13610   */\n      dup3\n        /* \"#utility.yul\":13603:13615   */\n      add\n        /* \"#utility.yul\":13596:13615   */\n      swap1\n      pop\n        /* \"#utility.yul\":13255:13621   */\n      swap2\n      swap1\n      pop\n      jump\t// out\n        /* \"#utility.yul\":13627:14046   */\n    tag_152:\n        /* \"#utility.yul\":13793:13797   */\n      0x00\n        /* \"#utility.yul\":13831:13833   */\n      0x20\n        /* \"#utility.yul\":13820:13829   */\n      dup3\n        /* \"#utility.yul\":13816:13834   */\n      add\n        /* \"#utility.yul\":13808:13834   */\n      swap1\n      pop\n        /* \"#utility.yul\":13880:13889   */\n      dup2\n        /* \"#utility.yul\":13874:13878   */\n      dup2\n        /* \"#utility.yul\":13870:13890   */\n      sub\n        /* \"#utility.yul\":13866:13867   */\n      0x00\n        /* \"#utility.yul\":13855:13864   */\n      dup4\n        /* \"#utility.yul\":13851:13868   */\n      add\n        /* \"#utility.yul\":13844:13891   */\n      mstore\n        /* \"#utility.yul\":13908:14039   */\n      tag_377\n        /* \"#utility.yul\":14034:14038   */\n      dup2\n        /* \"#utility.yul\":13908:14039   */\n      tag_237\n      jump\t// in\n    tag_377:\n        /* \"#utility.yul\":13900:14039   */\n      swap1\n      pop\n        /* \"#utility.yul\":13627:14046   */\n      swap2\n      swap1\n      pop\n      jump\t// out\n        /* \"#utility.yul\":14052:14246   */\n    tag_155:\n        /* \"#utility.yul\":14092:14096   */\n      0x00\n        /* \"#utility.yul\":14112:14132   */\n      tag_379\n        /* \"#utility.yul\":14130:14131   */\n      dup3\n        /* \"#utility.yul\":14112:14132   */\n      tag_202\n      jump\t// in\n    tag_379:\n        /* \"#utility.yul\":14107:14132   */\n      swap2\n      pop\n        /* \"#utility.yul\":14146:14166   */\n      tag_380\n        /* \"#utility.yul\":14164:14165   */\n      dup4\n        /* \"#utility.yul\":14146:14166   */\n      tag_202\n      jump\t// in\n    tag_380:\n        /* \"#utility.yul\":14141:14166   */\n      swap3\n      pop\n        /* \"#utility.yul\":14190:14191   */\n      dup3\n        /* \"#utility.yul\":14187:14188   */\n      dup3\n        /* \"#utility.yul\":14183:14192   */\n      sub\n        /* \"#utility.yul\":14175:14192   */\n      swap1\n      pop\n        /* \"#utility.yul\":14214:14215   */\n      dup2\n        /* \"#utility.yul\":14208:14212   */\n      dup2\n        /* \"#utility.yul\":14205:14216   */\n      gt\n        /* \"#utility.yul\":14202:14239   */\n      iszero\n      tag_381\n      jumpi\n        /* \"#utility.yul\":14219:14237   */\n      tag_382\n      tag_232\n      jump\t// in\n    tag_382:\n        /* \"#utility.yul\":14202:14239   */\n    tag_381:\n        /* \"#utility.yul\":14052:14246   */\n      swap3\n      swap2\n      pop\n      pop\n      jump\t// out\n        /* \"#utility.yul\":14252:14662   */\n    tag_157:\n        /* \"#utility.yul\":14292:14299   */\n      0x00\n        /* \"#utility.yul\":14315:14335   */\n      tag_384\n        /* \"#utility.yul\":14333:14334   */\n      dup3\n        /* \"#utility.yul\":14315:14335   */\n      tag_202\n      jump\t// in\n    tag_384:\n        /* \"#utility.yul\":14310:14335   */\n      swap2\n      pop\n        /* \"#utility.yul\":14349:14369   */\n      tag_385\n        /* \"#utility.yul\":14367:14368   */\n      dup4\n        /* \"#utility.yul\":14349:14369   */\n      tag_202\n      jump\t// in\n    tag_385:\n        /* \"#utility.yul\":14344:14369   */\n      swap3\n      pop\n        /* \"#utility.yul\":14404:14405   */\n      dup3\n        /* \"#utility.yul\":14401:14402   */\n      dup3\n        /* \"#utility.yul\":14397:14406   */\n      mul\n        /* \"#utility.yul\":14426:14456   */\n      tag_386\n        /* \"#utility.yul\":14444:14455   */\n      dup2\n        /* \"#utility.yul\":14426:14456   */\n      tag_202\n      jump\t// in\n    tag_386:\n        /* \"#utility.yul\":14415:14456   */\n      swap2\n      pop\n        /* \"#utility.yul\":14605:14606   */\n      dup3\n        /* \"#utility.yul\":14596:14603   */\n      dup3\n        /* \"#utility.yul\":14592:14607   */\n      div\n        /* \"#utility.yul\":14589:14590   */\n      dup5\n        /* \"#utility.yul\":14586:14608   */\n      eq\n        /* \"#utility.yul\":14566:14567   */\n      dup4\n        /* \"#utility.yul\":14559:14568   */\n      iszero\n        /* \"#utility.yul\":14539:14622   */\n      or\n        /* \"#utility.yul\":14516:14655   */\n      tag_387\n      jumpi\n        /* \"#utility.yul\":14635:14653   */\n      tag_388\n      tag_232\n      jump\t// in\n    tag_388:\n        /* \"#utility.yul\":14516:14655   */\n    tag_387:\n        /* \"#utility.yul\":14300:14662   */\n      pop\n        /* \"#utility.yul\":14252:14662   */\n      swap3\n      swap2\n      pop\n      pop\n      jump\t// out\n        /* \"#utility.yul\":14668:14848   */\n    tag_238:\n        /* \"#utility.yul\":14716:14793   */\n      0x4e487b7100000000000000000000000000000000000000000000000000000000\n        /* \"#utility.yul\":14713:14714   */\n      0x00\n        /* \"#utility.yul\":14706:14794   */\n      mstore\n        /* \"#utility.yul\":14813:14817   */\n      0x12\n        /* \"#utility.yul\":14810:14811   */\n      0x04\n        /* \"#utility.yul\":14803:14818   */\n      mstore\n        /* \"#utility.yul\":14837:14841   */\n      0x24\n        /* \"#utility.yul\":14834:14835   */\n      0x00\n        /* \"#utility.yul\":14827:14842   */\n      revert\n        /* \"#utility.yul\":14854:15039   */\n    tag_160:\n        /* \"#utility.yul\":14894:14895   */\n      0x00\n        /* \"#utility.yul\":14911:14931   */\n      tag_391\n        /* \"#utility.yul\":14929:14930   */\n      dup3\n        /* \"#utility.yul\":14911:14931   */\n      tag_202\n      jump\t// in\n    tag_391:\n        /* \"#utility.yul\":14906:14931   */\n      swap2\n      pop\n        /* \"#utility.yul\":14945:14965   */\n      tag_392\n        /* \"#utility.yul\":14963:14964   */\n      dup4\n        /* \"#utility.yul\":14945:14965   */\n      tag_202\n      jump\t// in\n    tag_392:\n        /* \"#utility.yul\":14940:14965   */\n      swap3\n      pop\n        /* \"#utility.yul\":14984:14985   */\n      dup3\n        /* \"#utility.yul\":14974:15009   */\n      tag_393\n      jumpi\n        /* \"#utility.yul\":14989:15007   */\n      tag_394\n      tag_238\n      jump\t// in\n    tag_394:\n        /* \"#utility.yul\":14974:15009   */\n    tag_393:\n        /* \"#utility.yul\":15031:15032   */\n      dup3\n        /* \"#utility.yul\":15028:15029   */\n      dup3\n        /* \"#utility.yul\":15024:15033   */\n      div\n        /* \"#utility.yul\":15019:15033   */\n      swap1\n      pop\n        /* \"#utility.yul\":14854:15039   */\n      swap3\n      swap2\n      pop\n      pop\n      jump\t// out\n        /* \"#utility.yul\":15045:15377   */\n    tag_165:\n        /* \"#utility.yul\":15166:15170   */\n      0x00\n        /* \"#utility.yul\":15204:15206   */\n      0x40\n        /* \"#utility.yul\":15193:15202   */\n      dup3\n        /* \"#utility.yul\":15189:15207   */\n      add\n        /* \"#utility.yul\":15181:15207   */\n      swap1\n      pop\n        /* \"#utility.yul\":15217:15288   */\n      tag_396\n        /* \"#utility.yul\":15285:15286   */\n      0x00\n        /* \"#utility.yul\":15274:15283   */\n      dup4\n        /* \"#utility.yul\":15270:15287   */\n      add\n        /* \"#utility.yul\":15261:15267   */\n      dup6\n        /* \"#utility.yul\":15217:15288   */\n      tag_224\n      jump\t// in\n    tag_396:\n        /* \"#utility.yul\":15298:15370   */\n      tag_397\n        /* \"#utility.yul\":15366:15368   */\n      0x20\n        /* \"#utility.yul\":15355:15364   */\n      dup4\n        /* \"#utility.yul\":15351:15369   */\n      add\n        /* \"#utility.yul\":15342:15348   */\n      dup5\n        /* \"#utility.yul\":15298:15370   */\n      tag_223\n      jump\t// in\n    tag_397:\n        /* \"#utility.yul\":15045:15377   */\n      swap4\n      swap3\n      pop\n      pop\n      pop\n      jump\t// out\n        /* \"#utility.yul\":15383:15473   */\n    tag_239:\n        /* \"#utility.yul\":15417:15424   */\n      0x00\n        /* \"#utility.yul\":15460:15465   */\n      dup2\n        /* \"#utility.yul\":15453:15466   */\n      iszero\n        /* \"#utility.yul\":15446:15467   */\n      iszero\n        /* \"#utility.yul\":15435:15467   */\n      swap1\n      pop\n        /* \"#utility.yul\":15383:15473   */\n      swap2\n      swap1\n      pop\n      jump\t// out\n        /* \"#utility.yul\":15479:15595   */\n    tag_240:\n        /* \"#utility.yul\":15549:15570   */\n      tag_400\n        /* \"#utility.yul\":15564:15569   */\n      dup2\n        /* \"#utility.yul\":15549:15570   */\n      tag_239\n      jump\t// in\n    tag_400:\n        /* \"#utility.yul\":15542:15547   */\n      dup2\n        /* \"#utility.yul\":15539:15571   */\n      eq\n        /* \"#utility.yul\":15529:15589   */\n      tag_401\n      jumpi\n        /* \"#utility.yul\":15585:15586   */\n      0x00\n        /* \"#utility.yul\":15582:15583   */\n      dup1\n        /* \"#utility.yul\":15575:15587   */\n      revert\n        /* \"#utility.yul\":15529:15589   */\n    tag_401:\n        /* \"#utility.yul\":15479:15595   */\n      pop\n      jump\t// out\n        /* \"#utility.yul\":15601:15738   */\n    tag_241:\n        /* \"#utility.yul\":15655:15660   */\n      0x00\n        /* \"#utility.yul\":15686:15692   */\n      dup2\n        /* \"#utility.yul\":15680:15693   */\n      mload\n        /* \"#utility.yul\":15671:15693   */\n      swap1\n      pop\n        /* \"#utility.yul\":15702:15732   */\n      tag_403\n        /* \"#utility.yul\":15726:15731   */\n      dup2\n        /* \"#utility.yul\":15702:15732   */\n      tag_240\n      jump\t// in\n    tag_403:\n        /* \"#utility.yul\":15601:15738   */\n      swap3\n      swap2\n      pop\n      pop\n      jump\t// out\n        /* \"#utility.yul\":15744:16089   */\n    tag_172:\n        /* \"#utility.yul\":15811:15817   */\n      0x00\n        /* \"#utility.yul\":15860:15862   */\n      0x20\n        /* \"#utility.yul\":15848:15857   */\n      dup3\n        /* \"#utility.yul\":15839:15846   */\n      dup5\n        /* \"#utility.yul\":15835:15858   */\n      sub\n        /* \"#utility.yul\":15831:15863   */\n      slt\n        /* \"#utility.yul\":15828:15947   */\n      iszero\n      tag_405\n      jumpi\n        /* \"#utility.yul\":15866:15945   */\n      tag_406\n      tag_200\n      jump\t// in\n    tag_406:\n        /* \"#utility.yul\":15828:15947   */\n    tag_405:\n        /* \"#utility.yul\":15986:15987   */\n      0x00\n        /* \"#utility.yul\":16011:16072   */\n      tag_407\n        /* \"#utility.yul\":16064:16071   */\n      dup5\n        /* \"#utility.yul\":16055:16061   */\n      dup3\n        /* \"#utility.yul\":16044:16053   */\n      dup6\n        /* \"#utility.yul\":16040:16062   */\n      add\n        /* \"#utility.yul\":16011:16072   */\n      tag_241\n      jump\t// in\n    tag_407:\n        /* \"#utility.yul\":16001:16072   */\n      swap2\n      pop\n        /* \"#utility.yul\":15957:16082   */\n      pop\n        /* \"#utility.yul\":15744:16089   */\n      swap3\n      swap2\n      pop\n      pop\n      jump\t// out\n        /* \"#utility.yul\":16095:16193   */\n    tag_242:\n        /* \"#utility.yul\":16146:16152   */\n      0x00\n        /* \"#utility.yul\":16180:16185   */\n      dup2\n        /* \"#utility.yul\":16174:16186   */\n      mload\n        /* \"#utility.yul\":16164:16186   */\n      swap1\n      pop\n        /* \"#utility.yul\":16095:16193   */\n      swap2\n      swap1\n      pop\n      jump\t// out\n        /* \"#utility.yul\":16199:16346   */\n    tag_243:\n        /* \"#utility.yul\":16300:16311   */\n      0x00\n        /* \"#utility.yul\":16337:16340   */\n      dup2\n        /* \"#utility.yul\":16322:16340   */\n      swap1\n      pop\n        /* \"#utility.yul\":16199:16346   */\n      swap3\n      swap2\n      pop\n      pop\n      jump\t// out\n        /* \"#utility.yul\":16352:16598   */\n    tag_244:\n        /* \"#utility.yul\":16433:16434   */\n      0x00\n        /* \"#utility.yul\":16443:16556   */\n    tag_411:\n        /* \"#utility.yul\":16457:16463   */\n      dup4\n        /* \"#utility.yul\":16454:16455   */\n      dup2\n        /* \"#utility.yul\":16451:16464   */\n      lt\n        /* \"#utility.yul\":16443:16556   */\n      iszero\n      tag_413\n      jumpi\n        /* \"#utility.yul\":16542:16543   */\n      dup1\n        /* \"#utility.yul\":16537:16540   */\n      dup3\n        /* \"#utility.yul\":16533:16544   */\n      add\n        /* \"#utility.yul\":16527:16545   */\n      mload\n        /* \"#utility.yul\":16523:16524   */\n      dup2\n        /* \"#utility.yul\":16518:16521   */\n      dup5\n        /* \"#utility.yul\":16514:16525   */\n      add\n        /* \"#utility.yul\":16507:16546   */\n      mstore\n        /* \"#utility.yul\":16479:16481   */\n      0x20\n        /* \"#utility.yul\":16476:16477   */\n      dup2\n        /* \"#utility.yul\":16472:16482   */\n      add\n        /* \"#utility.yul\":16467:16482   */\n      swap1\n      pop\n        /* \"#utility.yul\":16443:16556   */\n      jump(tag_411)\n    tag_413:\n        /* \"#utility.yul\":16590:16591   */\n      0x00\n        /* \"#utility.yul\":16581:16587   */\n      dup5\n        /* \"#utility.yul\":16576:16579   */\n      dup5\n        /* \"#utility.yul\":16572:16588   */\n      add\n        /* \"#utility.yul\":16565:16592   */\n      mstore\n        /* \"#utility.yul\":16414:16598   */\n      pop\n        /* \"#utility.yul\":16352:16598   */\n      pop\n      pop\n      pop\n      jump\t// out\n        /* \"#utility.yul\":16604:16990   */\n    tag_245:\n        /* \"#utility.yul\":16708:16711   */\n      0x00\n        /* \"#utility.yul\":16736:16774   */\n      tag_415\n        /* \"#utility.yul\":16768:16773   */\n      dup3\n        /* \"#utility.yul\":16736:16774   */\n      tag_242\n      jump\t// in\n    tag_415:\n        /* \"#utility.yul\":16790:16878   */\n      tag_416\n        /* \"#utility.yul\":16871:16877   */\n      dup2\n        /* \"#utility.yul\":16866:16869   */\n      dup6\n        /* \"#utility.yul\":16790:16878   */\n      tag_243\n      jump\t// in\n    tag_416:\n        /* \"#utility.yul\":16783:16878   */\n      swap4\n      pop\n        /* \"#utility.yul\":16887:16952   */\n      tag_417\n        /* \"#utility.yul\":16945:16951   */\n      dup2\n        /* \"#utility.yul\":16940:16943   */\n      dup6\n        /* \"#utility.yul\":16933:16937   */\n      0x20\n        /* \"#utility.yul\":16926:16931   */\n      dup7\n        /* \"#utility.yul\":16922:16938   */\n      add\n        /* \"#utility.yul\":16887:16952   */\n      tag_244\n      jump\t// in\n    tag_417:\n        /* \"#utility.yul\":16977:16983   */\n      dup1\n        /* \"#utility.yul\":16972:16975   */\n      dup5\n        /* \"#utility.yul\":16968:16984   */\n      add\n        /* \"#utility.yul\":16961:16984   */\n      swap2\n      pop\n        /* \"#utility.yul\":16712:16990   */\n      pop\n        /* \"#utility.yul\":16604:16990   */\n      swap3\n      swap2\n      pop\n      pop\n      jump\t// out\n        /* \"#utility.yul\":16996:17267   */\n    tag_182:\n        /* \"#utility.yul\":17126:17129   */\n      0x00\n        /* \"#utility.yul\":17148:17241   */\n      tag_419\n        /* \"#utility.yul\":17237:17240   */\n      dup3\n        /* \"#utility.yul\":17228:17234   */\n      dup5\n        /* \"#utility.yul\":17148:17241   */\n      tag_245\n      jump\t// in\n    tag_419:\n        /* \"#utility.yul\":17141:17241   */\n      swap2\n      pop\n        /* \"#utility.yul\":17258:17261   */\n      dup2\n        /* \"#utility.yul\":17251:17261   */\n      swap1\n      pop\n        /* \"#utility.yul\":16996:17267   */\n      swap3\n      swap2\n      pop\n      pop\n      jump\t// out\n\n    auxdata: 0xa2646970667358221220be0b697aac71e3188c0985d7f5c31f802e52675e8521935fec264a41d6090a0b64736f6c63430008160033\n}\n",
				"bytecode": {
					"linkReferences": {},
					"object": "60c060405261271060015534801562000016575f80fd5b5060405162001f4838038062001f4883398181016040528101906200003c91906200016d565b60015f819055508173ffffffffffffffffffffffffffffffffffffffff1660a08173ffffffffffffffffffffffffffffffffffffffff16815250508073ffffffffffffffffffffffffffffffffffffffff1660808173ffffffffffffffffffffffffffffffffffffffff16815250505050620001b2565b5f80fd5b5f73ffffffffffffffffffffffffffffffffffffffff82169050919050565b5f620000e282620000b7565b9050919050565b5f620000f582620000d6565b9050919050565b6200010781620000e9565b811462000112575f80fd5b50565b5f815190506200012581620000fc565b92915050565b5f6200013782620000d6565b9050919050565b62000149816200012b565b811462000154575f80fd5b50565b5f8151905062000167816200013e565b92915050565b5f8060408385031215620001865762000185620000b3565b5b5f620001958582860162000115565b9250506020620001a88582860162000157565b9150509250929050565b60805160a051611d58620001f05f395f818161062501528181610bb901528181610cfd0152610deb01525f8181610829015261104e0152611d585ff3fe608060405234801561000f575f80fd5b5060043610610091575f3560e01c80639168ae72116100645780639168ae7214610109578063940670451461013b578063a694fc3a1461016b578063d1af0c7d14610187578063f854a27f146101a557610091565b80632e1a7d4d14610095578063372500ab146100b157806363c28db1146100bb5780636588103b146100eb575b5f80fd5b6100af60048036038101906100aa9190611507565b6101d5565b005b6100b96106ff565b005b6100d560048036038101906100d0919061158c565b610870565b6040516100e291906116aa565b60405180910390f35b6100f3610bb7565b6040516101009190611725565b60405180910390f35b610123600480360381019061011e919061158c565b610bdb565b6040516101329392919061174d565b60405180910390f35b61015560048036038101906101509190611507565b610c01565b6040516101629190611791565b60405180910390f35b61018560048036038101906101809190611507565b610c31565b005b61018f61104c565b60405161019c91906117ca565b60405180910390f35b6101bf60048036038101906101ba919061158c565b611070565b6040516101cc91906117e3565b60405180910390f35b6101dd6110d1565b5f60025f3373ffffffffffffffffffffffffffffffffffffffff1673ffffffffffffffffffffffffffffffffffffffff1681526020019081526020015f205f01541161025e576040517f08c379a000000000000000000000000000000000000000000000000000000000815260040161025590611856565b60405180910390fd5b3373ffffffffffffffffffffffffffffffffffffffff1660035f8381526020019081526020015f205f9054906101000a900473ffffffffffffffffffffffffffffffffffffffff1673ffffffffffffffffffffffffffffffffffffffff16146102fc576040517f08c379a00000000000000000000000000000000000000000000000000000000081526004016102f3906118be565b60405180910390fd5b5f6103063361111e565b90508060025f3373ffffffffffffffffffffffffffffffffffffffff1673ffffffffffffffffffffffffffffffffffffffff1681526020019081526020015f206003015f8282546103579190611909565b925050819055505f805b60025f3373ffffffffffffffffffffffffffffffffffffffff1673ffffffffffffffffffffffffffffffffffffffff1681526020019081526020015f20600101805490508110156104e1578360025f3373ffffffffffffffffffffffffffffffffffffffff1673ffffffffffffffffffffffffffffffffffffffff1681526020019081526020015f2060010182815481106103ff576103fe61193c565b5b905f5260205f209060020201600101541480156104c757505f73ffffffffffffffffffffffffffffffffffffffff1660025f3373ffffffffffffffffffffffffffffffffffffffff1673ffffffffffffffffffffffffffffffffffffffff1681526020019081526020015f2060010182815481106104805761047f61193c565b5b905f5260205f2090600202015f015f9054906101000a900473ffffffffffffffffffffffffffffffffffffffff1673ffffffffffffffffffffffffffffffffffffffff1614155b156104d4578091506104e1565b8080600101915050610361565b505f60025f3373ffffffffffffffffffffffffffffffffffffffff1673ffffffffffffffffffffffffffffffffffffffff1681526020019081526020015f2060010182815481106105355761053461193c565b5b905f5260205f2090600202015f015f6101000a81548173ffffffffffffffffffffffffffffffffffffffff021916908373ffffffffffffffffffffffffffffffffffffffff16021790555060025f3373ffffffffffffffffffffffffffffffffffffffff1673ffffffffffffffffffffffffffffffffffffffff1681526020019081526020015f205f015f8154809291906105cf90611969565b91905055505f60035f8581526020019081526020015f205f6101000a81548173ffffffffffffffffffffffffffffffffffffffff021916908373ffffffffffffffffffffffffffffffffffffffff1602179055507f000000000000000000000000000000000000000000000000000000000000000073ffffffffffffffffffffffffffffffffffffffff166323b872dd3033866040518463ffffffff1660e01b815260040161068093929190611990565b5f604051808303815f87803b158015610697575f80fd5b505af11580156106a9573d5f803e3d5ffd5b505050504260025f3373ffffffffffffffffffffffffffffffffffffffff1673ffffffffffffffffffffffffffffffffffffffff1681526020019081526020015f206002018190555050506106fc6111d6565b50565b5f60025f3373ffffffffffffffffffffffffffffffffffffffff1673ffffffffffffffffffffffffffffffffffffffff1681526020019081526020015f206003015461074a3361111e565b6107549190611909565b90505f8111610798576040517f08c379a000000000000000000000000000000000000000000000000000000000815260040161078f90611a0f565b60405180910390fd5b4260025f3373ffffffffffffffffffffffffffffffffffffffff1673ffffffffffffffffffffffffffffffffffffffff1681526020019081526020015f20600201819055505f60025f3373ffffffffffffffffffffffffffffffffffffffff1673ffffffffffffffffffffffffffffffffffffffff1681526020019081526020015f206003018190555061086d33827f000000000000000000000000000000000000000000000000000000000000000073ffffffffffffffffffffffffffffffffffffffff166111df9092919063ffffffff16565b50565b60605f60025f8473ffffffffffffffffffffffffffffffffffffffff1673ffffffffffffffffffffffffffffffffffffffff1681526020019081526020015f205f01541115610b5b575f60025f8473ffffffffffffffffffffffffffffffffffffffff1673ffffffffffffffffffffffffffffffffffffffff1681526020019081526020015f205f015467ffffffffffffffff81111561091357610912611a2d565b5b60405190808252806020026020018201604052801561094c57816020015b6109396114a2565b8152602001906001900390816109315790505b5090505f805b60025f8673ffffffffffffffffffffffffffffffffffffffff1673ffffffffffffffffffffffffffffffffffffffff1681526020019081526020015f2060010180549050811015610b50575f73ffffffffffffffffffffffffffffffffffffffff1660025f8773ffffffffffffffffffffffffffffffffffffffff1673ffffffffffffffffffffffffffffffffffffffff1681526020019081526020015f206001018281548110610a0657610a0561193c565b5b905f5260205f2090600202015f015f9054906101000a900473ffffffffffffffffffffffffffffffffffffffff1673ffffffffffffffffffffffffffffffffffffffff1614610b435760025f8673ffffffffffffffffffffffffffffffffffffffff1673ffffffffffffffffffffffffffffffffffffffff1681526020019081526020015f206001018181548110610aa157610aa061193c565b5b905f5260205f2090600202016040518060400160405290815f82015f9054906101000a900473ffffffffffffffffffffffffffffffffffffffff1673ffffffffffffffffffffffffffffffffffffffff1673ffffffffffffffffffffffffffffffffffffffff168152602001600182015481525050838381518110610b2957610b2861193c565b5b60200260200101819052508180610b3f90611a5a565b9250505b8080600101915050610952565b508192505050610bb2565b5f67ffffffffffffffff811115610b7557610b74611a2d565b5b604051908082528060200260200182016040528015610bae57816020015b610b9b6114a2565b815260200190600190039081610b935790505b5090505b919050565b7f000000000000000000000000000000000000000000000000000000000000000081565b6002602052805f5260405f205f91509050805f0154908060020154908060030154905083565b6003602052805f5260405f205f915054906101000a900473ffffffffffffffffffffffffffffffffffffffff1681565b610c396110d1565b5f60025f3373ffffffffffffffffffffffffffffffffffffffff1673ffffffffffffffffffffffffffffffffffffffff1681526020019081526020015f205f01541115610ce4575f610c8a3361111e565b90508060025f3373ffffffffffffffffffffffffffffffffffffffff1673ffffffffffffffffffffffffffffffffffffffff1681526020019081526020015f206003015f828254610cdb9190611909565b92505081905550505b3373ffffffffffffffffffffffffffffffffffffffff167f000000000000000000000000000000000000000000000000000000000000000073ffffffffffffffffffffffffffffffffffffffff16636352211e836040518263ffffffff1660e01b8152600401610d5491906117e3565b602060405180830381865afa158015610d6f573d5f803e3d5ffd5b505050506040513d601f19601f82011682018060405250810190610d939190611ab5565b73ffffffffffffffffffffffffffffffffffffffff1614610de9576040517f08c379a0000000000000000000000000000000000000000000000000000000008152600401610de0906118be565b60405180910390fd5b7f000000000000000000000000000000000000000000000000000000000000000073ffffffffffffffffffffffffffffffffffffffff166323b872dd3330846040518463ffffffff1660e01b8152600401610e4693929190611990565b5f604051808303815f87803b158015610e5d575f80fd5b505af1158015610e6f573d5f803e3d5ffd5b505050505f60405180604001604052803373ffffffffffffffffffffffffffffffffffffffff16815260200183815250905060025f3373ffffffffffffffffffffffffffffffffffffffff1673ffffffffffffffffffffffffffffffffffffffff1681526020019081526020015f2060010181908060018154018082558091505060019003905f5260205f2090600202015f909190919091505f820151815f015f6101000a81548173ffffffffffffffffffffffffffffffffffffffff021916908373ffffffffffffffffffffffffffffffffffffffff16021790555060208201518160010155505060025f3373ffffffffffffffffffffffffffffffffffffffff1673ffffffffffffffffffffffffffffffffffffffff1681526020019081526020015f205f015f815480929190610fa790611a5a565b91905055503360035f8481526020019081526020015f205f6101000a81548173ffffffffffffffffffffffffffffffffffffffff021916908373ffffffffffffffffffffffffffffffffffffffff1602179055504260025f3373ffffffffffffffffffffffffffffffffffffffff1673ffffffffffffffffffffffffffffffffffffffff1681526020019081526020015f2060020181905550506110496111d6565b50565b7f000000000000000000000000000000000000000000000000000000000000000081565b5f8060025f8473ffffffffffffffffffffffffffffffffffffffff1673ffffffffffffffffffffffffffffffffffffffff1681526020019081526020015f20600301546110bc8461111e565b6110c69190611909565b905080915050919050565b60025f5403611115576040517f08c379a000000000000000000000000000000000000000000000000000000000815260040161110c90611b2a565b60405180910390fd5b60025f81905550565b5f610e1060015460025f8573ffffffffffffffffffffffffffffffffffffffff1673ffffffffffffffffffffffffffffffffffffffff1681526020019081526020015f205f015460025f8673ffffffffffffffffffffffffffffffffffffffff1673ffffffffffffffffffffffffffffffffffffffff1681526020019081526020015f2060020154426111b19190611b48565b6111bb9190611b7b565b6111c59190611b7b565b6111cf9190611be9565b9050919050565b60015f81905550565b611259838473ffffffffffffffffffffffffffffffffffffffff1663a9059cbb8585604051602401611212929190611c19565b604051602081830303815290604052915060e01b6020820180517bffffffffffffffffffffffffffffffffffffffffffffffffffffffff838183161783525050505061125e565b505050565b5f611288828473ffffffffffffffffffffffffffffffffffffffff166112f390919063ffffffff16565b90505f8151141580156112ac5750808060200190518101906112aa9190611c75565b155b156112ee57826040517f5274afe70000000000000000000000000000000000000000000000000000000081526004016112e59190611791565b60405180910390fd5b505050565b606061130083835f611308565b905092915050565b60608147101561134f57306040517fcd7860590000000000000000000000000000000000000000000000000000000081526004016113469190611791565b60405180910390fd5b5f808573ffffffffffffffffffffffffffffffffffffffff1684866040516113779190611d0c565b5f6040518083038185875af1925050503d805f81146113b1576040519150601f19603f3d011682016040523d82523d5f602084013e6113b6565b606091505b50915091506113c68683836113d1565b925050509392505050565b6060826113e6576113e18261145e565b611456565b5f825114801561140c57505f8473ffffffffffffffffffffffffffffffffffffffff163b145b1561144e57836040517f9996b3150000000000000000000000000000000000000000000000000000000081526004016114459190611791565b60405180910390fd5b819050611457565b5b9392505050565b5f815111156114705780518082602001fd5b6040517f1425ea4200000000000000000000000000000000000000000000000000000000815260040160405180910390fd5b60405180604001604052805f73ffffffffffffffffffffffffffffffffffffffff1681526020015f81525090565b5f80fd5b5f819050919050565b6114e6816114d4565b81146114f0575f80fd5b50565b5f81359050611501816114dd565b92915050565b5f6020828403121561151c5761151b6114d0565b5b5f611529848285016114f3565b91505092915050565b5f73ffffffffffffffffffffffffffffffffffffffff82169050919050565b5f61155b82611532565b9050919050565b61156b81611551565b8114611575575f80fd5b50565b5f8135905061158681611562565b92915050565b5f602082840312156115a1576115a06114d0565b5b5f6115ae84828501611578565b91505092915050565b5f81519050919050565b5f82825260208201905092915050565b5f819050602082019050919050565b6115e981611551565b82525050565b6115f8816114d4565b82525050565b604082015f8201516116125f8501826115e0565b50602082015161162560208501826115ef565b50505050565b5f61163683836115fe565b60408301905092915050565b5f602082019050919050565b5f611658826115b7565b61166281856115c1565b935061166d836115d1565b805f5b8381101561169d578151611684888261162b565b975061168f83611642565b925050600181019050611670565b5085935050505092915050565b5f6020820190508181035f8301526116c2818461164e565b905092915050565b5f819050919050565b5f6116ed6116e86116e384611532565b6116ca565b611532565b9050919050565b5f6116fe826116d3565b9050919050565b5f61170f826116f4565b9050919050565b61171f81611705565b82525050565b5f6020820190506117385f830184611716565b92915050565b611747816114d4565b82525050565b5f6060820190506117605f83018661173e565b61176d602083018561173e565b61177a604083018461173e565b949350505050565b61178b81611551565b82525050565b5f6020820190506117a45f830184611782565b92915050565b5f6117b4826116f4565b9050919050565b6117c4816117aa565b82525050565b5f6020820190506117dd5f8301846117bb565b92915050565b5f6020820190506117f65f83018461173e565b92915050565b5f82825260208201905092915050565b7f596f752068617665206e6f20746f6b656e73207374616b6564000000000000005f82015250565b5f6118406019836117fc565b915061184b8261180c565b602082019050919050565b5f6020820190508181035f83015261186d81611834565b9050919050565b7f596f7520646f6e2774206f776e207468697320746f6b656e21000000000000005f82015250565b5f6118a86019836117fc565b91506118b382611874565b602082019050919050565b5f6020820190508181035f8301526118d58161189c565b9050919050565b7f4e487b71000000000000000000000000000000000000000000000000000000005f52601160045260245ffd5b5f611913826114d4565b915061191e836114d4565b9250828201905080821115611936576119356118dc565b5b92915050565b7f4e487b71000000000000000000000000000000000000000000000000000000005f52603260045260245ffd5b5f611973826114d4565b91505f8203611985576119846118dc565b5b600182039050919050565b5f6060820190506119a35f830186611782565b6119b06020830185611782565b6119bd604083018461173e565b949350505050565b7f596f752068617665206e6f207265776172647320746f20636c61696d000000005f82015250565b5f6119f9601c836117fc565b9150611a04826119c5565b602082019050919050565b5f6020820190508181035f830152611a26816119ed565b9050919050565b7f4e487b71000000000000000000000000000000000000000000000000000000005f52604160045260245ffd5b5f611a64826114d4565b91507fffffffffffffffffffffffffffffffffffffffffffffffffffffffffffffffff8203611a9657611a956118dc565b5b600182019050919050565b5f81519050611aaf81611562565b92915050565b5f60208284031215611aca57611ac96114d0565b5b5f611ad784828501611aa1565b91505092915050565b7f5265656e7472616e637947756172643a207265656e7472616e742063616c6c005f82015250565b5f611b14601f836117fc565b9150611b1f82611ae0565b602082019050919050565b5f6020820190508181035f830152611b4181611b08565b9050919050565b5f611b52826114d4565b9150611b5d836114d4565b9250828203905081811115611b7557611b746118dc565b5b92915050565b5f611b85826114d4565b9150611b90836114d4565b9250828202611b9e816114d4565b91508282048414831517611bb557611bb46118dc565b5b5092915050565b7f4e487b71000000000000000000000000000000000000000000000000000000005f52601260045260245ffd5b5f611bf3826114d4565b9150611bfe836114d4565b925082611c0e57611c0d611bbc565b5b828204905092915050565b5f604082019050611c2c5f830185611782565b611c39602083018461173e565b9392505050565b5f8115159050919050565b611c5481611c40565b8114611c5e575f80fd5b50565b5f81519050611c6f81611c4b565b92915050565b5f60208284031215611c8a57611c896114d0565b5b5f611c9784828501611c61565b91505092915050565b5f81519050919050565b5f81905092915050565b5f5b83811015611cd1578082015181840152602081019050611cb6565b5f8484015250505050565b5f611ce682611ca0565b611cf08185611caa565b9350611d00818560208601611cb4565b80840191505092915050565b5f611d178284611cdc565b91508190509291505056fea2646970667358221220be0b697aac71e3188c0985d7f5c31f802e52675e8521935fec264a41d6090a0b64736f6c63430008160033",
					"opcodes": "PUSH1 0xC0 PUSH1 0x40 MSTORE PUSH2 0x2710 PUSH1 0x1 SSTORE CALLVALUE DUP1 ISZERO PUSH3 0x16 JUMPI PUSH0 DUP1 REVERT JUMPDEST POP PUSH1 0x40 MLOAD PUSH3 0x1F48 CODESIZE SUB DUP1 PUSH3 0x1F48 DUP4 CODECOPY DUP2 DUP2 ADD PUSH1 0x40 MSTORE DUP2 ADD SWAP1 PUSH3 0x3C SWAP2 SWAP1 PUSH3 0x16D JUMP JUMPDEST PUSH1 0x1 PUSH0 DUP2 SWAP1 SSTORE POP DUP2 PUSH20 0xFFFFFFFFFFFFFFFFFFFFFFFFFFFFFFFFFFFFFFFF AND PUSH1 0xA0 DUP2 PUSH20 0xFFFFFFFFFFFFFFFFFFFFFFFFFFFFFFFFFFFFFFFF AND DUP2 MSTORE POP POP DUP1 PUSH20 0xFFFFFFFFFFFFFFFFFFFFFFFFFFFFFFFFFFFFFFFF AND PUSH1 0x80 DUP2 PUSH20 0xFFFFFFFFFFFFFFFFFFFFFFFFFFFFFFFFFFFFFFFF AND DUP2 MSTORE POP POP POP POP PUSH3 0x1B2 JUMP JUMPDEST PUSH0 DUP1 REVERT JUMPDEST PUSH0 PUSH20 0xFFFFFFFFFFFFFFFFFFFFFFFFFFFFFFFFFFFFFFFF DUP3 AND SWAP1 POP SWAP2 SWAP1 POP JUMP JUMPDEST PUSH0 PUSH3 0xE2 DUP3 PUSH3 0xB7 JUMP JUMPDEST SWAP1 POP SWAP2 SWAP1 POP JUMP JUMPDEST PUSH0 PUSH3 0xF5 DUP3 PUSH3 0xD6 JUMP JUMPDEST SWAP1 POP SWAP2 SWAP1 POP JUMP JUMPDEST PUSH3 0x107 DUP2 PUSH3 0xE9 JUMP JUMPDEST DUP2 EQ PUSH3 0x112 JUMPI PUSH0 DUP1 REVERT JUMPDEST POP JUMP JUMPDEST PUSH0 DUP2 MLOAD SWAP1 POP PUSH3 0x125 DUP2 PUSH3 0xFC JUMP JUMPDEST SWAP3 SWAP2 POP POP JUMP JUMPDEST PUSH0 PUSH3 0x137 DUP3 PUSH3 0xD6 JUMP JUMPDEST SWAP1 POP SWAP2 SWAP1 POP JUMP JUMPDEST PUSH3 0x149 DUP2 PUSH3 0x12B JUMP JUMPDEST DUP2 EQ PUSH3 0x154 JUMPI PUSH0 DUP1 REVERT JUMPDEST POP JUMP JUMPDEST PUSH0 DUP2 MLOAD SWAP1 POP PUSH3 0x167 DUP2 PUSH3 0x13E JUMP JUMPDEST SWAP3 SWAP2 POP POP JUMP JUMPDEST PUSH0 DUP1 PUSH1 0x40 DUP4 DUP6 SUB SLT ISZERO PUSH3 0x186 JUMPI PUSH3 0x185 PUSH3 0xB3 JUMP JUMPDEST JUMPDEST PUSH0 PUSH3 0x195 DUP6 DUP3 DUP7 ADD PUSH3 0x115 JUMP JUMPDEST SWAP3 POP POP PUSH1 0x20 PUSH3 0x1A8 DUP6 DUP3 DUP7 ADD PUSH3 0x157 JUMP JUMPDEST SWAP2 POP POP SWAP3 POP SWAP3 SWAP1 POP JUMP JUMPDEST PUSH1 0x80 MLOAD PUSH1 0xA0 MLOAD PUSH2 0x1D58 PUSH3 0x1F0 PUSH0 CODECOPY PUSH0 DUP2 DUP2 PUSH2 0x625 ADD MSTORE DUP2 DUP2 PUSH2 0xBB9 ADD MSTORE DUP2 DUP2 PUSH2 0xCFD ADD MSTORE PUSH2 0xDEB ADD MSTORE PUSH0 DUP2 DUP2 PUSH2 0x829 ADD MSTORE PUSH2 0x104E ADD MSTORE PUSH2 0x1D58 PUSH0 RETURN INVALID PUSH1 0x80 PUSH1 0x40 MSTORE CALLVALUE DUP1 ISZERO PUSH2 0xF JUMPI PUSH0 DUP1 REVERT JUMPDEST POP PUSH1 0x4 CALLDATASIZE LT PUSH2 0x91 JUMPI PUSH0 CALLDATALOAD PUSH1 0xE0 SHR DUP1 PUSH4 0x9168AE72 GT PUSH2 0x64 JUMPI DUP1 PUSH4 0x9168AE72 EQ PUSH2 0x109 JUMPI DUP1 PUSH4 0x94067045 EQ PUSH2 0x13B JUMPI DUP1 PUSH4 0xA694FC3A EQ PUSH2 0x16B JUMPI DUP1 PUSH4 0xD1AF0C7D EQ PUSH2 0x187 JUMPI DUP1 PUSH4 0xF854A27F EQ PUSH2 0x1A5 JUMPI PUSH2 0x91 JUMP JUMPDEST DUP1 PUSH4 0x2E1A7D4D EQ PUSH2 0x95 JUMPI DUP1 PUSH4 0x372500AB EQ PUSH2 0xB1 JUMPI DUP1 PUSH4 0x63C28DB1 EQ PUSH2 0xBB JUMPI DUP1 PUSH4 0x6588103B EQ PUSH2 0xEB JUMPI JUMPDEST PUSH0 DUP1 REVERT JUMPDEST PUSH2 0xAF PUSH1 0x4 DUP1 CALLDATASIZE SUB DUP2 ADD SWAP1 PUSH2 0xAA SWAP2 SWAP1 PUSH2 0x1507 JUMP JUMPDEST PUSH2 0x1D5 JUMP JUMPDEST STOP JUMPDEST PUSH2 0xB9 PUSH2 0x6FF JUMP JUMPDEST STOP JUMPDEST PUSH2 0xD5 PUSH1 0x4 DUP1 CALLDATASIZE SUB DUP2 ADD SWAP1 PUSH2 0xD0 SWAP2 SWAP1 PUSH2 0x158C JUMP JUMPDEST PUSH2 0x870 JUMP JUMPDEST PUSH1 0x40 MLOAD PUSH2 0xE2 SWAP2 SWAP1 PUSH2 0x16AA JUMP JUMPDEST PUSH1 0x40 MLOAD DUP1 SWAP2 SUB SWAP1 RETURN JUMPDEST PUSH2 0xF3 PUSH2 0xBB7 JUMP JUMPDEST PUSH1 0x40 MLOAD PUSH2 0x100 SWAP2 SWAP1 PUSH2 0x1725 JUMP JUMPDEST PUSH1 0x40 MLOAD DUP1 SWAP2 SUB SWAP1 RETURN JUMPDEST PUSH2 0x123 PUSH1 0x4 DUP1 CALLDATASIZE SUB DUP2 ADD SWAP1 PUSH2 0x11E SWAP2 SWAP1 PUSH2 0x158C JUMP JUMPDEST PUSH2 0xBDB JUMP JUMPDEST PUSH1 0x40 MLOAD PUSH2 0x132 SWAP4 SWAP3 SWAP2 SWAP1 PUSH2 0x174D JUMP JUMPDEST PUSH1 0x40 MLOAD DUP1 SWAP2 SUB SWAP1 RETURN JUMPDEST PUSH2 0x155 PUSH1 0x4 DUP1 CALLDATASIZE SUB DUP2 ADD SWAP1 PUSH2 0x150 SWAP2 SWAP1 PUSH2 0x1507 JUMP JUMPDEST PUSH2 0xC01 JUMP JUMPDEST PUSH1 0x40 MLOAD PUSH2 0x162 SWAP2 SWAP1 PUSH2 0x1791 JUMP JUMPDEST PUSH1 0x40 MLOAD DUP1 SWAP2 SUB SWAP1 RETURN JUMPDEST PUSH2 0x185 PUSH1 0x4 DUP1 CALLDATASIZE SUB DUP2 ADD SWAP1 PUSH2 0x180 SWAP2 SWAP1 PUSH2 0x1507 JUMP JUMPDEST PUSH2 0xC31 JUMP JUMPDEST STOP JUMPDEST PUSH2 0x18F PUSH2 0x104C JUMP JUMPDEST PUSH1 0x40 MLOAD PUSH2 0x19C SWAP2 SWAP1 PUSH2 0x17CA JUMP JUMPDEST PUSH1 0x40 MLOAD DUP1 SWAP2 SUB SWAP1 RETURN JUMPDEST PUSH2 0x1BF PUSH1 0x4 DUP1 CALLDATASIZE SUB DUP2 ADD SWAP1 PUSH2 0x1BA SWAP2 SWAP1 PUSH2 0x158C JUMP JUMPDEST PUSH2 0x1070 JUMP JUMPDEST PUSH1 0x40 MLOAD PUSH2 0x1CC SWAP2 SWAP1 PUSH2 0x17E3 JUMP JUMPDEST PUSH1 0x40 MLOAD DUP1 SWAP2 SUB SWAP1 RETURN JUMPDEST PUSH2 0x1DD PUSH2 0x10D1 JUMP JUMPDEST PUSH0 PUSH1 0x2 PUSH0 CALLER PUSH20 0xFFFFFFFFFFFFFFFFFFFFFFFFFFFFFFFFFFFFFFFF AND PUSH20 0xFFFFFFFFFFFFFFFFFFFFFFFFFFFFFFFFFFFFFFFF AND DUP2 MSTORE PUSH1 0x20 ADD SWAP1 DUP2 MSTORE PUSH1 0x20 ADD PUSH0 KECCAK256 PUSH0 ADD SLOAD GT PUSH2 0x25E JUMPI PUSH1 0x40 MLOAD PUSH32 0x8C379A000000000000000000000000000000000000000000000000000000000 DUP2 MSTORE PUSH1 0x4 ADD PUSH2 0x255 SWAP1 PUSH2 0x1856 JUMP JUMPDEST PUSH1 0x40 MLOAD DUP1 SWAP2 SUB SWAP1 REVERT JUMPDEST CALLER PUSH20 0xFFFFFFFFFFFFFFFFFFFFFFFFFFFFFFFFFFFFFFFF AND PUSH1 0x3 PUSH0 DUP4 DUP2 MSTORE PUSH1 0x20 ADD SWAP1 DUP2 MSTORE PUSH1 0x20 ADD PUSH0 KECCAK256 PUSH0 SWAP1 SLOAD SWAP1 PUSH2 0x100 EXP SWAP1 DIV PUSH20 0xFFFFFFFFFFFFFFFFFFFFFFFFFFFFFFFFFFFFFFFF AND PUSH20 0xFFFFFFFFFFFFFFFFFFFFFFFFFFFFFFFFFFFFFFFF AND EQ PUSH2 0x2FC JUMPI PUSH1 0x40 MLOAD PUSH32 0x8C379A000000000000000000000000000000000000000000000000000000000 DUP2 MSTORE PUSH1 0x4 ADD PUSH2 0x2F3 SWAP1 PUSH2 0x18BE JUMP JUMPDEST PUSH1 0x40 MLOAD DUP1 SWAP2 SUB SWAP1 REVERT JUMPDEST PUSH0 PUSH2 0x306 CALLER PUSH2 0x111E JUMP JUMPDEST SWAP1 POP DUP1 PUSH1 0x2 PUSH0 CALLER PUSH20 0xFFFFFFFFFFFFFFFFFFFFFFFFFFFFFFFFFFFFFFFF AND PUSH20 0xFFFFFFFFFFFFFFFFFFFFFFFFFFFFFFFFFFFFFFFF AND DUP2 MSTORE PUSH1 0x20 ADD SWAP1 DUP2 MSTORE PUSH1 0x20 ADD PUSH0 KECCAK256 PUSH1 0x3 ADD PUSH0 DUP3 DUP3 SLOAD PUSH2 0x357 SWAP2 SWAP1 PUSH2 0x1909 JUMP JUMPDEST SWAP3 POP POP DUP2 SWAP1 SSTORE POP PUSH0 DUP1 JUMPDEST PUSH1 0x2 PUSH0 CALLER PUSH20 0xFFFFFFFFFFFFFFFFFFFFFFFFFFFFFFFFFFFFFFFF AND PUSH20 0xFFFFFFFFFFFFFFFFFFFFFFFFFFFFFFFFFFFFFFFF AND DUP2 MSTORE PUSH1 0x20 ADD SWAP1 DUP2 MSTORE PUSH1 0x20 ADD PUSH0 KECCAK256 PUSH1 0x1 ADD DUP1 SLOAD SWAP1 POP DUP2 LT ISZERO PUSH2 0x4E1 JUMPI DUP4 PUSH1 0x2 PUSH0 CALLER PUSH20 0xFFFFFFFFFFFFFFFFFFFFFFFFFFFFFFFFFFFFFFFF AND PUSH20 0xFFFFFFFFFFFFFFFFFFFFFFFFFFFFFFFFFFFFFFFF AND DUP2 MSTORE PUSH1 0x20 ADD SWAP1 DUP2 MSTORE PUSH1 0x20 ADD PUSH0 KECCAK256 PUSH1 0x1 ADD DUP3 DUP2 SLOAD DUP2 LT PUSH2 0x3FF JUMPI PUSH2 0x3FE PUSH2 0x193C JUMP JUMPDEST JUMPDEST SWAP1 PUSH0 MSTORE PUSH1 0x20 PUSH0 KECCAK256 SWAP1 PUSH1 0x2 MUL ADD PUSH1 0x1 ADD SLOAD EQ DUP1 ISZERO PUSH2 0x4C7 JUMPI POP PUSH0 PUSH20 0xFFFFFFFFFFFFFFFFFFFFFFFFFFFFFFFFFFFFFFFF AND PUSH1 0x2 PUSH0 CALLER PUSH20 0xFFFFFFFFFFFFFFFFFFFFFFFFFFFFFFFFFFFFFFFF AND PUSH20 0xFFFFFFFFFFFFFFFFFFFFFFFFFFFFFFFFFFFFFFFF AND DUP2 MSTORE PUSH1 0x20 ADD SWAP1 DUP2 MSTORE PUSH1 0x20 ADD PUSH0 KECCAK256 PUSH1 0x1 ADD DUP3 DUP2 SLOAD DUP2 LT PUSH2 0x480 JUMPI PUSH2 0x47F PUSH2 0x193C JUMP JUMPDEST JUMPDEST SWAP1 PUSH0 MSTORE PUSH1 0x20 PUSH0 KECCAK256 SWAP1 PUSH1 0x2 MUL ADD PUSH0 ADD PUSH0 SWAP1 SLOAD SWAP1 PUSH2 0x100 EXP SWAP1 DIV PUSH20 0xFFFFFFFFFFFFFFFFFFFFFFFFFFFFFFFFFFFFFFFF AND PUSH20 0xFFFFFFFFFFFFFFFFFFFFFFFFFFFFFFFFFFFFFFFF AND EQ ISZERO JUMPDEST ISZERO PUSH2 0x4D4 JUMPI DUP1 SWAP2 POP PUSH2 0x4E1 JUMP JUMPDEST DUP1 DUP1 PUSH1 0x1 ADD SWAP2 POP POP PUSH2 0x361 JUMP JUMPDEST POP PUSH0 PUSH1 0x2 PUSH0 CALLER PUSH20 0xFFFFFFFFFFFFFFFFFFFFFFFFFFFFFFFFFFFFFFFF AND PUSH20 0xFFFFFFFFFFFFFFFFFFFFFFFFFFFFFFFFFFFFFFFF AND DUP2 MSTORE PUSH1 0x20 ADD SWAP1 DUP2 MSTORE PUSH1 0x20 ADD PUSH0 KECCAK256 PUSH1 0x1 ADD DUP3 DUP2 SLOAD DUP2 LT PUSH2 0x535 JUMPI PUSH2 0x534 PUSH2 0x193C JUMP JUMPDEST JUMPDEST SWAP1 PUSH0 MSTORE PUSH1 0x20 PUSH0 KECCAK256 SWAP1 PUSH1 0x2 MUL ADD PUSH0 ADD PUSH0 PUSH2 0x100 EXP DUP2 SLOAD DUP2 PUSH20 0xFFFFFFFFFFFFFFFFFFFFFFFFFFFFFFFFFFFFFFFF MUL NOT AND SWAP1 DUP4 PUSH20 0xFFFFFFFFFFFFFFFFFFFFFFFFFFFFFFFFFFFFFFFF AND MUL OR SWAP1 SSTORE POP PUSH1 0x2 PUSH0 CALLER PUSH20 0xFFFFFFFFFFFFFFFFFFFFFFFFFFFFFFFFFFFFFFFF AND PUSH20 0xFFFFFFFFFFFFFFFFFFFFFFFFFFFFFFFFFFFFFFFF AND DUP2 MSTORE PUSH1 0x20 ADD SWAP1 DUP2 MSTORE PUSH1 0x20 ADD PUSH0 KECCAK256 PUSH0 ADD PUSH0 DUP2 SLOAD DUP1 SWAP3 SWAP2 SWAP1 PUSH2 0x5CF SWAP1 PUSH2 0x1969 JUMP JUMPDEST SWAP2 SWAP1 POP SSTORE POP PUSH0 PUSH1 0x3 PUSH0 DUP6 DUP2 MSTORE PUSH1 0x20 ADD SWAP1 DUP2 MSTORE PUSH1 0x20 ADD PUSH0 KECCAK256 PUSH0 PUSH2 0x100 EXP DUP2 SLOAD DUP2 PUSH20 0xFFFFFFFFFFFFFFFFFFFFFFFFFFFFFFFFFFFFFFFF MUL NOT AND SWAP1 DUP4 PUSH20 0xFFFFFFFFFFFFFFFFFFFFFFFFFFFFFFFFFFFFFFFF AND MUL OR SWAP1 SSTORE POP PUSH32 0x0 PUSH20 0xFFFFFFFFFFFFFFFFFFFFFFFFFFFFFFFFFFFFFFFF AND PUSH4 0x23B872DD ADDRESS CALLER DUP7 PUSH1 0x40 MLOAD DUP5 PUSH4 0xFFFFFFFF AND PUSH1 0xE0 SHL DUP2 MSTORE PUSH1 0x4 ADD PUSH2 0x680 SWAP4 SWAP3 SWAP2 SWAP1 PUSH2 0x1990 JUMP JUMPDEST PUSH0 PUSH1 0x40 MLOAD DUP1 DUP4 SUB DUP2 PUSH0 DUP8 DUP1 EXTCODESIZE ISZERO DUP1 ISZERO PUSH2 0x697 JUMPI PUSH0 DUP1 REVERT JUMPDEST POP GAS CALL ISZERO DUP1 ISZERO PUSH2 0x6A9 JUMPI RETURNDATASIZE PUSH0 DUP1 RETURNDATACOPY RETURNDATASIZE PUSH0 REVERT JUMPDEST POP POP POP POP TIMESTAMP PUSH1 0x2 PUSH0 CALLER PUSH20 0xFFFFFFFFFFFFFFFFFFFFFFFFFFFFFFFFFFFFFFFF AND PUSH20 0xFFFFFFFFFFFFFFFFFFFFFFFFFFFFFFFFFFFFFFFF AND DUP2 MSTORE PUSH1 0x20 ADD SWAP1 DUP2 MSTORE PUSH1 0x20 ADD PUSH0 KECCAK256 PUSH1 0x2 ADD DUP2 SWAP1 SSTORE POP POP POP PUSH2 0x6FC PUSH2 0x11D6 JUMP JUMPDEST POP JUMP JUMPDEST PUSH0 PUSH1 0x2 PUSH0 CALLER PUSH20 0xFFFFFFFFFFFFFFFFFFFFFFFFFFFFFFFFFFFFFFFF AND PUSH20 0xFFFFFFFFFFFFFFFFFFFFFFFFFFFFFFFFFFFFFFFF AND DUP2 MSTORE PUSH1 0x20 ADD SWAP1 DUP2 MSTORE PUSH1 0x20 ADD PUSH0 KECCAK256 PUSH1 0x3 ADD SLOAD PUSH2 0x74A CALLER PUSH2 0x111E JUMP JUMPDEST PUSH2 0x754 SWAP2 SWAP1 PUSH2 0x1909 JUMP JUMPDEST SWAP1 POP PUSH0 DUP2 GT PUSH2 0x798 JUMPI PUSH1 0x40 MLOAD PUSH32 0x8C379A000000000000000000000000000000000000000000000000000000000 DUP2 MSTORE PUSH1 0x4 ADD PUSH2 0x78F SWAP1 PUSH2 0x1A0F JUMP JUMPDEST PUSH1 0x40 MLOAD DUP1 SWAP2 SUB SWAP1 REVERT JUMPDEST TIMESTAMP PUSH1 0x2 PUSH0 CALLER PUSH20 0xFFFFFFFFFFFFFFFFFFFFFFFFFFFFFFFFFFFFFFFF AND PUSH20 0xFFFFFFFFFFFFFFFFFFFFFFFFFFFFFFFFFFFFFFFF AND DUP2 MSTORE PUSH1 0x20 ADD SWAP1 DUP2 MSTORE PUSH1 0x20 ADD PUSH0 KECCAK256 PUSH1 0x2 ADD DUP2 SWAP1 SSTORE POP PUSH0 PUSH1 0x2 PUSH0 CALLER PUSH20 0xFFFFFFFFFFFFFFFFFFFFFFFFFFFFFFFFFFFFFFFF AND PUSH20 0xFFFFFFFFFFFFFFFFFFFFFFFFFFFFFFFFFFFFFFFF AND DUP2 MSTORE PUSH1 0x20 ADD SWAP1 DUP2 MSTORE PUSH1 0x20 ADD PUSH0 KECCAK256 PUSH1 0x3 ADD DUP2 SWAP1 SSTORE POP PUSH2 0x86D CALLER DUP3 PUSH32 0x0 PUSH20 0xFFFFFFFFFFFFFFFFFFFFFFFFFFFFFFFFFFFFFFFF AND PUSH2 0x11DF SWAP1 SWAP3 SWAP2 SWAP1 PUSH4 0xFFFFFFFF AND JUMP JUMPDEST POP JUMP JUMPDEST PUSH1 0x60 PUSH0 PUSH1 0x2 PUSH0 DUP5 PUSH20 0xFFFFFFFFFFFFFFFFFFFFFFFFFFFFFFFFFFFFFFFF AND PUSH20 0xFFFFFFFFFFFFFFFFFFFFFFFFFFFFFFFFFFFFFFFF AND DUP2 MSTORE PUSH1 0x20 ADD SWAP1 DUP2 MSTORE PUSH1 0x20 ADD PUSH0 KECCAK256 PUSH0 ADD SLOAD GT ISZERO PUSH2 0xB5B JUMPI PUSH0 PUSH1 0x2 PUSH0 DUP5 PUSH20 0xFFFFFFFFFFFFFFFFFFFFFFFFFFFFFFFFFFFFFFFF AND PUSH20 0xFFFFFFFFFFFFFFFFFFFFFFFFFFFFFFFFFFFFFFFF AND DUP2 MSTORE PUSH1 0x20 ADD SWAP1 DUP2 MSTORE PUSH1 0x20 ADD PUSH0 KECCAK256 PUSH0 ADD SLOAD PUSH8 0xFFFFFFFFFFFFFFFF DUP2 GT ISZERO PUSH2 0x913 JUMPI PUSH2 0x912 PUSH2 0x1A2D JUMP JUMPDEST JUMPDEST PUSH1 0x40 MLOAD SWAP1 DUP1 DUP3 MSTORE DUP1 PUSH1 0x20 MUL PUSH1 0x20 ADD DUP3 ADD PUSH1 0x40 MSTORE DUP1 ISZERO PUSH2 0x94C JUMPI DUP2 PUSH1 0x20 ADD JUMPDEST PUSH2 0x939 PUSH2 0x14A2 JUMP JUMPDEST DUP2 MSTORE PUSH1 0x20 ADD SWAP1 PUSH1 0x1 SWAP1 SUB SWAP1 DUP2 PUSH2 0x931 JUMPI SWAP1 POP JUMPDEST POP SWAP1 POP PUSH0 DUP1 JUMPDEST PUSH1 0x2 PUSH0 DUP7 PUSH20 0xFFFFFFFFFFFFFFFFFFFFFFFFFFFFFFFFFFFFFFFF AND PUSH20 0xFFFFFFFFFFFFFFFFFFFFFFFFFFFFFFFFFFFFFFFF AND DUP2 MSTORE PUSH1 0x20 ADD SWAP1 DUP2 MSTORE PUSH1 0x20 ADD PUSH0 KECCAK256 PUSH1 0x1 ADD DUP1 SLOAD SWAP1 POP DUP2 LT ISZERO PUSH2 0xB50 JUMPI PUSH0 PUSH20 0xFFFFFFFFFFFFFFFFFFFFFFFFFFFFFFFFFFFFFFFF AND PUSH1 0x2 PUSH0 DUP8 PUSH20 0xFFFFFFFFFFFFFFFFFFFFFFFFFFFFFFFFFFFFFFFF AND PUSH20 0xFFFFFFFFFFFFFFFFFFFFFFFFFFFFFFFFFFFFFFFF AND DUP2 MSTORE PUSH1 0x20 ADD SWAP1 DUP2 MSTORE PUSH1 0x20 ADD PUSH0 KECCAK256 PUSH1 0x1 ADD DUP3 DUP2 SLOAD DUP2 LT PUSH2 0xA06 JUMPI PUSH2 0xA05 PUSH2 0x193C JUMP JUMPDEST JUMPDEST SWAP1 PUSH0 MSTORE PUSH1 0x20 PUSH0 KECCAK256 SWAP1 PUSH1 0x2 MUL ADD PUSH0 ADD PUSH0 SWAP1 SLOAD SWAP1 PUSH2 0x100 EXP SWAP1 DIV PUSH20 0xFFFFFFFFFFFFFFFFFFFFFFFFFFFFFFFFFFFFFFFF AND PUSH20 0xFFFFFFFFFFFFFFFFFFFFFFFFFFFFFFFFFFFFFFFF AND EQ PUSH2 0xB43 JUMPI PUSH1 0x2 PUSH0 DUP7 PUSH20 0xFFFFFFFFFFFFFFFFFFFFFFFFFFFFFFFFFFFFFFFF AND PUSH20 0xFFFFFFFFFFFFFFFFFFFFFFFFFFFFFFFFFFFFFFFF AND DUP2 MSTORE PUSH1 0x20 ADD SWAP1 DUP2 MSTORE PUSH1 0x20 ADD PUSH0 KECCAK256 PUSH1 0x1 ADD DUP2 DUP2 SLOAD DUP2 LT PUSH2 0xAA1 JUMPI PUSH2 0xAA0 PUSH2 0x193C JUMP JUMPDEST JUMPDEST SWAP1 PUSH0 MSTORE PUSH1 0x20 PUSH0 KECCAK256 SWAP1 PUSH1 0x2 MUL ADD PUSH1 0x40 MLOAD DUP1 PUSH1 0x40 ADD PUSH1 0x40 MSTORE SWAP1 DUP2 PUSH0 DUP3 ADD PUSH0 SWAP1 SLOAD SWAP1 PUSH2 0x100 EXP SWAP1 DIV PUSH20 0xFFFFFFFFFFFFFFFFFFFFFFFFFFFFFFFFFFFFFFFF AND PUSH20 0xFFFFFFFFFFFFFFFFFFFFFFFFFFFFFFFFFFFFFFFF AND PUSH20 0xFFFFFFFFFFFFFFFFFFFFFFFFFFFFFFFFFFFFFFFF AND DUP2 MSTORE PUSH1 0x20 ADD PUSH1 0x1 DUP3 ADD SLOAD DUP2 MSTORE POP POP DUP4 DUP4 DUP2 MLOAD DUP2 LT PUSH2 0xB29 JUMPI PUSH2 0xB28 PUSH2 0x193C JUMP JUMPDEST JUMPDEST PUSH1 0x20 MUL PUSH1 0x20 ADD ADD DUP2 SWAP1 MSTORE POP DUP2 DUP1 PUSH2 0xB3F SWAP1 PUSH2 0x1A5A JUMP JUMPDEST SWAP3 POP POP JUMPDEST DUP1 DUP1 PUSH1 0x1 ADD SWAP2 POP POP PUSH2 0x952 JUMP JUMPDEST POP DUP2 SWAP3 POP POP POP PUSH2 0xBB2 JUMP JUMPDEST PUSH0 PUSH8 0xFFFFFFFFFFFFFFFF DUP2 GT ISZERO PUSH2 0xB75 JUMPI PUSH2 0xB74 PUSH2 0x1A2D JUMP JUMPDEST JUMPDEST PUSH1 0x40 MLOAD SWAP1 DUP1 DUP3 MSTORE DUP1 PUSH1 0x20 MUL PUSH1 0x20 ADD DUP3 ADD PUSH1 0x40 MSTORE DUP1 ISZERO PUSH2 0xBAE JUMPI DUP2 PUSH1 0x20 ADD JUMPDEST PUSH2 0xB9B PUSH2 0x14A2 JUMP JUMPDEST DUP2 MSTORE PUSH1 0x20 ADD SWAP1 PUSH1 0x1 SWAP1 SUB SWAP1 DUP2 PUSH2 0xB93 JUMPI SWAP1 POP JUMPDEST POP SWAP1 POP JUMPDEST SWAP2 SWAP1 POP JUMP JUMPDEST PUSH32 0x0 DUP2 JUMP JUMPDEST PUSH1 0x2 PUSH1 0x20 MSTORE DUP1 PUSH0 MSTORE PUSH1 0x40 PUSH0 KECCAK256 PUSH0 SWAP2 POP SWAP1 POP DUP1 PUSH0 ADD SLOAD SWAP1 DUP1 PUSH1 0x2 ADD SLOAD SWAP1 DUP1 PUSH1 0x3 ADD SLOAD SWAP1 POP DUP4 JUMP JUMPDEST PUSH1 0x3 PUSH1 0x20 MSTORE DUP1 PUSH0 MSTORE PUSH1 0x40 PUSH0 KECCAK256 PUSH0 SWAP2 POP SLOAD SWAP1 PUSH2 0x100 EXP SWAP1 DIV PUSH20 0xFFFFFFFFFFFFFFFFFFFFFFFFFFFFFFFFFFFFFFFF AND DUP2 JUMP JUMPDEST PUSH2 0xC39 PUSH2 0x10D1 JUMP JUMPDEST PUSH0 PUSH1 0x2 PUSH0 CALLER PUSH20 0xFFFFFFFFFFFFFFFFFFFFFFFFFFFFFFFFFFFFFFFF AND PUSH20 0xFFFFFFFFFFFFFFFFFFFFFFFFFFFFFFFFFFFFFFFF AND DUP2 MSTORE PUSH1 0x20 ADD SWAP1 DUP2 MSTORE PUSH1 0x20 ADD PUSH0 KECCAK256 PUSH0 ADD SLOAD GT ISZERO PUSH2 0xCE4 JUMPI PUSH0 PUSH2 0xC8A CALLER PUSH2 0x111E JUMP JUMPDEST SWAP1 POP DUP1 PUSH1 0x2 PUSH0 CALLER PUSH20 0xFFFFFFFFFFFFFFFFFFFFFFFFFFFFFFFFFFFFFFFF AND PUSH20 0xFFFFFFFFFFFFFFFFFFFFFFFFFFFFFFFFFFFFFFFF AND DUP2 MSTORE PUSH1 0x20 ADD SWAP1 DUP2 MSTORE PUSH1 0x20 ADD PUSH0 KECCAK256 PUSH1 0x3 ADD PUSH0 DUP3 DUP3 SLOAD PUSH2 0xCDB SWAP2 SWAP1 PUSH2 0x1909 JUMP JUMPDEST SWAP3 POP POP DUP2 SWAP1 SSTORE POP POP JUMPDEST CALLER PUSH20 0xFFFFFFFFFFFFFFFFFFFFFFFFFFFFFFFFFFFFFFFF AND PUSH32 0x0 PUSH20 0xFFFFFFFFFFFFFFFFFFFFFFFFFFFFFFFFFFFFFFFF AND PUSH4 0x6352211E DUP4 PUSH1 0x40 MLOAD DUP3 PUSH4 0xFFFFFFFF AND PUSH1 0xE0 SHL DUP2 MSTORE PUSH1 0x4 ADD PUSH2 0xD54 SWAP2 SWAP1 PUSH2 0x17E3 JUMP JUMPDEST PUSH1 0x20 PUSH1 0x40 MLOAD DUP1 DUP4 SUB DUP2 DUP7 GAS STATICCALL ISZERO DUP1 ISZERO PUSH2 0xD6F JUMPI RETURNDATASIZE PUSH0 DUP1 RETURNDATACOPY RETURNDATASIZE PUSH0 REVERT JUMPDEST POP POP POP POP PUSH1 0x40 MLOAD RETURNDATASIZE PUSH1 0x1F NOT PUSH1 0x1F DUP3 ADD AND DUP3 ADD DUP1 PUSH1 0x40 MSTORE POP DUP2 ADD SWAP1 PUSH2 0xD93 SWAP2 SWAP1 PUSH2 0x1AB5 JUMP JUMPDEST PUSH20 0xFFFFFFFFFFFFFFFFFFFFFFFFFFFFFFFFFFFFFFFF AND EQ PUSH2 0xDE9 JUMPI PUSH1 0x40 MLOAD PUSH32 0x8C379A000000000000000000000000000000000000000000000000000000000 DUP2 MSTORE PUSH1 0x4 ADD PUSH2 0xDE0 SWAP1 PUSH2 0x18BE JUMP JUMPDEST PUSH1 0x40 MLOAD DUP1 SWAP2 SUB SWAP1 REVERT JUMPDEST PUSH32 0x0 PUSH20 0xFFFFFFFFFFFFFFFFFFFFFFFFFFFFFFFFFFFFFFFF AND PUSH4 0x23B872DD CALLER ADDRESS DUP5 PUSH1 0x40 MLOAD DUP5 PUSH4 0xFFFFFFFF AND PUSH1 0xE0 SHL DUP2 MSTORE PUSH1 0x4 ADD PUSH2 0xE46 SWAP4 SWAP3 SWAP2 SWAP1 PUSH2 0x1990 JUMP JUMPDEST PUSH0 PUSH1 0x40 MLOAD DUP1 DUP4 SUB DUP2 PUSH0 DUP8 DUP1 EXTCODESIZE ISZERO DUP1 ISZERO PUSH2 0xE5D JUMPI PUSH0 DUP1 REVERT JUMPDEST POP GAS CALL ISZERO DUP1 ISZERO PUSH2 0xE6F JUMPI RETURNDATASIZE PUSH0 DUP1 RETURNDATACOPY RETURNDATASIZE PUSH0 REVERT JUMPDEST POP POP POP POP PUSH0 PUSH1 0x40 MLOAD DUP1 PUSH1 0x40 ADD PUSH1 0x40 MSTORE DUP1 CALLER PUSH20 0xFFFFFFFFFFFFFFFFFFFFFFFFFFFFFFFFFFFFFFFF AND DUP2 MSTORE PUSH1 0x20 ADD DUP4 DUP2 MSTORE POP SWAP1 POP PUSH1 0x2 PUSH0 CALLER PUSH20 0xFFFFFFFFFFFFFFFFFFFFFFFFFFFFFFFFFFFFFFFF AND PUSH20 0xFFFFFFFFFFFFFFFFFFFFFFFFFFFFFFFFFFFFFFFF AND DUP2 MSTORE PUSH1 0x20 ADD SWAP1 DUP2 MSTORE PUSH1 0x20 ADD PUSH0 KECCAK256 PUSH1 0x1 ADD DUP2 SWAP1 DUP1 PUSH1 0x1 DUP2 SLOAD ADD DUP1 DUP3 SSTORE DUP1 SWAP2 POP POP PUSH1 0x1 SWAP1 SUB SWAP1 PUSH0 MSTORE PUSH1 0x20 PUSH0 KECCAK256 SWAP1 PUSH1 0x2 MUL ADD PUSH0 SWAP1 SWAP2 SWAP1 SWAP2 SWAP1 SWAP2 POP PUSH0 DUP3 ADD MLOAD DUP2 PUSH0 ADD PUSH0 PUSH2 0x100 EXP DUP2 SLOAD DUP2 PUSH20 0xFFFFFFFFFFFFFFFFFFFFFFFFFFFFFFFFFFFFFFFF MUL NOT AND SWAP1 DUP4 PUSH20 0xFFFFFFFFFFFFFFFFFFFFFFFFFFFFFFFFFFFFFFFF AND MUL OR SWAP1 SSTORE POP PUSH1 0x20 DUP3 ADD MLOAD DUP2 PUSH1 0x1 ADD SSTORE POP POP PUSH1 0x2 PUSH0 CALLER PUSH20 0xFFFFFFFFFFFFFFFFFFFFFFFFFFFFFFFFFFFFFFFF AND PUSH20 0xFFFFFFFFFFFFFFFFFFFFFFFFFFFFFFFFFFFFFFFF AND DUP2 MSTORE PUSH1 0x20 ADD SWAP1 DUP2 MSTORE PUSH1 0x20 ADD PUSH0 KECCAK256 PUSH0 ADD PUSH0 DUP2 SLOAD DUP1 SWAP3 SWAP2 SWAP1 PUSH2 0xFA7 SWAP1 PUSH2 0x1A5A JUMP JUMPDEST SWAP2 SWAP1 POP SSTORE POP CALLER PUSH1 0x3 PUSH0 DUP5 DUP2 MSTORE PUSH1 0x20 ADD SWAP1 DUP2 MSTORE PUSH1 0x20 ADD PUSH0 KECCAK256 PUSH0 PUSH2 0x100 EXP DUP2 SLOAD DUP2 PUSH20 0xFFFFFFFFFFFFFFFFFFFFFFFFFFFFFFFFFFFFFFFF MUL NOT AND SWAP1 DUP4 PUSH20 0xFFFFFFFFFFFFFFFFFFFFFFFFFFFFFFFFFFFFFFFF AND MUL OR SWAP1 SSTORE POP TIMESTAMP PUSH1 0x2 PUSH0 CALLER PUSH20 0xFFFFFFFFFFFFFFFFFFFFFFFFFFFFFFFFFFFFFFFF AND PUSH20 0xFFFFFFFFFFFFFFFFFFFFFFFFFFFFFFFFFFFFFFFF AND DUP2 MSTORE PUSH1 0x20 ADD SWAP1 DUP2 MSTORE PUSH1 0x20 ADD PUSH0 KECCAK256 PUSH1 0x2 ADD DUP2 SWAP1 SSTORE POP POP PUSH2 0x1049 PUSH2 0x11D6 JUMP JUMPDEST POP JUMP JUMPDEST PUSH32 0x0 DUP2 JUMP JUMPDEST PUSH0 DUP1 PUSH1 0x2 PUSH0 DUP5 PUSH20 0xFFFFFFFFFFFFFFFFFFFFFFFFFFFFFFFFFFFFFFFF AND PUSH20 0xFFFFFFFFFFFFFFFFFFFFFFFFFFFFFFFFFFFFFFFF AND DUP2 MSTORE PUSH1 0x20 ADD SWAP1 DUP2 MSTORE PUSH1 0x20 ADD PUSH0 KECCAK256 PUSH1 0x3 ADD SLOAD PUSH2 0x10BC DUP5 PUSH2 0x111E JUMP JUMPDEST PUSH2 0x10C6 SWAP2 SWAP1 PUSH2 0x1909 JUMP JUMPDEST SWAP1 POP DUP1 SWAP2 POP POP SWAP2 SWAP1 POP JUMP JUMPDEST PUSH1 0x2 PUSH0 SLOAD SUB PUSH2 0x1115 JUMPI PUSH1 0x40 MLOAD PUSH32 0x8C379A000000000000000000000000000000000000000000000000000000000 DUP2 MSTORE PUSH1 0x4 ADD PUSH2 0x110C SWAP1 PUSH2 0x1B2A JUMP JUMPDEST PUSH1 0x40 MLOAD DUP1 SWAP2 SUB SWAP1 REVERT JUMPDEST PUSH1 0x2 PUSH0 DUP2 SWAP1 SSTORE POP JUMP JUMPDEST PUSH0 PUSH2 0xE10 PUSH1 0x1 SLOAD PUSH1 0x2 PUSH0 DUP6 PUSH20 0xFFFFFFFFFFFFFFFFFFFFFFFFFFFFFFFFFFFFFFFF AND PUSH20 0xFFFFFFFFFFFFFFFFFFFFFFFFFFFFFFFFFFFFFFFF AND DUP2 MSTORE PUSH1 0x20 ADD SWAP1 DUP2 MSTORE PUSH1 0x20 ADD PUSH0 KECCAK256 PUSH0 ADD SLOAD PUSH1 0x2 PUSH0 DUP7 PUSH20 0xFFFFFFFFFFFFFFFFFFFFFFFFFFFFFFFFFFFFFFFF AND PUSH20 0xFFFFFFFFFFFFFFFFFFFFFFFFFFFFFFFFFFFFFFFF AND DUP2 MSTORE PUSH1 0x20 ADD SWAP1 DUP2 MSTORE PUSH1 0x20 ADD PUSH0 KECCAK256 PUSH1 0x2 ADD SLOAD TIMESTAMP PUSH2 0x11B1 SWAP2 SWAP1 PUSH2 0x1B48 JUMP JUMPDEST PUSH2 0x11BB SWAP2 SWAP1 PUSH2 0x1B7B JUMP JUMPDEST PUSH2 0x11C5 SWAP2 SWAP1 PUSH2 0x1B7B JUMP JUMPDEST PUSH2 0x11CF SWAP2 SWAP1 PUSH2 0x1BE9 JUMP JUMPDEST SWAP1 POP SWAP2 SWAP1 POP JUMP JUMPDEST PUSH1 0x1 PUSH0 DUP2 SWAP1 SSTORE POP JUMP JUMPDEST PUSH2 0x1259 DUP4 DUP5 PUSH20 0xFFFFFFFFFFFFFFFFFFFFFFFFFFFFFFFFFFFFFFFF AND PUSH4 0xA9059CBB DUP6 DUP6 PUSH1 0x40 MLOAD PUSH1 0x24 ADD PUSH2 0x1212 SWAP3 SWAP2 SWAP1 PUSH2 0x1C19 JUMP JUMPDEST PUSH1 0x40 MLOAD PUSH1 0x20 DUP2 DUP4 SUB SUB DUP2 MSTORE SWAP1 PUSH1 0x40 MSTORE SWAP2 POP PUSH1 0xE0 SHL PUSH1 0x20 DUP3 ADD DUP1 MLOAD PUSH28 0xFFFFFFFFFFFFFFFFFFFFFFFFFFFFFFFFFFFFFFFFFFFFFFFFFFFFFFFF DUP4 DUP2 DUP4 AND OR DUP4 MSTORE POP POP POP POP PUSH2 0x125E JUMP JUMPDEST POP POP POP JUMP JUMPDEST PUSH0 PUSH2 0x1288 DUP3 DUP5 PUSH20 0xFFFFFFFFFFFFFFFFFFFFFFFFFFFFFFFFFFFFFFFF AND PUSH2 0x12F3 SWAP1 SWAP2 SWAP1 PUSH4 0xFFFFFFFF AND JUMP JUMPDEST SWAP1 POP PUSH0 DUP2 MLOAD EQ ISZERO DUP1 ISZERO PUSH2 0x12AC JUMPI POP DUP1 DUP1 PUSH1 0x20 ADD SWAP1 MLOAD DUP2 ADD SWAP1 PUSH2 0x12AA SWAP2 SWAP1 PUSH2 0x1C75 JUMP JUMPDEST ISZERO JUMPDEST ISZERO PUSH2 0x12EE JUMPI DUP3 PUSH1 0x40 MLOAD PUSH32 0x5274AFE700000000000000000000000000000000000000000000000000000000 DUP2 MSTORE PUSH1 0x4 ADD PUSH2 0x12E5 SWAP2 SWAP1 PUSH2 0x1791 JUMP JUMPDEST PUSH1 0x40 MLOAD DUP1 SWAP2 SUB SWAP1 REVERT JUMPDEST POP POP POP JUMP JUMPDEST PUSH1 0x60 PUSH2 0x1300 DUP4 DUP4 PUSH0 PUSH2 0x1308 JUMP JUMPDEST SWAP1 POP SWAP3 SWAP2 POP POP JUMP JUMPDEST PUSH1 0x60 DUP2 SELFBALANCE LT ISZERO PUSH2 0x134F JUMPI ADDRESS PUSH1 0x40 MLOAD PUSH32 0xCD78605900000000000000000000000000000000000000000000000000000000 DUP2 MSTORE PUSH1 0x4 ADD PUSH2 0x1346 SWAP2 SWAP1 PUSH2 0x1791 JUMP JUMPDEST PUSH1 0x40 MLOAD DUP1 SWAP2 SUB SWAP1 REVERT JUMPDEST PUSH0 DUP1 DUP6 PUSH20 0xFFFFFFFFFFFFFFFFFFFFFFFFFFFFFFFFFFFFFFFF AND DUP5 DUP7 PUSH1 0x40 MLOAD PUSH2 0x1377 SWAP2 SWAP1 PUSH2 0x1D0C JUMP JUMPDEST PUSH0 PUSH1 0x40 MLOAD DUP1 DUP4 SUB DUP2 DUP6 DUP8 GAS CALL SWAP3 POP POP POP RETURNDATASIZE DUP1 PUSH0 DUP2 EQ PUSH2 0x13B1 JUMPI PUSH1 0x40 MLOAD SWAP2 POP PUSH1 0x1F NOT PUSH1 0x3F RETURNDATASIZE ADD AND DUP3 ADD PUSH1 0x40 MSTORE RETURNDATASIZE DUP3 MSTORE RETURNDATASIZE PUSH0 PUSH1 0x20 DUP5 ADD RETURNDATACOPY PUSH2 0x13B6 JUMP JUMPDEST PUSH1 0x60 SWAP2 POP JUMPDEST POP SWAP2 POP SWAP2 POP PUSH2 0x13C6 DUP7 DUP4 DUP4 PUSH2 0x13D1 JUMP JUMPDEST SWAP3 POP POP POP SWAP4 SWAP3 POP POP POP JUMP JUMPDEST PUSH1 0x60 DUP3 PUSH2 0x13E6 JUMPI PUSH2 0x13E1 DUP3 PUSH2 0x145E JUMP JUMPDEST PUSH2 0x1456 JUMP JUMPDEST PUSH0 DUP3 MLOAD EQ DUP1 ISZERO PUSH2 0x140C JUMPI POP PUSH0 DUP5 PUSH20 0xFFFFFFFFFFFFFFFFFFFFFFFFFFFFFFFFFFFFFFFF AND EXTCODESIZE EQ JUMPDEST ISZERO PUSH2 0x144E JUMPI DUP4 PUSH1 0x40 MLOAD PUSH32 0x9996B31500000000000000000000000000000000000000000000000000000000 DUP2 MSTORE PUSH1 0x4 ADD PUSH2 0x1445 SWAP2 SWAP1 PUSH2 0x1791 JUMP JUMPDEST PUSH1 0x40 MLOAD DUP1 SWAP2 SUB SWAP1 REVERT JUMPDEST DUP2 SWAP1 POP PUSH2 0x1457 JUMP JUMPDEST JUMPDEST SWAP4 SWAP3 POP POP POP JUMP JUMPDEST PUSH0 DUP2 MLOAD GT ISZERO PUSH2 0x1470 JUMPI DUP1 MLOAD DUP1 DUP3 PUSH1 0x20 ADD REVERT JUMPDEST PUSH1 0x40 MLOAD PUSH32 0x1425EA4200000000000000000000000000000000000000000000000000000000 DUP2 MSTORE PUSH1 0x4 ADD PUSH1 0x40 MLOAD DUP1 SWAP2 SUB SWAP1 REVERT JUMPDEST PUSH1 0x40 MLOAD DUP1 PUSH1 0x40 ADD PUSH1 0x40 MSTORE DUP1 PUSH0 PUSH20 0xFFFFFFFFFFFFFFFFFFFFFFFFFFFFFFFFFFFFFFFF AND DUP2 MSTORE PUSH1 0x20 ADD PUSH0 DUP2 MSTORE POP SWAP1 JUMP JUMPDEST PUSH0 DUP1 REVERT JUMPDEST PUSH0 DUP2 SWAP1 POP SWAP2 SWAP1 POP JUMP JUMPDEST PUSH2 0x14E6 DUP2 PUSH2 0x14D4 JUMP JUMPDEST DUP2 EQ PUSH2 0x14F0 JUMPI PUSH0 DUP1 REVERT JUMPDEST POP JUMP JUMPDEST PUSH0 DUP2 CALLDATALOAD SWAP1 POP PUSH2 0x1501 DUP2 PUSH2 0x14DD JUMP JUMPDEST SWAP3 SWAP2 POP POP JUMP JUMPDEST PUSH0 PUSH1 0x20 DUP3 DUP5 SUB SLT ISZERO PUSH2 0x151C JUMPI PUSH2 0x151B PUSH2 0x14D0 JUMP JUMPDEST JUMPDEST PUSH0 PUSH2 0x1529 DUP5 DUP3 DUP6 ADD PUSH2 0x14F3 JUMP JUMPDEST SWAP2 POP POP SWAP3 SWAP2 POP POP JUMP JUMPDEST PUSH0 PUSH20 0xFFFFFFFFFFFFFFFFFFFFFFFFFFFFFFFFFFFFFFFF DUP3 AND SWAP1 POP SWAP2 SWAP1 POP JUMP JUMPDEST PUSH0 PUSH2 0x155B DUP3 PUSH2 0x1532 JUMP JUMPDEST SWAP1 POP SWAP2 SWAP1 POP JUMP JUMPDEST PUSH2 0x156B DUP2 PUSH2 0x1551 JUMP JUMPDEST DUP2 EQ PUSH2 0x1575 JUMPI PUSH0 DUP1 REVERT JUMPDEST POP JUMP JUMPDEST PUSH0 DUP2 CALLDATALOAD SWAP1 POP PUSH2 0x1586 DUP2 PUSH2 0x1562 JUMP JUMPDEST SWAP3 SWAP2 POP POP JUMP JUMPDEST PUSH0 PUSH1 0x20 DUP3 DUP5 SUB SLT ISZERO PUSH2 0x15A1 JUMPI PUSH2 0x15A0 PUSH2 0x14D0 JUMP JUMPDEST JUMPDEST PUSH0 PUSH2 0x15AE DUP5 DUP3 DUP6 ADD PUSH2 0x1578 JUMP JUMPDEST SWAP2 POP POP SWAP3 SWAP2 POP POP JUMP JUMPDEST PUSH0 DUP2 MLOAD SWAP1 POP SWAP2 SWAP1 POP JUMP JUMPDEST PUSH0 DUP3 DUP3 MSTORE PUSH1 0x20 DUP3 ADD SWAP1 POP SWAP3 SWAP2 POP POP JUMP JUMPDEST PUSH0 DUP2 SWAP1 POP PUSH1 0x20 DUP3 ADD SWAP1 POP SWAP2 SWAP1 POP JUMP JUMPDEST PUSH2 0x15E9 DUP2 PUSH2 0x1551 JUMP JUMPDEST DUP3 MSTORE POP POP JUMP JUMPDEST PUSH2 0x15F8 DUP2 PUSH2 0x14D4 JUMP JUMPDEST DUP3 MSTORE POP POP JUMP JUMPDEST PUSH1 0x40 DUP3 ADD PUSH0 DUP3 ADD MLOAD PUSH2 0x1612 PUSH0 DUP6 ADD DUP3 PUSH2 0x15E0 JUMP JUMPDEST POP PUSH1 0x20 DUP3 ADD MLOAD PUSH2 0x1625 PUSH1 0x20 DUP6 ADD DUP3 PUSH2 0x15EF JUMP JUMPDEST POP POP POP POP JUMP JUMPDEST PUSH0 PUSH2 0x1636 DUP4 DUP4 PUSH2 0x15FE JUMP JUMPDEST PUSH1 0x40 DUP4 ADD SWAP1 POP SWAP3 SWAP2 POP POP JUMP JUMPDEST PUSH0 PUSH1 0x20 DUP3 ADD SWAP1 POP SWAP2 SWAP1 POP JUMP JUMPDEST PUSH0 PUSH2 0x1658 DUP3 PUSH2 0x15B7 JUMP JUMPDEST PUSH2 0x1662 DUP2 DUP6 PUSH2 0x15C1 JUMP JUMPDEST SWAP4 POP PUSH2 0x166D DUP4 PUSH2 0x15D1 JUMP JUMPDEST DUP1 PUSH0 JUMPDEST DUP4 DUP2 LT ISZERO PUSH2 0x169D JUMPI DUP2 MLOAD PUSH2 0x1684 DUP9 DUP3 PUSH2 0x162B JUMP JUMPDEST SWAP8 POP PUSH2 0x168F DUP4 PUSH2 0x1642 JUMP JUMPDEST SWAP3 POP POP PUSH1 0x1 DUP2 ADD SWAP1 POP PUSH2 0x1670 JUMP JUMPDEST POP DUP6 SWAP4 POP POP POP POP SWAP3 SWAP2 POP POP JUMP JUMPDEST PUSH0 PUSH1 0x20 DUP3 ADD SWAP1 POP DUP2 DUP2 SUB PUSH0 DUP4 ADD MSTORE PUSH2 0x16C2 DUP2 DUP5 PUSH2 0x164E JUMP JUMPDEST SWAP1 POP SWAP3 SWAP2 POP POP JUMP JUMPDEST PUSH0 DUP2 SWAP1 POP SWAP2 SWAP1 POP JUMP JUMPDEST PUSH0 PUSH2 0x16ED PUSH2 0x16E8 PUSH2 0x16E3 DUP5 PUSH2 0x1532 JUMP JUMPDEST PUSH2 0x16CA JUMP JUMPDEST PUSH2 0x1532 JUMP JUMPDEST SWAP1 POP SWAP2 SWAP1 POP JUMP JUMPDEST PUSH0 PUSH2 0x16FE DUP3 PUSH2 0x16D3 JUMP JUMPDEST SWAP1 POP SWAP2 SWAP1 POP JUMP JUMPDEST PUSH0 PUSH2 0x170F DUP3 PUSH2 0x16F4 JUMP JUMPDEST SWAP1 POP SWAP2 SWAP1 POP JUMP JUMPDEST PUSH2 0x171F DUP2 PUSH2 0x1705 JUMP JUMPDEST DUP3 MSTORE POP POP JUMP JUMPDEST PUSH0 PUSH1 0x20 DUP3 ADD SWAP1 POP PUSH2 0x1738 PUSH0 DUP4 ADD DUP5 PUSH2 0x1716 JUMP JUMPDEST SWAP3 SWAP2 POP POP JUMP JUMPDEST PUSH2 0x1747 DUP2 PUSH2 0x14D4 JUMP JUMPDEST DUP3 MSTORE POP POP JUMP JUMPDEST PUSH0 PUSH1 0x60 DUP3 ADD SWAP1 POP PUSH2 0x1760 PUSH0 DUP4 ADD DUP7 PUSH2 0x173E JUMP JUMPDEST PUSH2 0x176D PUSH1 0x20 DUP4 ADD DUP6 PUSH2 0x173E JUMP JUMPDEST PUSH2 0x177A PUSH1 0x40 DUP4 ADD DUP5 PUSH2 0x173E JUMP JUMPDEST SWAP5 SWAP4 POP POP POP POP JUMP JUMPDEST PUSH2 0x178B DUP2 PUSH2 0x1551 JUMP JUMPDEST DUP3 MSTORE POP POP JUMP JUMPDEST PUSH0 PUSH1 0x20 DUP3 ADD SWAP1 POP PUSH2 0x17A4 PUSH0 DUP4 ADD DUP5 PUSH2 0x1782 JUMP JUMPDEST SWAP3 SWAP2 POP POP JUMP JUMPDEST PUSH0 PUSH2 0x17B4 DUP3 PUSH2 0x16F4 JUMP JUMPDEST SWAP1 POP SWAP2 SWAP1 POP JUMP JUMPDEST PUSH2 0x17C4 DUP2 PUSH2 0x17AA JUMP JUMPDEST DUP3 MSTORE POP POP JUMP JUMPDEST PUSH0 PUSH1 0x20 DUP3 ADD SWAP1 POP PUSH2 0x17DD PUSH0 DUP4 ADD DUP5 PUSH2 0x17BB JUMP JUMPDEST SWAP3 SWAP2 POP POP JUMP JUMPDEST PUSH0 PUSH1 0x20 DUP3 ADD SWAP1 POP PUSH2 0x17F6 PUSH0 DUP4 ADD DUP5 PUSH2 0x173E JUMP JUMPDEST SWAP3 SWAP2 POP POP JUMP JUMPDEST PUSH0 DUP3 DUP3 MSTORE PUSH1 0x20 DUP3 ADD SWAP1 POP SWAP3 SWAP2 POP POP JUMP JUMPDEST PUSH32 0x596F752068617665206E6F20746F6B656E73207374616B656400000000000000 PUSH0 DUP3 ADD MSTORE POP JUMP JUMPDEST PUSH0 PUSH2 0x1840 PUSH1 0x19 DUP4 PUSH2 0x17FC JUMP JUMPDEST SWAP2 POP PUSH2 0x184B DUP3 PUSH2 0x180C JUMP JUMPDEST PUSH1 0x20 DUP3 ADD SWAP1 POP SWAP2 SWAP1 POP JUMP JUMPDEST PUSH0 PUSH1 0x20 DUP3 ADD SWAP1 POP DUP2 DUP2 SUB PUSH0 DUP4 ADD MSTORE PUSH2 0x186D DUP2 PUSH2 0x1834 JUMP JUMPDEST SWAP1 POP SWAP2 SWAP1 POP JUMP JUMPDEST PUSH32 0x596F7520646F6E2774206F776E207468697320746F6B656E2100000000000000 PUSH0 DUP3 ADD MSTORE POP JUMP JUMPDEST PUSH0 PUSH2 0x18A8 PUSH1 0x19 DUP4 PUSH2 0x17FC JUMP JUMPDEST SWAP2 POP PUSH2 0x18B3 DUP3 PUSH2 0x1874 JUMP JUMPDEST PUSH1 0x20 DUP3 ADD SWAP1 POP SWAP2 SWAP1 POP JUMP JUMPDEST PUSH0 PUSH1 0x20 DUP3 ADD SWAP1 POP DUP2 DUP2 SUB PUSH0 DUP4 ADD MSTORE PUSH2 0x18D5 DUP2 PUSH2 0x189C JUMP JUMPDEST SWAP1 POP SWAP2 SWAP1 POP JUMP JUMPDEST PUSH32 0x4E487B7100000000000000000000000000000000000000000000000000000000 PUSH0 MSTORE PUSH1 0x11 PUSH1 0x4 MSTORE PUSH1 0x24 PUSH0 REVERT JUMPDEST PUSH0 PUSH2 0x1913 DUP3 PUSH2 0x14D4 JUMP JUMPDEST SWAP2 POP PUSH2 0x191E DUP4 PUSH2 0x14D4 JUMP JUMPDEST SWAP3 POP DUP3 DUP3 ADD SWAP1 POP DUP1 DUP3 GT ISZERO PUSH2 0x1936 JUMPI PUSH2 0x1935 PUSH2 0x18DC JUMP JUMPDEST JUMPDEST SWAP3 SWAP2 POP POP JUMP JUMPDEST PUSH32 0x4E487B7100000000000000000000000000000000000000000000000000000000 PUSH0 MSTORE PUSH1 0x32 PUSH1 0x4 MSTORE PUSH1 0x24 PUSH0 REVERT JUMPDEST PUSH0 PUSH2 0x1973 DUP3 PUSH2 0x14D4 JUMP JUMPDEST SWAP2 POP PUSH0 DUP3 SUB PUSH2 0x1985 JUMPI PUSH2 0x1984 PUSH2 0x18DC JUMP JUMPDEST JUMPDEST PUSH1 0x1 DUP3 SUB SWAP1 POP SWAP2 SWAP1 POP JUMP JUMPDEST PUSH0 PUSH1 0x60 DUP3 ADD SWAP1 POP PUSH2 0x19A3 PUSH0 DUP4 ADD DUP7 PUSH2 0x1782 JUMP JUMPDEST PUSH2 0x19B0 PUSH1 0x20 DUP4 ADD DUP6 PUSH2 0x1782 JUMP JUMPDEST PUSH2 0x19BD PUSH1 0x40 DUP4 ADD DUP5 PUSH2 0x173E JUMP JUMPDEST SWAP5 SWAP4 POP POP POP POP JUMP JUMPDEST PUSH32 0x596F752068617665206E6F207265776172647320746F20636C61696D00000000 PUSH0 DUP3 ADD MSTORE POP JUMP JUMPDEST PUSH0 PUSH2 0x19F9 PUSH1 0x1C DUP4 PUSH2 0x17FC JUMP JUMPDEST SWAP2 POP PUSH2 0x1A04 DUP3 PUSH2 0x19C5 JUMP JUMPDEST PUSH1 0x20 DUP3 ADD SWAP1 POP SWAP2 SWAP1 POP JUMP JUMPDEST PUSH0 PUSH1 0x20 DUP3 ADD SWAP1 POP DUP2 DUP2 SUB PUSH0 DUP4 ADD MSTORE PUSH2 0x1A26 DUP2 PUSH2 0x19ED JUMP JUMPDEST SWAP1 POP SWAP2 SWAP1 POP JUMP JUMPDEST PUSH32 0x4E487B7100000000000000000000000000000000000000000000000000000000 PUSH0 MSTORE PUSH1 0x41 PUSH1 0x4 MSTORE PUSH1 0x24 PUSH0 REVERT JUMPDEST PUSH0 PUSH2 0x1A64 DUP3 PUSH2 0x14D4 JUMP JUMPDEST SWAP2 POP PUSH32 0xFFFFFFFFFFFFFFFFFFFFFFFFFFFFFFFFFFFFFFFFFFFFFFFFFFFFFFFFFFFFFFFF DUP3 SUB PUSH2 0x1A96 JUMPI PUSH2 0x1A95 PUSH2 0x18DC JUMP JUMPDEST JUMPDEST PUSH1 0x1 DUP3 ADD SWAP1 POP SWAP2 SWAP1 POP JUMP JUMPDEST PUSH0 DUP2 MLOAD SWAP1 POP PUSH2 0x1AAF DUP2 PUSH2 0x1562 JUMP JUMPDEST SWAP3 SWAP2 POP POP JUMP JUMPDEST PUSH0 PUSH1 0x20 DUP3 DUP5 SUB SLT ISZERO PUSH2 0x1ACA JUMPI PUSH2 0x1AC9 PUSH2 0x14D0 JUMP JUMPDEST JUMPDEST PUSH0 PUSH2 0x1AD7 DUP5 DUP3 DUP6 ADD PUSH2 0x1AA1 JUMP JUMPDEST SWAP2 POP POP SWAP3 SWAP2 POP POP JUMP JUMPDEST PUSH32 0x5265656E7472616E637947756172643A207265656E7472616E742063616C6C00 PUSH0 DUP3 ADD MSTORE POP JUMP JUMPDEST PUSH0 PUSH2 0x1B14 PUSH1 0x1F DUP4 PUSH2 0x17FC JUMP JUMPDEST SWAP2 POP PUSH2 0x1B1F DUP3 PUSH2 0x1AE0 JUMP JUMPDEST PUSH1 0x20 DUP3 ADD SWAP1 POP SWAP2 SWAP1 POP JUMP JUMPDEST PUSH0 PUSH1 0x20 DUP3 ADD SWAP1 POP DUP2 DUP2 SUB PUSH0 DUP4 ADD MSTORE PUSH2 0x1B41 DUP2 PUSH2 0x1B08 JUMP JUMPDEST SWAP1 POP SWAP2 SWAP1 POP JUMP JUMPDEST PUSH0 PUSH2 0x1B52 DUP3 PUSH2 0x14D4 JUMP JUMPDEST SWAP2 POP PUSH2 0x1B5D DUP4 PUSH2 0x14D4 JUMP JUMPDEST SWAP3 POP DUP3 DUP3 SUB SWAP1 POP DUP2 DUP2 GT ISZERO PUSH2 0x1B75 JUMPI PUSH2 0x1B74 PUSH2 0x18DC JUMP JUMPDEST JUMPDEST SWAP3 SWAP2 POP POP JUMP JUMPDEST PUSH0 PUSH2 0x1B85 DUP3 PUSH2 0x14D4 JUMP JUMPDEST SWAP2 POP PUSH2 0x1B90 DUP4 PUSH2 0x14D4 JUMP JUMPDEST SWAP3 POP DUP3 DUP3 MUL PUSH2 0x1B9E DUP2 PUSH2 0x14D4 JUMP JUMPDEST SWAP2 POP DUP3 DUP3 DIV DUP5 EQ DUP4 ISZERO OR PUSH2 0x1BB5 JUMPI PUSH2 0x1BB4 PUSH2 0x18DC JUMP JUMPDEST JUMPDEST POP SWAP3 SWAP2 POP POP JUMP JUMPDEST PUSH32 0x4E487B7100000000000000000000000000000000000000000000000000000000 PUSH0 MSTORE PUSH1 0x12 PUSH1 0x4 MSTORE PUSH1 0x24 PUSH0 REVERT JUMPDEST PUSH0 PUSH2 0x1BF3 DUP3 PUSH2 0x14D4 JUMP JUMPDEST SWAP2 POP PUSH2 0x1BFE DUP4 PUSH2 0x14D4 JUMP JUMPDEST SWAP3 POP DUP3 PUSH2 0x1C0E JUMPI PUSH2 0x1C0D PUSH2 0x1BBC JUMP JUMPDEST JUMPDEST DUP3 DUP3 DIV SWAP1 POP SWAP3 SWAP2 POP POP JUMP JUMPDEST PUSH0 PUSH1 0x40 DUP3 ADD SWAP1 POP PUSH2 0x1C2C PUSH0 DUP4 ADD DUP6 PUSH2 0x1782 JUMP JUMPDEST PUSH2 0x1C39 PUSH1 0x20 DUP4 ADD DUP5 PUSH2 0x173E JUMP JUMPDEST SWAP4 SWAP3 POP POP POP JUMP JUMPDEST PUSH0 DUP2 ISZERO ISZERO SWAP1 POP SWAP2 SWAP1 POP JUMP JUMPDEST PUSH2 0x1C54 DUP2 PUSH2 0x1C40 JUMP JUMPDEST DUP2 EQ PUSH2 0x1C5E JUMPI PUSH0 DUP1 REVERT JUMPDEST POP JUMP JUMPDEST PUSH0 DUP2 MLOAD SWAP1 POP PUSH2 0x1C6F DUP2 PUSH2 0x1C4B JUMP JUMPDEST SWAP3 SWAP2 POP POP JUMP JUMPDEST PUSH0 PUSH1 0x20 DUP3 DUP5 SUB SLT ISZERO PUSH2 0x1C8A JUMPI PUSH2 0x1C89 PUSH2 0x14D0 JUMP JUMPDEST JUMPDEST PUSH0 PUSH2 0x1C97 DUP5 DUP3 DUP6 ADD PUSH2 0x1C61 JUMP JUMPDEST SWAP2 POP POP SWAP3 SWAP2 POP POP JUMP JUMPDEST PUSH0 DUP2 MLOAD SWAP1 POP SWAP2 SWAP1 POP JUMP JUMPDEST PUSH0 DUP2 SWAP1 POP SWAP3 SWAP2 POP POP JUMP JUMPDEST PUSH0 JUMPDEST DUP4 DUP2 LT ISZERO PUSH2 0x1CD1 JUMPI DUP1 DUP3 ADD MLOAD DUP2 DUP5 ADD MSTORE PUSH1 0x20 DUP2 ADD SWAP1 POP PUSH2 0x1CB6 JUMP JUMPDEST PUSH0 DUP5 DUP5 ADD MSTORE POP POP POP POP JUMP JUMPDEST PUSH0 PUSH2 0x1CE6 DUP3 PUSH2 0x1CA0 JUMP JUMPDEST PUSH2 0x1CF0 DUP2 DUP6 PUSH2 0x1CAA JUMP JUMPDEST SWAP4 POP PUSH2 0x1D00 DUP2 DUP6 PUSH1 0x20 DUP7 ADD PUSH2 0x1CB4 JUMP JUMPDEST DUP1 DUP5 ADD SWAP2 POP POP SWAP3 SWAP2 POP POP JUMP JUMPDEST PUSH0 PUSH2 0x1D17 DUP3 DUP5 PUSH2 0x1CDC JUMP JUMPDEST SWAP2 POP DUP2 SWAP1 POP SWAP3 SWAP2 POP POP JUMP INVALID LOG2 PUSH5 0x6970667358 0x22 SLT KECCAK256 0xBE SIGNEXTEND PUSH10 0x7AAC71E3188C0985D7F5 0xC3 0x1F DUP1 0x2E MSTORE PUSH8 0x5E8521935FEC264A COINBASE 0xD6 MULMOD EXP SIGNEXTEND PUSH5 0x736F6C6343 STOP ADDMOD AND STOP CALLER "
				},
				"gasEstimates": {
					"creation": {
						"codeDepositCost": "1502400",
						"executionCost": "infinite",
						"totalCost": "infinite"
					},
					"external": {
						"availableRewards(address)": "infinite",
						"claimRewards()": "infinite",
						"getStakedTokens(address)": "infinite",
						"nftCollection()": "infinite",
						"rewardsToken()": "infinite",
						"stake(uint256)": "infinite",
						"stakerAddress(uint256)": "2849",
						"stakers(address)": "infinite",
						"withdraw(uint256)": "infinite"
					},
					"internal": {
						"calculateRewards(address)": "infinite"
					}
				},
				"methodIdentifiers": {
					"availableRewards(address)": "f854a27f",
					"claimRewards()": "372500ab",
					"getStakedTokens(address)": "63c28db1",
					"nftCollection()": "6588103b",
					"rewardsToken()": "d1af0c7d",
					"stake(uint256)": "a694fc3a",
					"stakerAddress(uint256)": "94067045",
					"stakers(address)": "9168ae72",
					"withdraw(uint256)": "2e1a7d4d"
				}
			},
			"storageLayout": {
				"storage": [
					{
						"astId": 10,
						"contract": "nft-staking-app/StakingContract.sol:ERC721Staking",
						"label": "_status",
						"offset": 0,
						"slot": "0",
						"type": "t_uint256"
					},
					{
						"astId": 905,
						"contract": "nft-staking-app/StakingContract.sol:ERC721Staking",
						"label": "rewardsPerHour",
						"offset": 0,
						"slot": "1",
						"type": "t_uint256"
					},
					{
						"astId": 910,
						"contract": "nft-staking-app/StakingContract.sol:ERC721Staking",
						"label": "stakers",
						"offset": 0,
						"slot": "2",
						"type": "t_mapping(t_address,t_struct(Staker)902_storage)"
					},
					{
						"astId": 914,
						"contract": "nft-staking-app/StakingContract.sol:ERC721Staking",
						"label": "stakerAddress",
						"offset": 0,
						"slot": "3",
						"type": "t_mapping(t_uint256,t_address)"
					}
				],
				"types": {
					"t_address": {
						"encoding": "inplace",
						"label": "address",
						"numberOfBytes": "20"
					},
					"t_array(t_struct(StakedToken)891_storage)dyn_storage": {
						"base": "t_struct(StakedToken)891_storage",
						"encoding": "dynamic_array",
						"label": "struct ERC721Staking.StakedToken[]",
						"numberOfBytes": "32"
					},
					"t_mapping(t_address,t_struct(Staker)902_storage)": {
						"encoding": "mapping",
						"key": "t_address",
						"label": "mapping(address => struct ERC721Staking.Staker)",
						"numberOfBytes": "32",
						"value": "t_struct(Staker)902_storage"
					},
					"t_mapping(t_uint256,t_address)": {
						"encoding": "mapping",
						"key": "t_uint256",
						"label": "mapping(uint256 => address)",
						"numberOfBytes": "32",
						"value": "t_address"
					},
					"t_struct(StakedToken)891_storage": {
						"encoding": "inplace",
						"label": "struct ERC721Staking.StakedToken",
						"members": [
							{
								"astId": 888,
								"contract": "nft-staking-app/StakingContract.sol:ERC721Staking",
								"label": "staker",
								"offset": 0,
								"slot": "0",
								"type": "t_address"
							},
							{
								"astId": 890,
								"contract": "nft-staking-app/StakingContract.sol:ERC721Staking",
								"label": "tokenId",
								"offset": 0,
								"slot": "1",
								"type": "t_uint256"
							}
						],
						"numberOfBytes": "64"
					},
					"t_struct(Staker)902_storage": {
						"encoding": "inplace",
						"label": "struct ERC721Staking.Staker",
						"members": [
							{
								"astId": 893,
								"contract": "nft-staking-app/StakingContract.sol:ERC721Staking",
								"label": "amountStaked",
								"offset": 0,
								"slot": "0",
								"type": "t_uint256"
							},
							{
								"astId": 897,
								"contract": "nft-staking-app/StakingContract.sol:ERC721Staking",
								"label": "stakedTokens",
								"offset": 0,
								"slot": "1",
								"type": "t_array(t_struct(StakedToken)891_storage)dyn_storage"
							},
							{
								"astId": 899,
								"contract": "nft-staking-app/StakingContract.sol:ERC721Staking",
								"label": "timeOfLastUpdate",
								"offset": 0,
								"slot": "2",
								"type": "t_uint256"
							},
							{
								"astId": 901,
								"contract": "nft-staking-app/StakingContract.sol:ERC721Staking",
								"label": "unclaimedRewards",
								"offset": 0,
								"slot": "3",
								"type": "t_uint256"
							}
						],
						"numberOfBytes": "128"
					},
					"t_uint256": {
						"encoding": "inplace",
						"label": "uint256",
						"numberOfBytes": "32"
					}
				}
			},
			"userdoc": {
				"kind": "user",
				"methods": {},
				"version": 1
			}
		}
	}
}